{
	"data": {
		"bytecode": {
			"linkReferences": {},
			"object": "60806040526103e860015534801562000016575f80fd5b50604051620025283803806200252883398181016040528101906200003c9190620001d3565b805f806101000a81548173ffffffffffffffffffffffffffffffffffffffff021916908373ffffffffffffffffffffffffffffffffffffffff160217905550604051620000899062000152565b604051809103905ff080158015620000a3573d5f803e3d5ffd5b5060075f6101000a81548173ffffffffffffffffffffffffffffffffffffffff021916908373ffffffffffffffffffffffffffffffffffffffff160217905550604051620000f19062000160565b604051809103905ff0801580156200010b573d5f803e3d5ffd5b5060085f6101000a81548173ffffffffffffffffffffffffffffffffffffffff021916908373ffffffffffffffffffffffffffffffffffffffff1602179055505062000203565b6101d7806200219483390190565b6101bd806200236b83390190565b5f80fd5b5f73ffffffffffffffffffffffffffffffffffffffff82169050919050565b5f6200019d8262000172565b9050919050565b620001af8162000191565b8114620001ba575f80fd5b50565b5f81519050620001cd81620001a4565b92915050565b5f60208284031215620001eb57620001ea6200016e565b5b5f620001fa84828501620001bd565b91505092915050565b611f8380620002115f395ff3fe608060405234801561000f575f80fd5b50600436106100b2575f3560e01c80633b574b311161006f5780633b574b311461019c5780635fc6d9ca146101b8578063859330cd146101d4578063a0aacbe514610204578063b69ef8a814610234578063fc0c546a14610252576100b2565b8063037aeef9146100b6578063134a0709146100e6578063212d5c08146101165780632199d5cd146101465780632b7ac3f314610162578063321753c314610180575b5f80fd5b6100d060048036038101906100cb9190610b86565b610270565b6040516100dd9190610bc9565b60405180910390f35b61010060048036038101906100fb9190610b86565b610285565b60405161010d9190610bfc565b60405180910390f35b610130600480360381019061012b9190610b86565b6102a2565b60405161013d9190610c9f565b60405180910390f35b610160600480360381019061015b9190610b86565b61033d565b005b61016a610422565b6040516101779190610d1a565b60405180910390f35b61019a60048036038101906101959190610b86565b610447565b005b6101b660048036038101906101b19190610d94565b61052c565b005b6101d260048036038101906101cd9190610e5e565b610859565b005b6101ee60048036038101906101e99190610b86565b610ac7565b6040516101fb9190610bc9565b60405180910390f35b61021e60048036038101906102199190610b86565b610adc565b60405161022b9190610bfc565b60405180910390f35b61023c610af9565b6040516102499190610bc9565b60405180910390f35b61025a610aff565b6040516102679190610eef565b60405180910390f35b6004602052805f5260405f205f915090505481565b6002602052805f5260405f205f915054906101000a900460ff1681565b6006602052805f5260405f205f9150905080546102be90610f35565b80601f01602080910402602001604051908101604052809291908181526020018280546102ea90610f35565b80156103355780601f1061030c57610100808354040283529160200191610335565b820191905f5260205f20905b81548152906001019060200180831161031857829003601f168201915b505050505081565b5f8054906101000a900473ffffffffffffffffffffffffffffffffffffffff1673ffffffffffffffffffffffffffffffffffffffff163373ffffffffffffffffffffffffffffffffffffffff16146103ca576040517f08c379a00000000000000000000000000000000000000000000000000000000081526004016103c190610fbf565b60405180910390fd5b600160025f8373ffffffffffffffffffffffffffffffffffffffff1673ffffffffffffffffffffffffffffffffffffffff1681526020019081526020015f205f6101000a81548160ff02191690831515021790555050565b60075f9054906101000a900473ffffffffffffffffffffffffffffffffffffffff1681565b5f8054906101000a900473ffffffffffffffffffffffffffffffffffffffff1673ffffffffffffffffffffffffffffffffffffffff163373ffffffffffffffffffffffffffffffffffffffff16146104d4576040517f08c379a00000000000000000000000000000000000000000000000000000000081526004016104cb90610fbf565b60405180910390fd5b600160035f8373ffffffffffffffffffffffffffffffffffffffff1673ffffffffffffffffffffffffffffffffffffffff1681526020019081526020015f205f6101000a81548160ff02191690831515021790555050565b60025f3373ffffffffffffffffffffffffffffffffffffffff1673ffffffffffffffffffffffffffffffffffffffff1681526020019081526020015f205f9054906101000a900460ff166105b5576040517f08c379a00000000000000000000000000000000000000000000000000000000081526004016105ac90611027565b60405180910390fd5b600282826040516105c7929190611081565b602060405180830381855afa1580156105e2573d5f803e3d5ffd5b5050506040513d601f19601f8201168201806040525081019061060591906110cc565b5f1c60045f3373ffffffffffffffffffffffffffffffffffffffff1673ffffffffffffffffffffffffffffffffffffffff1681526020019081526020015f205414610685576040517f08c379a000000000000000000000000000000000000000000000000000000000815260040161067c90611141565b60405180910390fd5b60035f3373ffffffffffffffffffffffffffffffffffffffff1673ffffffffffffffffffffffffffffffffffffffff1681526020019081526020015f205f9054906101000a900460ff1661070e576040517f08c379a0000000000000000000000000000000000000000000000000000000008152600401610705906111cf565b60405180910390fd5b818160065f3373ffffffffffffffffffffffffffffffffffffffff1673ffffffffffffffffffffffffffffffffffffffff1681526020019081526020015f20918261075a9291906113b8565b5060085f9054906101000a900473ffffffffffffffffffffffffffffffffffffffff1673ffffffffffffffffffffffffffffffffffffffff1663b7760c8f600154336040518363ffffffff1660e01b81526004016107b99291906114a5565b6020604051808303815f875af11580156107d5573d5f803e3d5ffd5b505050506040513d601f19601f820116820180604052508101906107f991906114f6565b50818160405161080a929190611081565b60405180910390203373ffffffffffffffffffffffffffffffffffffffff167f862c03894c27b3b29da99c769d6df07c190facaa82ec3f8befea36e9ae120a9c60405160405180910390a35050565b60025f3373ffffffffffffffffffffffffffffffffffffffff1673ffffffffffffffffffffffffffffffffffffffff1681526020019081526020015f205f9054906101000a900460ff166108e2576040517f08c379a00000000000000000000000000000000000000000000000000000000081526004016108d990611027565b60405180910390fd5b6001151560075f9054906101000a900473ffffffffffffffffffffffffffffffffffffffff1673ffffffffffffffffffffffffffffffffffffffff16639deb17f584846040518061090001604052806108d981526020016116756108d991396040518463ffffffff1660e01b815260040161095f9392919061158f565b6020604051808303815f875af115801561097b573d5f803e3d5ffd5b505050506040513d601f19601f8201168201806040525081019061099f91906114f6565b1515146109e1576040517f08c379a00000000000000000000000000000000000000000000000000000000081526004016109d890611610565b60405180910390fd5b8260045f3373ffffffffffffffffffffffffffffffffffffffff1673ffffffffffffffffffffffffffffffffffffffff1681526020019081526020015f20819055508360055f3373ffffffffffffffffffffffffffffffffffffffff1673ffffffffffffffffffffffffffffffffffffffff1681526020019081526020015f20819055508181604051610a7592919061165c565b6040518091039020843373ffffffffffffffffffffffffffffffffffffffff167f558218a79339e3aee73dc14a9a6988049433be9a2dfe01dae65185d58fb7418860405160405180910390a450505050565b6005602052805f5260405f205f915090505481565b6003602052805f5260405f205f915054906101000a900460ff1681565b60015481565b60085f9054906101000a900473ffffffffffffffffffffffffffffffffffffffff1681565b5f80fd5b5f80fd5b5f73ffffffffffffffffffffffffffffffffffffffff82169050919050565b5f610b5582610b2c565b9050919050565b610b6581610b4b565b8114610b6f575f80fd5b50565b5f81359050610b8081610b5c565b92915050565b5f60208284031215610b9b57610b9a610b24565b5b5f610ba884828501610b72565b91505092915050565b5f819050919050565b610bc381610bb1565b82525050565b5f602082019050610bdc5f830184610bba565b92915050565b5f8115159050919050565b610bf681610be2565b82525050565b5f602082019050610c0f5f830184610bed565b92915050565b5f81519050919050565b5f82825260208201905092915050565b5f5b83811015610c4c578082015181840152602081019050610c31565b5f8484015250505050565b5f601f19601f8301169050919050565b5f610c7182610c15565b610c7b8185610c1f565b9350610c8b818560208601610c2f565b610c9481610c57565b840191505092915050565b5f6020820190508181035f830152610cb78184610c67565b905092915050565b5f819050919050565b5f610ce2610cdd610cd884610b2c565b610cbf565b610b2c565b9050919050565b5f610cf382610cc8565b9050919050565b5f610d0482610ce9565b9050919050565b610d1481610cfa565b82525050565b5f602082019050610d2d5f830184610d0b565b92915050565b5f80fd5b5f80fd5b5f80fd5b5f8083601f840112610d5457610d53610d33565b5b8235905067ffffffffffffffff811115610d7157610d70610d37565b5b602083019150836001820283011115610d8d57610d8c610d3b565b5b9250929050565b5f8060208385031215610daa57610da9610b24565b5b5f83013567ffffffffffffffff811115610dc757610dc6610b28565b5b610dd385828601610d3f565b92509250509250929050565b610de881610bb1565b8114610df2575f80fd5b50565b5f81359050610e0381610ddf565b92915050565b5f8083601f840112610e1e57610e1d610d33565b5b8235905067ffffffffffffffff811115610e3b57610e3a610d37565b5b602083019150836001820283011115610e5757610e56610d3b565b5b9250929050565b5f805f8060608587031215610e7657610e75610b24565b5b5f610e8387828801610df5565b9450506020610e9487828801610df5565b935050604085013567ffffffffffffffff811115610eb557610eb4610b28565b5b610ec187828801610e09565b925092505092959194509250565b5f610ed982610ce9565b9050919050565b610ee981610ecf565b82525050565b5f602082019050610f025f830184610ee0565b92915050565b7f4e487b71000000000000000000000000000000000000000000000000000000005f52602260045260245ffd5b5f6002820490506001821680610f4c57607f821691505b602082108103610f5f57610f5e610f08565b5b50919050565b5f82825260208201905092915050565b7f46756e6374696f6e206f6e6c7920617661696c61626c6520746f206f776e65725f82015250565b5f610fa9602083610f65565b9150610fb482610f75565b602082019050919050565b5f6020820190508181035f830152610fd681610f9d565b9050919050565b7f55736572206e6f742072656769737465726564000000000000000000000000005f82015250565b5f611011601383610f65565b915061101c82610fdd565b602082019050919050565b5f6020820190508181035f83015261103e81611005565b9050919050565b5f81905092915050565b828183375f83830152505050565b5f6110688385611045565b935061107583858461104f565b82840190509392505050565b5f61108d82848661105d565b91508190509392505050565b5f819050919050565b6110ab81611099565b81146110b5575f80fd5b50565b5f815190506110c6816110a2565b92915050565b5f602082840312156110e1576110e0610b24565b5b5f6110ee848285016110b8565b91505092915050565b7f4b657920697320696e636f7272656374000000000000000000000000000000005f82015250565b5f61112b601083610f65565b9150611136826110f7565b602082019050919050565b5f6020820190508181035f8301526111588161111f565b9050919050565b7f436f6465206e6f74207265636569766564207965742c2073656e6420746f20685f8201527f6f7374206174206578616d706c65406578616d706c652e636f6d000000000000602082015250565b5f6111b9603a83610f65565b91506111c48261115f565b604082019050919050565b5f6020820190508181035f8301526111e6816111ad565b9050919050565b5f82905092915050565b7f4e487b71000000000000000000000000000000000000000000000000000000005f52604160045260245ffd5b5f819050815f5260205f209050919050565b5f6020601f8301049050919050565b5f82821b905092915050565b5f600883026112807fffffffffffffffffffffffffffffffffffffffffffffffffffffffffffffffff82611245565b61128a8683611245565b95508019841693508086168417925050509392505050565b5f6112bc6112b76112b284610bb1565b610cbf565b610bb1565b9050919050565b5f819050919050565b6112d5836112a2565b6112e96112e1826112c3565b848454611251565b825550505050565b5f90565b6112fd6112f1565b6113088184846112cc565b505050565b5b8181101561132b576113205f826112f5565b60018101905061130e565b5050565b601f8211156113705761134181611224565b61134a84611236565b81016020851015611359578190505b61136d61136585611236565b83018261130d565b50505b505050565b5f82821c905092915050565b5f6113905f1984600802611375565b1980831691505092915050565b5f6113a88383611381565b9150826002028217905092915050565b6113c283836111ed565b67ffffffffffffffff8111156113db576113da6111f7565b5b6113e58254610f35565b6113f082828561132f565b5f601f83116001811461141d575f841561140b578287013590505b611415858261139d565b86555061147c565b601f19841661142b86611224565b5f5b828110156114525784890135825560018201915060208501945060208101905061142d565b8683101561146f578489013561146b601f891682611381565b8355505b6001600288020188555050505b50505050505050565b5f61148f82610b2c565b9050919050565b61149f81611485565b82525050565b5f6040820190506114b85f830185610bba565b6114c56020830184611496565b9392505050565b6114d581610be2565b81146114df575f80fd5b50565b5f815190506114f0816114cc565b92915050565b5f6020828403121561150b5761150a610b24565b5b5f611518848285016114e2565b91505092915050565b5f61152c8385610f65565b935061153983858461104f565b61154283610c57565b840190509392505050565b5f81519050919050565b5f6115618261154d565b61156b8185610f65565b935061157b818560208601610c2f565b61158481610c57565b840191505092915050565b5f6040820190508181035f8301526115a8818587611521565b905081810360208301526115bc8184611557565b9050949350505050565b7f6174746573746174696f6e206e6f742076616c696400000000000000000000005f82015250565b5f6115fa601583610f65565b9150611605826115c6565b602082019050919050565b5f6020820190508181035f830152611627816115ee565b9050919050565b5f81905092915050565b5f611643838561162e565b935061165083858461104f565b82840190509392505050565b5f611668828486611638565b9150819050939250505056fe5b6c6f616465725d0a656e747279706f696e74203d202266696c653a2f7573722f6c69622f7838365f36342d6c696e75782d676e752f6772616d696e652f6c696273797364622e736f220a6c6f675f6c6576656c203d20226572726f72220a696e7365637572655f5f7573655f636d646c696e655f61726776203d20747275650a0a5b6c6f616465722e656e765d0a4c445f4c4942524152595f50415448203d20222f6c69623a2f6c69623a2f6c69622f7838365f36342d6c696e75782d676e753a2f7573722f2f6c69622f7838365f36342d6c696e75782d676e75220a4f4d505f4e554d5f54485245414453203d202234220a0a5b6c69626f735d0a656e747279706f696e74203d20222f7573722f62696e2f707974686f6e332e38220a0a5b7379735d0a656e61626c655f7369677465726d5f696e6a656374696f6e203d20747275650a656e61626c655f65787472615f72756e74696d655f646f6d61696e5f6e616d65735f636f6e66203d20747275650a0a5b7379732e737461636b5d0a73697a65203d2022324d220a0a5b5b66732e6d6f756e74735d5d0a70617468203d20222f6c6962220a757269203d202266696c653a2f7573722f6c69622f7838365f36342d6c696e75782d676e752f6772616d696e652f72756e74696d652f676c696263220a0a5b5b66732e6d6f756e74735d5d0a70617468203d20222f6c69622f7838365f36342d6c696e75782d676e75220a757269203d202266696c653a2f6c69622f7838365f36342d6c696e75782d676e75220a0a5b5b66732e6d6f756e74735d5d0a70617468203d20222f7573722f2f6c69622f7838365f36342d6c696e75782d676e75220a757269203d202266696c653a2f7573722f2f6c69622f7838365f36342d6c696e75782d676e75220a0a5b5b66732e6d6f756e74735d5d0a70617468203d20222f7573722f6c69622f707974686f6e332e38220a757269203d202266696c653a2f7573722f6c69622f707974686f6e332e38220a0a5b5b66732e6d6f756e74735d5d0a70617468203d20222f7573722f6c69622f707974686f6e332e382f6c69622d64796e6c6f6164220a757269203d202266696c653a2f7573722f6c69622f707974686f6e332e382f6c69622d64796e6c6f6164220a0a5b5b66732e6d6f756e74735d5d0a70617468203d20222f7573722f6c6f63616c2f6c69622f707974686f6e332e382f646973742d7061636b61676573220a757269203d202266696c653a2f7573722f6c6f63616c2f6c69622f707974686f6e332e382f646973742d7061636b61676573220a0a5b5b66732e6d6f756e74735d5d0a70617468203d20222f7573722f6c69622f707974686f6e332f646973742d7061636b61676573220a757269203d202266696c653a2f7573722f6c69622f707974686f6e332f646973742d7061636b61676573220a0a5b5b66732e6d6f756e74735d5d0a70617468203d20222f7573722f62696e2f707974686f6e332e38220a757269203d202266696c653a2f7573722f62696e2f707974686f6e332e38220a0a5b5b66732e6d6f756e74735d5d0a70617468203d20222f62696e2f7368220a757269203d202266696c653a2f62696e2f7368220a0a5b5b66732e6d6f756e74735d5d0a74797065203d2022746d706673220a70617468203d20222f746d70220a0a5b7367785d0a6465627567203d2066616c73650a65646d6d5f656e61626c65203d2066616c73650a656e636c6176655f73697a65203d20223447220a6d61785f74687265616473203d2033320a72656d6f74655f6174746573746174696f6e203d20226e6f6e65220a72615f636c69656e745f73706964203d2022220a72615f636c69656e745f6c696e6b61626c65203d2066616c73650a747275737465645f66696c6573203d205b0a202020207b20757269203d202266696c653a2f7573722f6c69622f7838365f36342d6c696e75782d676e752f6772616d696e652f6c696273797364622e736f22207d2c0a202020207b20757269203d202266696c653a2f7573722f62696e2f707974686f6e332e3822207d2c0a202020207b20757269203d202266696c653a2f7573722f6c69622f7838365f36342d6c696e75782d676e752f6772616d696e652f72756e74696d652f676c6962632f22207d2c0a202020207b20757269203d202266696c653a2f6c69622f7838365f36342d6c696e75782d676e752f22207d2c0a202020207b20757269203d202266696c653a2f7573722f2f6c69622f7838365f36342d6c696e75782d676e752f22207d2c0a202020207b20757269203d202266696c653a2f7573722f6c69622f707974686f6e332e382f22207d2c0a202020207b20757269203d202266696c653a2f7573722f6c69622f707974686f6e332e382f6c69622d64796e6c6f61642f22207d2c0a202020207b20757269203d202266696c653a2f7573722f6c6f63616c2f6c69622f707974686f6e332e382f646973742d7061636b616765732f22207d2c0a202020207b20757269203d202266696c653a2f7573722f6c69622f707974686f6e332f646973742d7061636b616765732f22207d2c0a202020207b20757269203d202266696c653a2f62696e2f736822207d2c0a202020207b20757269203d202266696c653a2e2f22207d2c0a202020207b20757269203d202266696c653a7375626d697373696f6e2e707922207d2c0a202020207b20757269203d202266696c653a696e746572666163652e707922207d2c0a202020207b20757269203d202266696c653a7075626c69635f6b65792e74787422207d2c0a202020207b20757269203d202266696c653a7375626d69747465725f6b65792e74787422207d2c0a5d0a69737670726f646964203d20300a69737673766e203d20300a656e61626c655f7374617473203d2066616c73650a7573655f6578696e666f203d2066616c73650a0a5b7367782e6370755f66656174757265735d0a617678203d2022756e737065636966696564220a617678353132203d2022756e737065636966696564220a616d78203d2022756e737065636966696564220a6d7078203d202264697361626c6564220a706b7275203d202264697361626c6564220aa2646970667358221220c67bb0e4160dfb9826a83f2a1b5bbb139eb48be739808c706ba4504fe03dba1864736f6c63430008160033608060405234801561000f575f80fd5b506101ba8061001d5f395ff3fe608060405234801561000f575f80fd5b5060043610610029575f3560e01c80639deb17f51461002d575b5f80fd5b610047600480360381019061004291906100d3565b61005d565b604051610054919061016b565b60405180910390f35b5f60019050949350505050565b5f80fd5b5f80fd5b5f80fd5b5f80fd5b5f80fd5b5f8083601f84011261009357610092610072565b5b8235905067ffffffffffffffff8111156100b0576100af610076565b5b6020830191508360018202830111156100cc576100cb61007a565b5b9250929050565b5f805f80604085870312156100eb576100ea61006a565b5b5f85013567ffffffffffffffff8111156101085761010761006e565b5b6101148782880161007e565b9450945050602085013567ffffffffffffffff8111156101375761013661006e565b5b6101438782880161007e565b925092505092959194509250565b5f8115159050919050565b61016581610151565b82525050565b5f60208201905061017e5f83018461015c565b9291505056fea264697066735822122017f29b9b4ca2df6a36e848998d24f501881e62027efd86a7b2e181880df6e91764736f6c63430008160033608060405234801561000f575f80fd5b506101a08061001d5f395ff3fe608060405234801561000f575f80fd5b5060043610610029575f3560e01c8063b7760c8f1461002d575b5f80fd5b610047600480360381019061004291906100f9565b61005d565b6040516100549190610151565b60405180910390f35b5f6001905092915050565b5f80fd5b5f819050919050565b61007e8161006c565b8114610088575f80fd5b50565b5f8135905061009981610075565b92915050565b5f73ffffffffffffffffffffffffffffffffffffffff82169050919050565b5f6100c88261009f565b9050919050565b6100d8816100be565b81146100e2575f80fd5b50565b5f813590506100f3816100cf565b92915050565b5f806040838503121561010f5761010e610068565b5b5f61011c8582860161008b565b925050602061012d858286016100e5565b9150509250929050565b5f8115159050919050565b61014b81610137565b82525050565b5f6020820190506101645f830184610142565b9291505056fea2646970667358221220b8e5a2ea5bcc85566911b3de0e5a5d8dc51fdc86beeba3d3290e71e66db3a51064736f6c63430008160033",
			"opcodes": "PUSH1 0x80 PUSH1 0x40 MSTORE PUSH2 0x3E8 PUSH1 0x1 SSTORE CALLVALUE DUP1 ISZERO PUSH3 0x16 JUMPI PUSH0 DUP1 REVERT JUMPDEST POP PUSH1 0x40 MLOAD PUSH3 0x2528 CODESIZE SUB DUP1 PUSH3 0x2528 DUP4 CODECOPY DUP2 DUP2 ADD PUSH1 0x40 MSTORE DUP2 ADD SWAP1 PUSH3 0x3C SWAP2 SWAP1 PUSH3 0x1D3 JUMP JUMPDEST DUP1 PUSH0 DUP1 PUSH2 0x100 EXP DUP2 SLOAD DUP2 PUSH20 0xFFFFFFFFFFFFFFFFFFFFFFFFFFFFFFFFFFFFFFFF MUL NOT AND SWAP1 DUP4 PUSH20 0xFFFFFFFFFFFFFFFFFFFFFFFFFFFFFFFFFFFFFFFF AND MUL OR SWAP1 SSTORE POP PUSH1 0x40 MLOAD PUSH3 0x89 SWAP1 PUSH3 0x152 JUMP JUMPDEST PUSH1 0x40 MLOAD DUP1 SWAP2 SUB SWAP1 PUSH0 CREATE DUP1 ISZERO DUP1 ISZERO PUSH3 0xA3 JUMPI RETURNDATASIZE PUSH0 DUP1 RETURNDATACOPY RETURNDATASIZE PUSH0 REVERT JUMPDEST POP PUSH1 0x7 PUSH0 PUSH2 0x100 EXP DUP2 SLOAD DUP2 PUSH20 0xFFFFFFFFFFFFFFFFFFFFFFFFFFFFFFFFFFFFFFFF MUL NOT AND SWAP1 DUP4 PUSH20 0xFFFFFFFFFFFFFFFFFFFFFFFFFFFFFFFFFFFFFFFF AND MUL OR SWAP1 SSTORE POP PUSH1 0x40 MLOAD PUSH3 0xF1 SWAP1 PUSH3 0x160 JUMP JUMPDEST PUSH1 0x40 MLOAD DUP1 SWAP2 SUB SWAP1 PUSH0 CREATE DUP1 ISZERO DUP1 ISZERO PUSH3 0x10B JUMPI RETURNDATASIZE PUSH0 DUP1 RETURNDATACOPY RETURNDATASIZE PUSH0 REVERT JUMPDEST POP PUSH1 0x8 PUSH0 PUSH2 0x100 EXP DUP2 SLOAD DUP2 PUSH20 0xFFFFFFFFFFFFFFFFFFFFFFFFFFFFFFFFFFFFFFFF MUL NOT AND SWAP1 DUP4 PUSH20 0xFFFFFFFFFFFFFFFFFFFFFFFFFFFFFFFFFFFFFFFF AND MUL OR SWAP1 SSTORE POP POP PUSH3 0x203 JUMP JUMPDEST PUSH2 0x1D7 DUP1 PUSH3 0x2194 DUP4 CODECOPY ADD SWAP1 JUMP JUMPDEST PUSH2 0x1BD DUP1 PUSH3 0x236B DUP4 CODECOPY ADD SWAP1 JUMP JUMPDEST PUSH0 DUP1 REVERT JUMPDEST PUSH0 PUSH20 0xFFFFFFFFFFFFFFFFFFFFFFFFFFFFFFFFFFFFFFFF DUP3 AND SWAP1 POP SWAP2 SWAP1 POP JUMP JUMPDEST PUSH0 PUSH3 0x19D DUP3 PUSH3 0x172 JUMP JUMPDEST SWAP1 POP SWAP2 SWAP1 POP JUMP JUMPDEST PUSH3 0x1AF DUP2 PUSH3 0x191 JUMP JUMPDEST DUP2 EQ PUSH3 0x1BA JUMPI PUSH0 DUP1 REVERT JUMPDEST POP JUMP JUMPDEST PUSH0 DUP2 MLOAD SWAP1 POP PUSH3 0x1CD DUP2 PUSH3 0x1A4 JUMP JUMPDEST SWAP3 SWAP2 POP POP JUMP JUMPDEST PUSH0 PUSH1 0x20 DUP3 DUP5 SUB SLT ISZERO PUSH3 0x1EB JUMPI PUSH3 0x1EA PUSH3 0x16E JUMP JUMPDEST JUMPDEST PUSH0 PUSH3 0x1FA DUP5 DUP3 DUP6 ADD PUSH3 0x1BD JUMP JUMPDEST SWAP2 POP POP SWAP3 SWAP2 POP POP JUMP JUMPDEST PUSH2 0x1F83 DUP1 PUSH3 0x211 PUSH0 CODECOPY PUSH0 RETURN INVALID PUSH1 0x80 PUSH1 0x40 MSTORE CALLVALUE DUP1 ISZERO PUSH2 0xF JUMPI PUSH0 DUP1 REVERT JUMPDEST POP PUSH1 0x4 CALLDATASIZE LT PUSH2 0xB2 JUMPI PUSH0 CALLDATALOAD PUSH1 0xE0 SHR DUP1 PUSH4 0x3B574B31 GT PUSH2 0x6F JUMPI DUP1 PUSH4 0x3B574B31 EQ PUSH2 0x19C JUMPI DUP1 PUSH4 0x5FC6D9CA EQ PUSH2 0x1B8 JUMPI DUP1 PUSH4 0x859330CD EQ PUSH2 0x1D4 JUMPI DUP1 PUSH4 0xA0AACBE5 EQ PUSH2 0x204 JUMPI DUP1 PUSH4 0xB69EF8A8 EQ PUSH2 0x234 JUMPI DUP1 PUSH4 0xFC0C546A EQ PUSH2 0x252 JUMPI PUSH2 0xB2 JUMP JUMPDEST DUP1 PUSH4 0x37AEEF9 EQ PUSH2 0xB6 JUMPI DUP1 PUSH4 0x134A0709 EQ PUSH2 0xE6 JUMPI DUP1 PUSH4 0x212D5C08 EQ PUSH2 0x116 JUMPI DUP1 PUSH4 0x2199D5CD EQ PUSH2 0x146 JUMPI DUP1 PUSH4 0x2B7AC3F3 EQ PUSH2 0x162 JUMPI DUP1 PUSH4 0x321753C3 EQ PUSH2 0x180 JUMPI JUMPDEST PUSH0 DUP1 REVERT JUMPDEST PUSH2 0xD0 PUSH1 0x4 DUP1 CALLDATASIZE SUB DUP2 ADD SWAP1 PUSH2 0xCB SWAP2 SWAP1 PUSH2 0xB86 JUMP JUMPDEST PUSH2 0x270 JUMP JUMPDEST PUSH1 0x40 MLOAD PUSH2 0xDD SWAP2 SWAP1 PUSH2 0xBC9 JUMP JUMPDEST PUSH1 0x40 MLOAD DUP1 SWAP2 SUB SWAP1 RETURN JUMPDEST PUSH2 0x100 PUSH1 0x4 DUP1 CALLDATASIZE SUB DUP2 ADD SWAP1 PUSH2 0xFB SWAP2 SWAP1 PUSH2 0xB86 JUMP JUMPDEST PUSH2 0x285 JUMP JUMPDEST PUSH1 0x40 MLOAD PUSH2 0x10D SWAP2 SWAP1 PUSH2 0xBFC JUMP JUMPDEST PUSH1 0x40 MLOAD DUP1 SWAP2 SUB SWAP1 RETURN JUMPDEST PUSH2 0x130 PUSH1 0x4 DUP1 CALLDATASIZE SUB DUP2 ADD SWAP1 PUSH2 0x12B SWAP2 SWAP1 PUSH2 0xB86 JUMP JUMPDEST PUSH2 0x2A2 JUMP JUMPDEST PUSH1 0x40 MLOAD PUSH2 0x13D SWAP2 SWAP1 PUSH2 0xC9F JUMP JUMPDEST PUSH1 0x40 MLOAD DUP1 SWAP2 SUB SWAP1 RETURN JUMPDEST PUSH2 0x160 PUSH1 0x4 DUP1 CALLDATASIZE SUB DUP2 ADD SWAP1 PUSH2 0x15B SWAP2 SWAP1 PUSH2 0xB86 JUMP JUMPDEST PUSH2 0x33D JUMP JUMPDEST STOP JUMPDEST PUSH2 0x16A PUSH2 0x422 JUMP JUMPDEST PUSH1 0x40 MLOAD PUSH2 0x177 SWAP2 SWAP1 PUSH2 0xD1A JUMP JUMPDEST PUSH1 0x40 MLOAD DUP1 SWAP2 SUB SWAP1 RETURN JUMPDEST PUSH2 0x19A PUSH1 0x4 DUP1 CALLDATASIZE SUB DUP2 ADD SWAP1 PUSH2 0x195 SWAP2 SWAP1 PUSH2 0xB86 JUMP JUMPDEST PUSH2 0x447 JUMP JUMPDEST STOP JUMPDEST PUSH2 0x1B6 PUSH1 0x4 DUP1 CALLDATASIZE SUB DUP2 ADD SWAP1 PUSH2 0x1B1 SWAP2 SWAP1 PUSH2 0xD94 JUMP JUMPDEST PUSH2 0x52C JUMP JUMPDEST STOP JUMPDEST PUSH2 0x1D2 PUSH1 0x4 DUP1 CALLDATASIZE SUB DUP2 ADD SWAP1 PUSH2 0x1CD SWAP2 SWAP1 PUSH2 0xE5E JUMP JUMPDEST PUSH2 0x859 JUMP JUMPDEST STOP JUMPDEST PUSH2 0x1EE PUSH1 0x4 DUP1 CALLDATASIZE SUB DUP2 ADD SWAP1 PUSH2 0x1E9 SWAP2 SWAP1 PUSH2 0xB86 JUMP JUMPDEST PUSH2 0xAC7 JUMP JUMPDEST PUSH1 0x40 MLOAD PUSH2 0x1FB SWAP2 SWAP1 PUSH2 0xBC9 JUMP JUMPDEST PUSH1 0x40 MLOAD DUP1 SWAP2 SUB SWAP1 RETURN JUMPDEST PUSH2 0x21E PUSH1 0x4 DUP1 CALLDATASIZE SUB DUP2 ADD SWAP1 PUSH2 0x219 SWAP2 SWAP1 PUSH2 0xB86 JUMP JUMPDEST PUSH2 0xADC JUMP JUMPDEST PUSH1 0x40 MLOAD PUSH2 0x22B SWAP2 SWAP1 PUSH2 0xBFC JUMP JUMPDEST PUSH1 0x40 MLOAD DUP1 SWAP2 SUB SWAP1 RETURN JUMPDEST PUSH2 0x23C PUSH2 0xAF9 JUMP JUMPDEST PUSH1 0x40 MLOAD PUSH2 0x249 SWAP2 SWAP1 PUSH2 0xBC9 JUMP JUMPDEST PUSH1 0x40 MLOAD DUP1 SWAP2 SUB SWAP1 RETURN JUMPDEST PUSH2 0x25A PUSH2 0xAFF JUMP JUMPDEST PUSH1 0x40 MLOAD PUSH2 0x267 SWAP2 SWAP1 PUSH2 0xEEF JUMP JUMPDEST PUSH1 0x40 MLOAD DUP1 SWAP2 SUB SWAP1 RETURN JUMPDEST PUSH1 0x4 PUSH1 0x20 MSTORE DUP1 PUSH0 MSTORE PUSH1 0x40 PUSH0 KECCAK256 PUSH0 SWAP2 POP SWAP1 POP SLOAD DUP2 JUMP JUMPDEST PUSH1 0x2 PUSH1 0x20 MSTORE DUP1 PUSH0 MSTORE PUSH1 0x40 PUSH0 KECCAK256 PUSH0 SWAP2 POP SLOAD SWAP1 PUSH2 0x100 EXP SWAP1 DIV PUSH1 0xFF AND DUP2 JUMP JUMPDEST PUSH1 0x6 PUSH1 0x20 MSTORE DUP1 PUSH0 MSTORE PUSH1 0x40 PUSH0 KECCAK256 PUSH0 SWAP2 POP SWAP1 POP DUP1 SLOAD PUSH2 0x2BE SWAP1 PUSH2 0xF35 JUMP JUMPDEST DUP1 PUSH1 0x1F ADD PUSH1 0x20 DUP1 SWAP2 DIV MUL PUSH1 0x20 ADD PUSH1 0x40 MLOAD SWAP1 DUP2 ADD PUSH1 0x40 MSTORE DUP1 SWAP3 SWAP2 SWAP1 DUP2 DUP2 MSTORE PUSH1 0x20 ADD DUP3 DUP1 SLOAD PUSH2 0x2EA SWAP1 PUSH2 0xF35 JUMP JUMPDEST DUP1 ISZERO PUSH2 0x335 JUMPI DUP1 PUSH1 0x1F LT PUSH2 0x30C JUMPI PUSH2 0x100 DUP1 DUP4 SLOAD DIV MUL DUP4 MSTORE SWAP2 PUSH1 0x20 ADD SWAP2 PUSH2 0x335 JUMP JUMPDEST DUP3 ADD SWAP2 SWAP1 PUSH0 MSTORE PUSH1 0x20 PUSH0 KECCAK256 SWAP1 JUMPDEST DUP2 SLOAD DUP2 MSTORE SWAP1 PUSH1 0x1 ADD SWAP1 PUSH1 0x20 ADD DUP1 DUP4 GT PUSH2 0x318 JUMPI DUP3 SWAP1 SUB PUSH1 0x1F AND DUP3 ADD SWAP2 JUMPDEST POP POP POP POP POP DUP2 JUMP JUMPDEST PUSH0 DUP1 SLOAD SWAP1 PUSH2 0x100 EXP SWAP1 DIV PUSH20 0xFFFFFFFFFFFFFFFFFFFFFFFFFFFFFFFFFFFFFFFF AND PUSH20 0xFFFFFFFFFFFFFFFFFFFFFFFFFFFFFFFFFFFFFFFF AND CALLER PUSH20 0xFFFFFFFFFFFFFFFFFFFFFFFFFFFFFFFFFFFFFFFF AND EQ PUSH2 0x3CA JUMPI PUSH1 0x40 MLOAD PUSH32 0x8C379A000000000000000000000000000000000000000000000000000000000 DUP2 MSTORE PUSH1 0x4 ADD PUSH2 0x3C1 SWAP1 PUSH2 0xFBF JUMP JUMPDEST PUSH1 0x40 MLOAD DUP1 SWAP2 SUB SWAP1 REVERT JUMPDEST PUSH1 0x1 PUSH1 0x2 PUSH0 DUP4 PUSH20 0xFFFFFFFFFFFFFFFFFFFFFFFFFFFFFFFFFFFFFFFF AND PUSH20 0xFFFFFFFFFFFFFFFFFFFFFFFFFFFFFFFFFFFFFFFF AND DUP2 MSTORE PUSH1 0x20 ADD SWAP1 DUP2 MSTORE PUSH1 0x20 ADD PUSH0 KECCAK256 PUSH0 PUSH2 0x100 EXP DUP2 SLOAD DUP2 PUSH1 0xFF MUL NOT AND SWAP1 DUP4 ISZERO ISZERO MUL OR SWAP1 SSTORE POP POP JUMP JUMPDEST PUSH1 0x7 PUSH0 SWAP1 SLOAD SWAP1 PUSH2 0x100 EXP SWAP1 DIV PUSH20 0xFFFFFFFFFFFFFFFFFFFFFFFFFFFFFFFFFFFFFFFF AND DUP2 JUMP JUMPDEST PUSH0 DUP1 SLOAD SWAP1 PUSH2 0x100 EXP SWAP1 DIV PUSH20 0xFFFFFFFFFFFFFFFFFFFFFFFFFFFFFFFFFFFFFFFF AND PUSH20 0xFFFFFFFFFFFFFFFFFFFFFFFFFFFFFFFFFFFFFFFF AND CALLER PUSH20 0xFFFFFFFFFFFFFFFFFFFFFFFFFFFFFFFFFFFFFFFF AND EQ PUSH2 0x4D4 JUMPI PUSH1 0x40 MLOAD PUSH32 0x8C379A000000000000000000000000000000000000000000000000000000000 DUP2 MSTORE PUSH1 0x4 ADD PUSH2 0x4CB SWAP1 PUSH2 0xFBF JUMP JUMPDEST PUSH1 0x40 MLOAD DUP1 SWAP2 SUB SWAP1 REVERT JUMPDEST PUSH1 0x1 PUSH1 0x3 PUSH0 DUP4 PUSH20 0xFFFFFFFFFFFFFFFFFFFFFFFFFFFFFFFFFFFFFFFF AND PUSH20 0xFFFFFFFFFFFFFFFFFFFFFFFFFFFFFFFFFFFFFFFF AND DUP2 MSTORE PUSH1 0x20 ADD SWAP1 DUP2 MSTORE PUSH1 0x20 ADD PUSH0 KECCAK256 PUSH0 PUSH2 0x100 EXP DUP2 SLOAD DUP2 PUSH1 0xFF MUL NOT AND SWAP1 DUP4 ISZERO ISZERO MUL OR SWAP1 SSTORE POP POP JUMP JUMPDEST PUSH1 0x2 PUSH0 CALLER PUSH20 0xFFFFFFFFFFFFFFFFFFFFFFFFFFFFFFFFFFFFFFFF AND PUSH20 0xFFFFFFFFFFFFFFFFFFFFFFFFFFFFFFFFFFFFFFFF AND DUP2 MSTORE PUSH1 0x20 ADD SWAP1 DUP2 MSTORE PUSH1 0x20 ADD PUSH0 KECCAK256 PUSH0 SWAP1 SLOAD SWAP1 PUSH2 0x100 EXP SWAP1 DIV PUSH1 0xFF AND PUSH2 0x5B5 JUMPI PUSH1 0x40 MLOAD PUSH32 0x8C379A000000000000000000000000000000000000000000000000000000000 DUP2 MSTORE PUSH1 0x4 ADD PUSH2 0x5AC SWAP1 PUSH2 0x1027 JUMP JUMPDEST PUSH1 0x40 MLOAD DUP1 SWAP2 SUB SWAP1 REVERT JUMPDEST PUSH1 0x2 DUP3 DUP3 PUSH1 0x40 MLOAD PUSH2 0x5C7 SWAP3 SWAP2 SWAP1 PUSH2 0x1081 JUMP JUMPDEST PUSH1 0x20 PUSH1 0x40 MLOAD DUP1 DUP4 SUB DUP2 DUP6 GAS STATICCALL ISZERO DUP1 ISZERO PUSH2 0x5E2 JUMPI RETURNDATASIZE PUSH0 DUP1 RETURNDATACOPY RETURNDATASIZE PUSH0 REVERT JUMPDEST POP POP POP PUSH1 0x40 MLOAD RETURNDATASIZE PUSH1 0x1F NOT PUSH1 0x1F DUP3 ADD AND DUP3 ADD DUP1 PUSH1 0x40 MSTORE POP DUP2 ADD SWAP1 PUSH2 0x605 SWAP2 SWAP1 PUSH2 0x10CC JUMP JUMPDEST PUSH0 SHR PUSH1 0x4 PUSH0 CALLER PUSH20 0xFFFFFFFFFFFFFFFFFFFFFFFFFFFFFFFFFFFFFFFF AND PUSH20 0xFFFFFFFFFFFFFFFFFFFFFFFFFFFFFFFFFFFFFFFF AND DUP2 MSTORE PUSH1 0x20 ADD SWAP1 DUP2 MSTORE PUSH1 0x20 ADD PUSH0 KECCAK256 SLOAD EQ PUSH2 0x685 JUMPI PUSH1 0x40 MLOAD PUSH32 0x8C379A000000000000000000000000000000000000000000000000000000000 DUP2 MSTORE PUSH1 0x4 ADD PUSH2 0x67C SWAP1 PUSH2 0x1141 JUMP JUMPDEST PUSH1 0x40 MLOAD DUP1 SWAP2 SUB SWAP1 REVERT JUMPDEST PUSH1 0x3 PUSH0 CALLER PUSH20 0xFFFFFFFFFFFFFFFFFFFFFFFFFFFFFFFFFFFFFFFF AND PUSH20 0xFFFFFFFFFFFFFFFFFFFFFFFFFFFFFFFFFFFFFFFF AND DUP2 MSTORE PUSH1 0x20 ADD SWAP1 DUP2 MSTORE PUSH1 0x20 ADD PUSH0 KECCAK256 PUSH0 SWAP1 SLOAD SWAP1 PUSH2 0x100 EXP SWAP1 DIV PUSH1 0xFF AND PUSH2 0x70E JUMPI PUSH1 0x40 MLOAD PUSH32 0x8C379A000000000000000000000000000000000000000000000000000000000 DUP2 MSTORE PUSH1 0x4 ADD PUSH2 0x705 SWAP1 PUSH2 0x11CF JUMP JUMPDEST PUSH1 0x40 MLOAD DUP1 SWAP2 SUB SWAP1 REVERT JUMPDEST DUP2 DUP2 PUSH1 0x6 PUSH0 CALLER PUSH20 0xFFFFFFFFFFFFFFFFFFFFFFFFFFFFFFFFFFFFFFFF AND PUSH20 0xFFFFFFFFFFFFFFFFFFFFFFFFFFFFFFFFFFFFFFFF AND DUP2 MSTORE PUSH1 0x20 ADD SWAP1 DUP2 MSTORE PUSH1 0x20 ADD PUSH0 KECCAK256 SWAP2 DUP3 PUSH2 0x75A SWAP3 SWAP2 SWAP1 PUSH2 0x13B8 JUMP JUMPDEST POP PUSH1 0x8 PUSH0 SWAP1 SLOAD SWAP1 PUSH2 0x100 EXP SWAP1 DIV PUSH20 0xFFFFFFFFFFFFFFFFFFFFFFFFFFFFFFFFFFFFFFFF AND PUSH20 0xFFFFFFFFFFFFFFFFFFFFFFFFFFFFFFFFFFFFFFFF AND PUSH4 0xB7760C8F PUSH1 0x1 SLOAD CALLER PUSH1 0x40 MLOAD DUP4 PUSH4 0xFFFFFFFF AND PUSH1 0xE0 SHL DUP2 MSTORE PUSH1 0x4 ADD PUSH2 0x7B9 SWAP3 SWAP2 SWAP1 PUSH2 0x14A5 JUMP JUMPDEST PUSH1 0x20 PUSH1 0x40 MLOAD DUP1 DUP4 SUB DUP2 PUSH0 DUP8 GAS CALL ISZERO DUP1 ISZERO PUSH2 0x7D5 JUMPI RETURNDATASIZE PUSH0 DUP1 RETURNDATACOPY RETURNDATASIZE PUSH0 REVERT JUMPDEST POP POP POP POP PUSH1 0x40 MLOAD RETURNDATASIZE PUSH1 0x1F NOT PUSH1 0x1F DUP3 ADD AND DUP3 ADD DUP1 PUSH1 0x40 MSTORE POP DUP2 ADD SWAP1 PUSH2 0x7F9 SWAP2 SWAP1 PUSH2 0x14F6 JUMP JUMPDEST POP DUP2 DUP2 PUSH1 0x40 MLOAD PUSH2 0x80A SWAP3 SWAP2 SWAP1 PUSH2 0x1081 JUMP JUMPDEST PUSH1 0x40 MLOAD DUP1 SWAP2 SUB SWAP1 KECCAK256 CALLER PUSH20 0xFFFFFFFFFFFFFFFFFFFFFFFFFFFFFFFFFFFFFFFF AND PUSH32 0x862C03894C27B3B29DA99C769D6DF07C190FACAA82EC3F8BEFEA36E9AE120A9C PUSH1 0x40 MLOAD PUSH1 0x40 MLOAD DUP1 SWAP2 SUB SWAP1 LOG3 POP POP JUMP JUMPDEST PUSH1 0x2 PUSH0 CALLER PUSH20 0xFFFFFFFFFFFFFFFFFFFFFFFFFFFFFFFFFFFFFFFF AND PUSH20 0xFFFFFFFFFFFFFFFFFFFFFFFFFFFFFFFFFFFFFFFF AND DUP2 MSTORE PUSH1 0x20 ADD SWAP1 DUP2 MSTORE PUSH1 0x20 ADD PUSH0 KECCAK256 PUSH0 SWAP1 SLOAD SWAP1 PUSH2 0x100 EXP SWAP1 DIV PUSH1 0xFF AND PUSH2 0x8E2 JUMPI PUSH1 0x40 MLOAD PUSH32 0x8C379A000000000000000000000000000000000000000000000000000000000 DUP2 MSTORE PUSH1 0x4 ADD PUSH2 0x8D9 SWAP1 PUSH2 0x1027 JUMP JUMPDEST PUSH1 0x40 MLOAD DUP1 SWAP2 SUB SWAP1 REVERT JUMPDEST PUSH1 0x1 ISZERO ISZERO PUSH1 0x7 PUSH0 SWAP1 SLOAD SWAP1 PUSH2 0x100 EXP SWAP1 DIV PUSH20 0xFFFFFFFFFFFFFFFFFFFFFFFFFFFFFFFFFFFFFFFF AND PUSH20 0xFFFFFFFFFFFFFFFFFFFFFFFFFFFFFFFFFFFFFFFF AND PUSH4 0x9DEB17F5 DUP5 DUP5 PUSH1 0x40 MLOAD DUP1 PUSH2 0x900 ADD PUSH1 0x40 MSTORE DUP1 PUSH2 0x8D9 DUP2 MSTORE PUSH1 0x20 ADD PUSH2 0x1675 PUSH2 0x8D9 SWAP2 CODECOPY PUSH1 0x40 MLOAD DUP5 PUSH4 0xFFFFFFFF AND PUSH1 0xE0 SHL DUP2 MSTORE PUSH1 0x4 ADD PUSH2 0x95F SWAP4 SWAP3 SWAP2 SWAP1 PUSH2 0x158F JUMP JUMPDEST PUSH1 0x20 PUSH1 0x40 MLOAD DUP1 DUP4 SUB DUP2 PUSH0 DUP8 GAS CALL ISZERO DUP1 ISZERO PUSH2 0x97B JUMPI RETURNDATASIZE PUSH0 DUP1 RETURNDATACOPY RETURNDATASIZE PUSH0 REVERT JUMPDEST POP POP POP POP PUSH1 0x40 MLOAD RETURNDATASIZE PUSH1 0x1F NOT PUSH1 0x1F DUP3 ADD AND DUP3 ADD DUP1 PUSH1 0x40 MSTORE POP DUP2 ADD SWAP1 PUSH2 0x99F SWAP2 SWAP1 PUSH2 0x14F6 JUMP JUMPDEST ISZERO ISZERO EQ PUSH2 0x9E1 JUMPI PUSH1 0x40 MLOAD PUSH32 0x8C379A000000000000000000000000000000000000000000000000000000000 DUP2 MSTORE PUSH1 0x4 ADD PUSH2 0x9D8 SWAP1 PUSH2 0x1610 JUMP JUMPDEST PUSH1 0x40 MLOAD DUP1 SWAP2 SUB SWAP1 REVERT JUMPDEST DUP3 PUSH1 0x4 PUSH0 CALLER PUSH20 0xFFFFFFFFFFFFFFFFFFFFFFFFFFFFFFFFFFFFFFFF AND PUSH20 0xFFFFFFFFFFFFFFFFFFFFFFFFFFFFFFFFFFFFFFFF AND DUP2 MSTORE PUSH1 0x20 ADD SWAP1 DUP2 MSTORE PUSH1 0x20 ADD PUSH0 KECCAK256 DUP2 SWAP1 SSTORE POP DUP4 PUSH1 0x5 PUSH0 CALLER PUSH20 0xFFFFFFFFFFFFFFFFFFFFFFFFFFFFFFFFFFFFFFFF AND PUSH20 0xFFFFFFFFFFFFFFFFFFFFFFFFFFFFFFFFFFFFFFFF AND DUP2 MSTORE PUSH1 0x20 ADD SWAP1 DUP2 MSTORE PUSH1 0x20 ADD PUSH0 KECCAK256 DUP2 SWAP1 SSTORE POP DUP2 DUP2 PUSH1 0x40 MLOAD PUSH2 0xA75 SWAP3 SWAP2 SWAP1 PUSH2 0x165C JUMP JUMPDEST PUSH1 0x40 MLOAD DUP1 SWAP2 SUB SWAP1 KECCAK256 DUP5 CALLER PUSH20 0xFFFFFFFFFFFFFFFFFFFFFFFFFFFFFFFFFFFFFFFF AND PUSH32 0x558218A79339E3AEE73DC14A9A6988049433BE9A2DFE01DAE65185D58FB74188 PUSH1 0x40 MLOAD PUSH1 0x40 MLOAD DUP1 SWAP2 SUB SWAP1 LOG4 POP POP POP POP JUMP JUMPDEST PUSH1 0x5 PUSH1 0x20 MSTORE DUP1 PUSH0 MSTORE PUSH1 0x40 PUSH0 KECCAK256 PUSH0 SWAP2 POP SWAP1 POP SLOAD DUP2 JUMP JUMPDEST PUSH1 0x3 PUSH1 0x20 MSTORE DUP1 PUSH0 MSTORE PUSH1 0x40 PUSH0 KECCAK256 PUSH0 SWAP2 POP SLOAD SWAP1 PUSH2 0x100 EXP SWAP1 DIV PUSH1 0xFF AND DUP2 JUMP JUMPDEST PUSH1 0x1 SLOAD DUP2 JUMP JUMPDEST PUSH1 0x8 PUSH0 SWAP1 SLOAD SWAP1 PUSH2 0x100 EXP SWAP1 DIV PUSH20 0xFFFFFFFFFFFFFFFFFFFFFFFFFFFFFFFFFFFFFFFF AND DUP2 JUMP JUMPDEST PUSH0 DUP1 REVERT JUMPDEST PUSH0 DUP1 REVERT JUMPDEST PUSH0 PUSH20 0xFFFFFFFFFFFFFFFFFFFFFFFFFFFFFFFFFFFFFFFF DUP3 AND SWAP1 POP SWAP2 SWAP1 POP JUMP JUMPDEST PUSH0 PUSH2 0xB55 DUP3 PUSH2 0xB2C JUMP JUMPDEST SWAP1 POP SWAP2 SWAP1 POP JUMP JUMPDEST PUSH2 0xB65 DUP2 PUSH2 0xB4B JUMP JUMPDEST DUP2 EQ PUSH2 0xB6F JUMPI PUSH0 DUP1 REVERT JUMPDEST POP JUMP JUMPDEST PUSH0 DUP2 CALLDATALOAD SWAP1 POP PUSH2 0xB80 DUP2 PUSH2 0xB5C JUMP JUMPDEST SWAP3 SWAP2 POP POP JUMP JUMPDEST PUSH0 PUSH1 0x20 DUP3 DUP5 SUB SLT ISZERO PUSH2 0xB9B JUMPI PUSH2 0xB9A PUSH2 0xB24 JUMP JUMPDEST JUMPDEST PUSH0 PUSH2 0xBA8 DUP5 DUP3 DUP6 ADD PUSH2 0xB72 JUMP JUMPDEST SWAP2 POP POP SWAP3 SWAP2 POP POP JUMP JUMPDEST PUSH0 DUP2 SWAP1 POP SWAP2 SWAP1 POP JUMP JUMPDEST PUSH2 0xBC3 DUP2 PUSH2 0xBB1 JUMP JUMPDEST DUP3 MSTORE POP POP JUMP JUMPDEST PUSH0 PUSH1 0x20 DUP3 ADD SWAP1 POP PUSH2 0xBDC PUSH0 DUP4 ADD DUP5 PUSH2 0xBBA JUMP JUMPDEST SWAP3 SWAP2 POP POP JUMP JUMPDEST PUSH0 DUP2 ISZERO ISZERO SWAP1 POP SWAP2 SWAP1 POP JUMP JUMPDEST PUSH2 0xBF6 DUP2 PUSH2 0xBE2 JUMP JUMPDEST DUP3 MSTORE POP POP JUMP JUMPDEST PUSH0 PUSH1 0x20 DUP3 ADD SWAP1 POP PUSH2 0xC0F PUSH0 DUP4 ADD DUP5 PUSH2 0xBED JUMP JUMPDEST SWAP3 SWAP2 POP POP JUMP JUMPDEST PUSH0 DUP2 MLOAD SWAP1 POP SWAP2 SWAP1 POP JUMP JUMPDEST PUSH0 DUP3 DUP3 MSTORE PUSH1 0x20 DUP3 ADD SWAP1 POP SWAP3 SWAP2 POP POP JUMP JUMPDEST PUSH0 JUMPDEST DUP4 DUP2 LT ISZERO PUSH2 0xC4C JUMPI DUP1 DUP3 ADD MLOAD DUP2 DUP5 ADD MSTORE PUSH1 0x20 DUP2 ADD SWAP1 POP PUSH2 0xC31 JUMP JUMPDEST PUSH0 DUP5 DUP5 ADD MSTORE POP POP POP POP JUMP JUMPDEST PUSH0 PUSH1 0x1F NOT PUSH1 0x1F DUP4 ADD AND SWAP1 POP SWAP2 SWAP1 POP JUMP JUMPDEST PUSH0 PUSH2 0xC71 DUP3 PUSH2 0xC15 JUMP JUMPDEST PUSH2 0xC7B DUP2 DUP6 PUSH2 0xC1F JUMP JUMPDEST SWAP4 POP PUSH2 0xC8B DUP2 DUP6 PUSH1 0x20 DUP7 ADD PUSH2 0xC2F JUMP JUMPDEST PUSH2 0xC94 DUP2 PUSH2 0xC57 JUMP JUMPDEST DUP5 ADD SWAP2 POP POP SWAP3 SWAP2 POP POP JUMP JUMPDEST PUSH0 PUSH1 0x20 DUP3 ADD SWAP1 POP DUP2 DUP2 SUB PUSH0 DUP4 ADD MSTORE PUSH2 0xCB7 DUP2 DUP5 PUSH2 0xC67 JUMP JUMPDEST SWAP1 POP SWAP3 SWAP2 POP POP JUMP JUMPDEST PUSH0 DUP2 SWAP1 POP SWAP2 SWAP1 POP JUMP JUMPDEST PUSH0 PUSH2 0xCE2 PUSH2 0xCDD PUSH2 0xCD8 DUP5 PUSH2 0xB2C JUMP JUMPDEST PUSH2 0xCBF JUMP JUMPDEST PUSH2 0xB2C JUMP JUMPDEST SWAP1 POP SWAP2 SWAP1 POP JUMP JUMPDEST PUSH0 PUSH2 0xCF3 DUP3 PUSH2 0xCC8 JUMP JUMPDEST SWAP1 POP SWAP2 SWAP1 POP JUMP JUMPDEST PUSH0 PUSH2 0xD04 DUP3 PUSH2 0xCE9 JUMP JUMPDEST SWAP1 POP SWAP2 SWAP1 POP JUMP JUMPDEST PUSH2 0xD14 DUP2 PUSH2 0xCFA JUMP JUMPDEST DUP3 MSTORE POP POP JUMP JUMPDEST PUSH0 PUSH1 0x20 DUP3 ADD SWAP1 POP PUSH2 0xD2D PUSH0 DUP4 ADD DUP5 PUSH2 0xD0B JUMP JUMPDEST SWAP3 SWAP2 POP POP JUMP JUMPDEST PUSH0 DUP1 REVERT JUMPDEST PUSH0 DUP1 REVERT JUMPDEST PUSH0 DUP1 REVERT JUMPDEST PUSH0 DUP1 DUP4 PUSH1 0x1F DUP5 ADD SLT PUSH2 0xD54 JUMPI PUSH2 0xD53 PUSH2 0xD33 JUMP JUMPDEST JUMPDEST DUP3 CALLDATALOAD SWAP1 POP PUSH8 0xFFFFFFFFFFFFFFFF DUP2 GT ISZERO PUSH2 0xD71 JUMPI PUSH2 0xD70 PUSH2 0xD37 JUMP JUMPDEST JUMPDEST PUSH1 0x20 DUP4 ADD SWAP2 POP DUP4 PUSH1 0x1 DUP3 MUL DUP4 ADD GT ISZERO PUSH2 0xD8D JUMPI PUSH2 0xD8C PUSH2 0xD3B JUMP JUMPDEST JUMPDEST SWAP3 POP SWAP3 SWAP1 POP JUMP JUMPDEST PUSH0 DUP1 PUSH1 0x20 DUP4 DUP6 SUB SLT ISZERO PUSH2 0xDAA JUMPI PUSH2 0xDA9 PUSH2 0xB24 JUMP JUMPDEST JUMPDEST PUSH0 DUP4 ADD CALLDATALOAD PUSH8 0xFFFFFFFFFFFFFFFF DUP2 GT ISZERO PUSH2 0xDC7 JUMPI PUSH2 0xDC6 PUSH2 0xB28 JUMP JUMPDEST JUMPDEST PUSH2 0xDD3 DUP6 DUP3 DUP7 ADD PUSH2 0xD3F JUMP JUMPDEST SWAP3 POP SWAP3 POP POP SWAP3 POP SWAP3 SWAP1 POP JUMP JUMPDEST PUSH2 0xDE8 DUP2 PUSH2 0xBB1 JUMP JUMPDEST DUP2 EQ PUSH2 0xDF2 JUMPI PUSH0 DUP1 REVERT JUMPDEST POP JUMP JUMPDEST PUSH0 DUP2 CALLDATALOAD SWAP1 POP PUSH2 0xE03 DUP2 PUSH2 0xDDF JUMP JUMPDEST SWAP3 SWAP2 POP POP JUMP JUMPDEST PUSH0 DUP1 DUP4 PUSH1 0x1F DUP5 ADD SLT PUSH2 0xE1E JUMPI PUSH2 0xE1D PUSH2 0xD33 JUMP JUMPDEST JUMPDEST DUP3 CALLDATALOAD SWAP1 POP PUSH8 0xFFFFFFFFFFFFFFFF DUP2 GT ISZERO PUSH2 0xE3B JUMPI PUSH2 0xE3A PUSH2 0xD37 JUMP JUMPDEST JUMPDEST PUSH1 0x20 DUP4 ADD SWAP2 POP DUP4 PUSH1 0x1 DUP3 MUL DUP4 ADD GT ISZERO PUSH2 0xE57 JUMPI PUSH2 0xE56 PUSH2 0xD3B JUMP JUMPDEST JUMPDEST SWAP3 POP SWAP3 SWAP1 POP JUMP JUMPDEST PUSH0 DUP1 PUSH0 DUP1 PUSH1 0x60 DUP6 DUP8 SUB SLT ISZERO PUSH2 0xE76 JUMPI PUSH2 0xE75 PUSH2 0xB24 JUMP JUMPDEST JUMPDEST PUSH0 PUSH2 0xE83 DUP8 DUP3 DUP9 ADD PUSH2 0xDF5 JUMP JUMPDEST SWAP5 POP POP PUSH1 0x20 PUSH2 0xE94 DUP8 DUP3 DUP9 ADD PUSH2 0xDF5 JUMP JUMPDEST SWAP4 POP POP PUSH1 0x40 DUP6 ADD CALLDATALOAD PUSH8 0xFFFFFFFFFFFFFFFF DUP2 GT ISZERO PUSH2 0xEB5 JUMPI PUSH2 0xEB4 PUSH2 0xB28 JUMP JUMPDEST JUMPDEST PUSH2 0xEC1 DUP8 DUP3 DUP9 ADD PUSH2 0xE09 JUMP JUMPDEST SWAP3 POP SWAP3 POP POP SWAP3 SWAP6 SWAP2 SWAP5 POP SWAP3 POP JUMP JUMPDEST PUSH0 PUSH2 0xED9 DUP3 PUSH2 0xCE9 JUMP JUMPDEST SWAP1 POP SWAP2 SWAP1 POP JUMP JUMPDEST PUSH2 0xEE9 DUP2 PUSH2 0xECF JUMP JUMPDEST DUP3 MSTORE POP POP JUMP JUMPDEST PUSH0 PUSH1 0x20 DUP3 ADD SWAP1 POP PUSH2 0xF02 PUSH0 DUP4 ADD DUP5 PUSH2 0xEE0 JUMP JUMPDEST SWAP3 SWAP2 POP POP JUMP JUMPDEST PUSH32 0x4E487B7100000000000000000000000000000000000000000000000000000000 PUSH0 MSTORE PUSH1 0x22 PUSH1 0x4 MSTORE PUSH1 0x24 PUSH0 REVERT JUMPDEST PUSH0 PUSH1 0x2 DUP3 DIV SWAP1 POP PUSH1 0x1 DUP3 AND DUP1 PUSH2 0xF4C JUMPI PUSH1 0x7F DUP3 AND SWAP2 POP JUMPDEST PUSH1 0x20 DUP3 LT DUP2 SUB PUSH2 0xF5F JUMPI PUSH2 0xF5E PUSH2 0xF08 JUMP JUMPDEST JUMPDEST POP SWAP2 SWAP1 POP JUMP JUMPDEST PUSH0 DUP3 DUP3 MSTORE PUSH1 0x20 DUP3 ADD SWAP1 POP SWAP3 SWAP2 POP POP JUMP JUMPDEST PUSH32 0x46756E6374696F6E206F6E6C7920617661696C61626C6520746F206F776E6572 PUSH0 DUP3 ADD MSTORE POP JUMP JUMPDEST PUSH0 PUSH2 0xFA9 PUSH1 0x20 DUP4 PUSH2 0xF65 JUMP JUMPDEST SWAP2 POP PUSH2 0xFB4 DUP3 PUSH2 0xF75 JUMP JUMPDEST PUSH1 0x20 DUP3 ADD SWAP1 POP SWAP2 SWAP1 POP JUMP JUMPDEST PUSH0 PUSH1 0x20 DUP3 ADD SWAP1 POP DUP2 DUP2 SUB PUSH0 DUP4 ADD MSTORE PUSH2 0xFD6 DUP2 PUSH2 0xF9D JUMP JUMPDEST SWAP1 POP SWAP2 SWAP1 POP JUMP JUMPDEST PUSH32 0x55736572206E6F74207265676973746572656400000000000000000000000000 PUSH0 DUP3 ADD MSTORE POP JUMP JUMPDEST PUSH0 PUSH2 0x1011 PUSH1 0x13 DUP4 PUSH2 0xF65 JUMP JUMPDEST SWAP2 POP PUSH2 0x101C DUP3 PUSH2 0xFDD JUMP JUMPDEST PUSH1 0x20 DUP3 ADD SWAP1 POP SWAP2 SWAP1 POP JUMP JUMPDEST PUSH0 PUSH1 0x20 DUP3 ADD SWAP1 POP DUP2 DUP2 SUB PUSH0 DUP4 ADD MSTORE PUSH2 0x103E DUP2 PUSH2 0x1005 JUMP JUMPDEST SWAP1 POP SWAP2 SWAP1 POP JUMP JUMPDEST PUSH0 DUP2 SWAP1 POP SWAP3 SWAP2 POP POP JUMP JUMPDEST DUP3 DUP2 DUP4 CALLDATACOPY PUSH0 DUP4 DUP4 ADD MSTORE POP POP POP JUMP JUMPDEST PUSH0 PUSH2 0x1068 DUP4 DUP6 PUSH2 0x1045 JUMP JUMPDEST SWAP4 POP PUSH2 0x1075 DUP4 DUP6 DUP5 PUSH2 0x104F JUMP JUMPDEST DUP3 DUP5 ADD SWAP1 POP SWAP4 SWAP3 POP POP POP JUMP JUMPDEST PUSH0 PUSH2 0x108D DUP3 DUP5 DUP7 PUSH2 0x105D JUMP JUMPDEST SWAP2 POP DUP2 SWAP1 POP SWAP4 SWAP3 POP POP POP JUMP JUMPDEST PUSH0 DUP2 SWAP1 POP SWAP2 SWAP1 POP JUMP JUMPDEST PUSH2 0x10AB DUP2 PUSH2 0x1099 JUMP JUMPDEST DUP2 EQ PUSH2 0x10B5 JUMPI PUSH0 DUP1 REVERT JUMPDEST POP JUMP JUMPDEST PUSH0 DUP2 MLOAD SWAP1 POP PUSH2 0x10C6 DUP2 PUSH2 0x10A2 JUMP JUMPDEST SWAP3 SWAP2 POP POP JUMP JUMPDEST PUSH0 PUSH1 0x20 DUP3 DUP5 SUB SLT ISZERO PUSH2 0x10E1 JUMPI PUSH2 0x10E0 PUSH2 0xB24 JUMP JUMPDEST JUMPDEST PUSH0 PUSH2 0x10EE DUP5 DUP3 DUP6 ADD PUSH2 0x10B8 JUMP JUMPDEST SWAP2 POP POP SWAP3 SWAP2 POP POP JUMP JUMPDEST PUSH32 0x4B657920697320696E636F727265637400000000000000000000000000000000 PUSH0 DUP3 ADD MSTORE POP JUMP JUMPDEST PUSH0 PUSH2 0x112B PUSH1 0x10 DUP4 PUSH2 0xF65 JUMP JUMPDEST SWAP2 POP PUSH2 0x1136 DUP3 PUSH2 0x10F7 JUMP JUMPDEST PUSH1 0x20 DUP3 ADD SWAP1 POP SWAP2 SWAP1 POP JUMP JUMPDEST PUSH0 PUSH1 0x20 DUP3 ADD SWAP1 POP DUP2 DUP2 SUB PUSH0 DUP4 ADD MSTORE PUSH2 0x1158 DUP2 PUSH2 0x111F JUMP JUMPDEST SWAP1 POP SWAP2 SWAP1 POP JUMP JUMPDEST PUSH32 0x436F6465206E6F74207265636569766564207965742C2073656E6420746F2068 PUSH0 DUP3 ADD MSTORE PUSH32 0x6F7374206174206578616D706C65406578616D706C652E636F6D000000000000 PUSH1 0x20 DUP3 ADD MSTORE POP JUMP JUMPDEST PUSH0 PUSH2 0x11B9 PUSH1 0x3A DUP4 PUSH2 0xF65 JUMP JUMPDEST SWAP2 POP PUSH2 0x11C4 DUP3 PUSH2 0x115F JUMP JUMPDEST PUSH1 0x40 DUP3 ADD SWAP1 POP SWAP2 SWAP1 POP JUMP JUMPDEST PUSH0 PUSH1 0x20 DUP3 ADD SWAP1 POP DUP2 DUP2 SUB PUSH0 DUP4 ADD MSTORE PUSH2 0x11E6 DUP2 PUSH2 0x11AD JUMP JUMPDEST SWAP1 POP SWAP2 SWAP1 POP JUMP JUMPDEST PUSH0 DUP3 SWAP1 POP SWAP3 SWAP2 POP POP JUMP JUMPDEST PUSH32 0x4E487B7100000000000000000000000000000000000000000000000000000000 PUSH0 MSTORE PUSH1 0x41 PUSH1 0x4 MSTORE PUSH1 0x24 PUSH0 REVERT JUMPDEST PUSH0 DUP2 SWAP1 POP DUP2 PUSH0 MSTORE PUSH1 0x20 PUSH0 KECCAK256 SWAP1 POP SWAP2 SWAP1 POP JUMP JUMPDEST PUSH0 PUSH1 0x20 PUSH1 0x1F DUP4 ADD DIV SWAP1 POP SWAP2 SWAP1 POP JUMP JUMPDEST PUSH0 DUP3 DUP3 SHL SWAP1 POP SWAP3 SWAP2 POP POP JUMP JUMPDEST PUSH0 PUSH1 0x8 DUP4 MUL PUSH2 0x1280 PUSH32 0xFFFFFFFFFFFFFFFFFFFFFFFFFFFFFFFFFFFFFFFFFFFFFFFFFFFFFFFFFFFFFFFF DUP3 PUSH2 0x1245 JUMP JUMPDEST PUSH2 0x128A DUP7 DUP4 PUSH2 0x1245 JUMP JUMPDEST SWAP6 POP DUP1 NOT DUP5 AND SWAP4 POP DUP1 DUP7 AND DUP5 OR SWAP3 POP POP POP SWAP4 SWAP3 POP POP POP JUMP JUMPDEST PUSH0 PUSH2 0x12BC PUSH2 0x12B7 PUSH2 0x12B2 DUP5 PUSH2 0xBB1 JUMP JUMPDEST PUSH2 0xCBF JUMP JUMPDEST PUSH2 0xBB1 JUMP JUMPDEST SWAP1 POP SWAP2 SWAP1 POP JUMP JUMPDEST PUSH0 DUP2 SWAP1 POP SWAP2 SWAP1 POP JUMP JUMPDEST PUSH2 0x12D5 DUP4 PUSH2 0x12A2 JUMP JUMPDEST PUSH2 0x12E9 PUSH2 0x12E1 DUP3 PUSH2 0x12C3 JUMP JUMPDEST DUP5 DUP5 SLOAD PUSH2 0x1251 JUMP JUMPDEST DUP3 SSTORE POP POP POP POP JUMP JUMPDEST PUSH0 SWAP1 JUMP JUMPDEST PUSH2 0x12FD PUSH2 0x12F1 JUMP JUMPDEST PUSH2 0x1308 DUP2 DUP5 DUP5 PUSH2 0x12CC JUMP JUMPDEST POP POP POP JUMP JUMPDEST JUMPDEST DUP2 DUP2 LT ISZERO PUSH2 0x132B JUMPI PUSH2 0x1320 PUSH0 DUP3 PUSH2 0x12F5 JUMP JUMPDEST PUSH1 0x1 DUP2 ADD SWAP1 POP PUSH2 0x130E JUMP JUMPDEST POP POP JUMP JUMPDEST PUSH1 0x1F DUP3 GT ISZERO PUSH2 0x1370 JUMPI PUSH2 0x1341 DUP2 PUSH2 0x1224 JUMP JUMPDEST PUSH2 0x134A DUP5 PUSH2 0x1236 JUMP JUMPDEST DUP2 ADD PUSH1 0x20 DUP6 LT ISZERO PUSH2 0x1359 JUMPI DUP2 SWAP1 POP JUMPDEST PUSH2 0x136D PUSH2 0x1365 DUP6 PUSH2 0x1236 JUMP JUMPDEST DUP4 ADD DUP3 PUSH2 0x130D JUMP JUMPDEST POP POP JUMPDEST POP POP POP JUMP JUMPDEST PUSH0 DUP3 DUP3 SHR SWAP1 POP SWAP3 SWAP2 POP POP JUMP JUMPDEST PUSH0 PUSH2 0x1390 PUSH0 NOT DUP5 PUSH1 0x8 MUL PUSH2 0x1375 JUMP JUMPDEST NOT DUP1 DUP4 AND SWAP2 POP POP SWAP3 SWAP2 POP POP JUMP JUMPDEST PUSH0 PUSH2 0x13A8 DUP4 DUP4 PUSH2 0x1381 JUMP JUMPDEST SWAP2 POP DUP3 PUSH1 0x2 MUL DUP3 OR SWAP1 POP SWAP3 SWAP2 POP POP JUMP JUMPDEST PUSH2 0x13C2 DUP4 DUP4 PUSH2 0x11ED JUMP JUMPDEST PUSH8 0xFFFFFFFFFFFFFFFF DUP2 GT ISZERO PUSH2 0x13DB JUMPI PUSH2 0x13DA PUSH2 0x11F7 JUMP JUMPDEST JUMPDEST PUSH2 0x13E5 DUP3 SLOAD PUSH2 0xF35 JUMP JUMPDEST PUSH2 0x13F0 DUP3 DUP3 DUP6 PUSH2 0x132F JUMP JUMPDEST PUSH0 PUSH1 0x1F DUP4 GT PUSH1 0x1 DUP2 EQ PUSH2 0x141D JUMPI PUSH0 DUP5 ISZERO PUSH2 0x140B JUMPI DUP3 DUP8 ADD CALLDATALOAD SWAP1 POP JUMPDEST PUSH2 0x1415 DUP6 DUP3 PUSH2 0x139D JUMP JUMPDEST DUP7 SSTORE POP PUSH2 0x147C JUMP JUMPDEST PUSH1 0x1F NOT DUP5 AND PUSH2 0x142B DUP7 PUSH2 0x1224 JUMP JUMPDEST PUSH0 JUMPDEST DUP3 DUP2 LT ISZERO PUSH2 0x1452 JUMPI DUP5 DUP10 ADD CALLDATALOAD DUP3 SSTORE PUSH1 0x1 DUP3 ADD SWAP2 POP PUSH1 0x20 DUP6 ADD SWAP5 POP PUSH1 0x20 DUP2 ADD SWAP1 POP PUSH2 0x142D JUMP JUMPDEST DUP7 DUP4 LT ISZERO PUSH2 0x146F JUMPI DUP5 DUP10 ADD CALLDATALOAD PUSH2 0x146B PUSH1 0x1F DUP10 AND DUP3 PUSH2 0x1381 JUMP JUMPDEST DUP4 SSTORE POP JUMPDEST PUSH1 0x1 PUSH1 0x2 DUP9 MUL ADD DUP9 SSTORE POP POP POP JUMPDEST POP POP POP POP POP POP POP JUMP JUMPDEST PUSH0 PUSH2 0x148F DUP3 PUSH2 0xB2C JUMP JUMPDEST SWAP1 POP SWAP2 SWAP1 POP JUMP JUMPDEST PUSH2 0x149F DUP2 PUSH2 0x1485 JUMP JUMPDEST DUP3 MSTORE POP POP JUMP JUMPDEST PUSH0 PUSH1 0x40 DUP3 ADD SWAP1 POP PUSH2 0x14B8 PUSH0 DUP4 ADD DUP6 PUSH2 0xBBA JUMP JUMPDEST PUSH2 0x14C5 PUSH1 0x20 DUP4 ADD DUP5 PUSH2 0x1496 JUMP JUMPDEST SWAP4 SWAP3 POP POP POP JUMP JUMPDEST PUSH2 0x14D5 DUP2 PUSH2 0xBE2 JUMP JUMPDEST DUP2 EQ PUSH2 0x14DF JUMPI PUSH0 DUP1 REVERT JUMPDEST POP JUMP JUMPDEST PUSH0 DUP2 MLOAD SWAP1 POP PUSH2 0x14F0 DUP2 PUSH2 0x14CC JUMP JUMPDEST SWAP3 SWAP2 POP POP JUMP JUMPDEST PUSH0 PUSH1 0x20 DUP3 DUP5 SUB SLT ISZERO PUSH2 0x150B JUMPI PUSH2 0x150A PUSH2 0xB24 JUMP JUMPDEST JUMPDEST PUSH0 PUSH2 0x1518 DUP5 DUP3 DUP6 ADD PUSH2 0x14E2 JUMP JUMPDEST SWAP2 POP POP SWAP3 SWAP2 POP POP JUMP JUMPDEST PUSH0 PUSH2 0x152C DUP4 DUP6 PUSH2 0xF65 JUMP JUMPDEST SWAP4 POP PUSH2 0x1539 DUP4 DUP6 DUP5 PUSH2 0x104F JUMP JUMPDEST PUSH2 0x1542 DUP4 PUSH2 0xC57 JUMP JUMPDEST DUP5 ADD SWAP1 POP SWAP4 SWAP3 POP POP POP JUMP JUMPDEST PUSH0 DUP2 MLOAD SWAP1 POP SWAP2 SWAP1 POP JUMP JUMPDEST PUSH0 PUSH2 0x1561 DUP3 PUSH2 0x154D JUMP JUMPDEST PUSH2 0x156B DUP2 DUP6 PUSH2 0xF65 JUMP JUMPDEST SWAP4 POP PUSH2 0x157B DUP2 DUP6 PUSH1 0x20 DUP7 ADD PUSH2 0xC2F JUMP JUMPDEST PUSH2 0x1584 DUP2 PUSH2 0xC57 JUMP JUMPDEST DUP5 ADD SWAP2 POP POP SWAP3 SWAP2 POP POP JUMP JUMPDEST PUSH0 PUSH1 0x40 DUP3 ADD SWAP1 POP DUP2 DUP2 SUB PUSH0 DUP4 ADD MSTORE PUSH2 0x15A8 DUP2 DUP6 DUP8 PUSH2 0x1521 JUMP JUMPDEST SWAP1 POP DUP2 DUP2 SUB PUSH1 0x20 DUP4 ADD MSTORE PUSH2 0x15BC DUP2 DUP5 PUSH2 0x1557 JUMP JUMPDEST SWAP1 POP SWAP5 SWAP4 POP POP POP POP JUMP JUMPDEST PUSH32 0x6174746573746174696F6E206E6F742076616C69640000000000000000000000 PUSH0 DUP3 ADD MSTORE POP JUMP JUMPDEST PUSH0 PUSH2 0x15FA PUSH1 0x15 DUP4 PUSH2 0xF65 JUMP JUMPDEST SWAP2 POP PUSH2 0x1605 DUP3 PUSH2 0x15C6 JUMP JUMPDEST PUSH1 0x20 DUP3 ADD SWAP1 POP SWAP2 SWAP1 POP JUMP JUMPDEST PUSH0 PUSH1 0x20 DUP3 ADD SWAP1 POP DUP2 DUP2 SUB PUSH0 DUP4 ADD MSTORE PUSH2 0x1627 DUP2 PUSH2 0x15EE JUMP JUMPDEST SWAP1 POP SWAP2 SWAP1 POP JUMP JUMPDEST PUSH0 DUP2 SWAP1 POP SWAP3 SWAP2 POP POP JUMP JUMPDEST PUSH0 PUSH2 0x1643 DUP4 DUP6 PUSH2 0x162E JUMP JUMPDEST SWAP4 POP PUSH2 0x1650 DUP4 DUP6 DUP5 PUSH2 0x104F JUMP JUMPDEST DUP3 DUP5 ADD SWAP1 POP SWAP4 SWAP3 POP POP POP JUMP JUMPDEST PUSH0 PUSH2 0x1668 DUP3 DUP5 DUP7 PUSH2 0x1638 JUMP JUMPDEST SWAP2 POP DUP2 SWAP1 POP SWAP4 SWAP3 POP POP POP JUMP INVALID JUMPDEST PUSH13 0x6F616465725D0A656E74727970 PUSH16 0x696E74203D202266696C653A2F757372 0x2F PUSH13 0x69622F7838365F36342D6C696E PUSH22 0x782D676E752F6772616D696E652F6C69627379736462 0x2E PUSH20 0x6F220A6C6F675F6C6576656C203D20226572726F PUSH19 0x220A696E7365637572655F5F7573655F636D64 PUSH13 0x696E655F61726776203D207472 PUSH22 0x650A0A5B6C6F616465722E656E765D0A4C445F4C4942 MSTORE COINBASE MSTORE MSIZE PUSH0 POP COINBASE SLOAD BASEFEE KECCAK256 RETURNDATASIZE KECCAK256 0x22 0x2F PUSH13 0x69623A2F6C69623A2F6C69622F PUSH25 0x38365F36342D6C696E75782D676E753A2F7573722F2F6C6962 0x2F PUSH25 0x38365F36342D6C696E75782D676E75220A4F4D505F4E554D5F SLOAD BASEFEE MSTORE GASLIMIT COINBASE PREVRANDAO MSTORE8 KECCAK256 RETURNDATASIZE KECCAK256 0x22 CALLVALUE 0x22 EXP EXP JUMPDEST PUSH13 0x69626F735D0A656E747279706F PUSH10 0x6E74203D20222F757372 0x2F PUSH3 0x696E2F PUSH17 0x7974686F6E332E38220A0A5B7379735D0A PUSH6 0x6E61626C655F PUSH20 0x69677465726D5F696E6A656374696F6E203D2074 PUSH19 0x75650A656E61626C655F65787472615F72756E PUSH21 0x696D655F646F6D61696E5F6E616D65735F636F6E66 KECCAK256 RETURNDATASIZE KECCAK256 PUSH21 0x7275650A0A5B7379732E737461636B5D0A73697A65 KECCAK256 RETURNDATASIZE KECCAK256 0x22 ORIGIN 0x4D 0x22 EXP EXP JUMPDEST JUMPDEST PUSH7 0x732E6D6F756E74 PUSH20 0x5D5D0A70617468203D20222F6C6962220A757269 KECCAK256 RETURNDATASIZE KECCAK256 0x22 PUSH7 0x696C653A2F7573 PUSH19 0x2F6C69622F7838365F36342D6C696E75782D67 PUSH15 0x752F6772616D696E652F72756E7469 PUSH14 0x652F676C696263220A0A5B5B6673 0x2E PUSH14 0x6F756E74735D5D0A70617468203D KECCAK256 0x22 0x2F PUSH13 0x69622F7838365F36342D6C696E PUSH22 0x782D676E75220A757269203D202266696C653A2F6C69 PUSH3 0x2F7838 CALLDATASIZE PUSH0 CALLDATASIZE CALLVALUE 0x2D PUSH13 0x696E75782D676E75220A0A5B5B PUSH7 0x732E6D6F756E74 PUSH20 0x5D5D0A70617468203D20222F7573722F2F6C6962 0x2F PUSH25 0x38365F36342D6C696E75782D676E75220A757269203D202266 PUSH10 0x6C653A2F7573722F2F6C PUSH10 0x622F7838365F36342D6C PUSH10 0x6E75782D676E75220A0A JUMPDEST JUMPDEST PUSH7 0x732E6D6F756E74 PUSH20 0x5D5D0A70617468203D20222F7573722F6C69622F PUSH17 0x7974686F6E332E38220A757269203D2022 PUSH7 0x696C653A2F7573 PUSH19 0x2F6C69622F707974686F6E332E38220A0A5B5B PUSH7 0x732E6D6F756E74 PUSH20 0x5D5D0A70617468203D20222F7573722F6C69622F PUSH17 0x7974686F6E332E382F6C69622D64796E6C PUSH16 0x6164220A757269203D202266696C653A 0x2F PUSH22 0x73722F6C69622F707974686F6E332E382F6C69622D64 PUSH26 0x6E6C6F6164220A0A5B5B66732E6D6F756E74735D5D0A70617468 KECCAK256 RETURNDATASIZE KECCAK256 0x22 0x2F PUSH22 0x73722F6C6F63616C2F6C69622F707974686F6E332E38 0x2F PUSH5 0x6973742D70 PUSH2 0x636B PUSH2 0x6765 PUSH20 0x220A757269203D202266696C653A2F7573722F6C PUSH16 0x63616C2F6C69622F707974686F6E332E CODESIZE 0x2F PUSH5 0x6973742D70 PUSH2 0x636B PUSH2 0x6765 PUSH20 0x220A0A5B5B66732E6D6F756E74735D5D0A706174 PUSH9 0x203D20222F7573722F PUSH13 0x69622F707974686F6E332F6469 PUSH20 0x742D7061636B61676573220A757269203D202266 PUSH10 0x6C653A2F7573722F6C69 PUSH3 0x2F7079 PUSH21 0x686F6E332F646973742D7061636B61676573220A0A JUMPDEST JUMPDEST PUSH7 0x732E6D6F756E74 PUSH20 0x5D5D0A70617468203D20222F7573722F62696E2F PUSH17 0x7974686F6E332E38220A757269203D2022 PUSH7 0x696C653A2F7573 PUSH19 0x2F62696E2F707974686F6E332E38220A0A5B5B PUSH7 0x732E6D6F756E74 PUSH20 0x5D5D0A70617468203D20222F62696E2F7368220A PUSH22 0x7269203D202266696C653A2F62696E2F7368220A0A5B JUMPDEST PUSH7 0x732E6D6F756E74 PUSH20 0x5D5D0A74797065203D2022746D706673220A7061 PUSH21 0x68203D20222F746D70220A0A5B7367785D0A646562 PUSH22 0x67203D2066616C73650A65646D6D5F656E61626C6520 RETURNDATASIZE KECCAK256 PUSH7 0x616C73650A656E PUSH4 0x6C617665 PUSH0 PUSH20 0x697A65203D20223447220A6D61785F7468726561 PUSH5 0x73203D2033 ORIGIN EXP PUSH19 0x656D6F74655F6174746573746174696F6E203D KECCAK256 0x22 PUSH15 0x6F6E65220A72615F636C69656E745F PUSH20 0x706964203D2022220A72615F636C69656E745F6C PUSH10 0x6E6B61626C65203D2066 PUSH2 0x6C73 PUSH6 0xA7472757374 PUSH6 0x645F66696C65 PUSH20 0x203D205B0A202020207B20757269203D20226669 PUSH13 0x653A2F7573722F6C69622F7838 CALLDATASIZE PUSH0 CALLDATASIZE CALLVALUE 0x2D PUSH13 0x696E75782D676E752F6772616D PUSH10 0x6E652F6C696273797364 PUSH3 0x2E736F 0x22 KECCAK256 PUSH30 0x2C0A202020207B20757269203D202266696C653A2F7573722F62696E2F70 PUSH26 0x74686F6E332E3822207D2C0A202020207B20757269203D202266 PUSH10 0x6C653A2F7573722F6C69 PUSH3 0x2F7838 CALLDATASIZE PUSH0 CALLDATASIZE CALLVALUE 0x2D PUSH13 0x696E75782D676E752F6772616D PUSH10 0x6E652F72756E74696D65 0x2F PUSH8 0x6C6962632F22207D 0x2C EXP KECCAK256 KECCAK256 KECCAK256 KECCAK256 PUSH28 0x20757269203D202266696C653A2F6C69622F7838365F36342D6C696E PUSH22 0x782D676E752F22207D2C0A202020207B20757269203D KECCAK256 0x22 PUSH7 0x696C653A2F7573 PUSH19 0x2F2F6C69622F7838365F36342D6C696E75782D PUSH8 0x6E752F22207D2C0A KECCAK256 KECCAK256 KECCAK256 KECCAK256 PUSH28 0x20757269203D202266696C653A2F7573722F6C69622F707974686F6E CALLER 0x2E CODESIZE 0x2F 0x22 KECCAK256 PUSH30 0x2C0A202020207B20757269203D202266696C653A2F7573722F6C69622F70 PUSH26 0x74686F6E332E382F6C69622D64796E6C6F61642F22207D2C0A20 KECCAK256 KECCAK256 KECCAK256 PUSH28 0x20757269203D202266696C653A2F7573722F6C6F63616C2F6C69622F PUSH17 0x7974686F6E332E382F646973742D706163 PUSH12 0x616765732F22207D2C0A2020 KECCAK256 KECCAK256 PUSH28 0x20757269203D202266696C653A2F7573722F6C69622F707974686F6E CALLER 0x2F PUSH5 0x6973742D70 PUSH2 0x636B PUSH2 0x6765 PUSH20 0x2F22207D2C0A202020207B20757269203D202266 PUSH10 0x6C653A2F62696E2F7368 0x22 KECCAK256 PUSH30 0x2C0A202020207B20757269203D202266696C653A2E2F22207D2C0A202020 KECCAK256 PUSH28 0x20757269203D202266696C653A7375626D697373696F6E2E70792220 PUSH30 0x2C0A202020207B20757269203D202266696C653A696E746572666163652E PUSH17 0x7922207D2C0A202020207B20757269203D KECCAK256 0x22 PUSH7 0x696C653A707562 PUSH13 0x69635F6B65792E74787422207D 0x2C EXP KECCAK256 KECCAK256 KECCAK256 KECCAK256 PUSH28 0x20757269203D202266696C653A7375626D69747465725F6B65792E74 PUSH25 0x7422207D2C0A5D0A69737670726F646964203D20300A697376 PUSH20 0x766E203D20300A656E61626C655F737461747320 RETURNDATASIZE KECCAK256 PUSH7 0x616C73650A7573 PUSH6 0x5F6578696E66 PUSH16 0x203D2066616C73650A0A5B7367782E63 PUSH17 0x755F66656174757265735D0A617678203D KECCAK256 0x22 PUSH22 0x6E737065636966696564220A617678353132203D2022 PUSH22 0x6E737065636966696564220A616D78203D2022756E73 PUSH17 0x65636966696564220A6D7078203D202264 PUSH10 0x7361626C6564220A706B PUSH19 0x75203D202264697361626C6564220AA2646970 PUSH7 0x7358221220C67B 0xB0 0xE4 AND 0xD 0xFB SWAP9 0x26 0xA8 EXTCODEHASH 0x2A SHL JUMPDEST 0xBB SGT SWAP15 0xB4 DUP12 0xE7 CODECOPY DUP1 DUP13 PUSH17 0x6BA4504FE03DBA1864736F6C6343000816 STOP CALLER PUSH1 0x80 PUSH1 0x40 MSTORE CALLVALUE DUP1 ISZERO PUSH2 0xF JUMPI PUSH0 DUP1 REVERT JUMPDEST POP PUSH2 0x1BA DUP1 PUSH2 0x1D PUSH0 CODECOPY PUSH0 RETURN INVALID PUSH1 0x80 PUSH1 0x40 MSTORE CALLVALUE DUP1 ISZERO PUSH2 0xF JUMPI PUSH0 DUP1 REVERT JUMPDEST POP PUSH1 0x4 CALLDATASIZE LT PUSH2 0x29 JUMPI PUSH0 CALLDATALOAD PUSH1 0xE0 SHR DUP1 PUSH4 0x9DEB17F5 EQ PUSH2 0x2D JUMPI JUMPDEST PUSH0 DUP1 REVERT JUMPDEST PUSH2 0x47 PUSH1 0x4 DUP1 CALLDATASIZE SUB DUP2 ADD SWAP1 PUSH2 0x42 SWAP2 SWAP1 PUSH2 0xD3 JUMP JUMPDEST PUSH2 0x5D JUMP JUMPDEST PUSH1 0x40 MLOAD PUSH2 0x54 SWAP2 SWAP1 PUSH2 0x16B JUMP JUMPDEST PUSH1 0x40 MLOAD DUP1 SWAP2 SUB SWAP1 RETURN JUMPDEST PUSH0 PUSH1 0x1 SWAP1 POP SWAP5 SWAP4 POP POP POP POP JUMP JUMPDEST PUSH0 DUP1 REVERT JUMPDEST PUSH0 DUP1 REVERT JUMPDEST PUSH0 DUP1 REVERT JUMPDEST PUSH0 DUP1 REVERT JUMPDEST PUSH0 DUP1 REVERT JUMPDEST PUSH0 DUP1 DUP4 PUSH1 0x1F DUP5 ADD SLT PUSH2 0x93 JUMPI PUSH2 0x92 PUSH2 0x72 JUMP JUMPDEST JUMPDEST DUP3 CALLDATALOAD SWAP1 POP PUSH8 0xFFFFFFFFFFFFFFFF DUP2 GT ISZERO PUSH2 0xB0 JUMPI PUSH2 0xAF PUSH2 0x76 JUMP JUMPDEST JUMPDEST PUSH1 0x20 DUP4 ADD SWAP2 POP DUP4 PUSH1 0x1 DUP3 MUL DUP4 ADD GT ISZERO PUSH2 0xCC JUMPI PUSH2 0xCB PUSH2 0x7A JUMP JUMPDEST JUMPDEST SWAP3 POP SWAP3 SWAP1 POP JUMP JUMPDEST PUSH0 DUP1 PUSH0 DUP1 PUSH1 0x40 DUP6 DUP8 SUB SLT ISZERO PUSH2 0xEB JUMPI PUSH2 0xEA PUSH2 0x6A JUMP JUMPDEST JUMPDEST PUSH0 DUP6 ADD CALLDATALOAD PUSH8 0xFFFFFFFFFFFFFFFF DUP2 GT ISZERO PUSH2 0x108 JUMPI PUSH2 0x107 PUSH2 0x6E JUMP JUMPDEST JUMPDEST PUSH2 0x114 DUP8 DUP3 DUP9 ADD PUSH2 0x7E JUMP JUMPDEST SWAP5 POP SWAP5 POP POP PUSH1 0x20 DUP6 ADD CALLDATALOAD PUSH8 0xFFFFFFFFFFFFFFFF DUP2 GT ISZERO PUSH2 0x137 JUMPI PUSH2 0x136 PUSH2 0x6E JUMP JUMPDEST JUMPDEST PUSH2 0x143 DUP8 DUP3 DUP9 ADD PUSH2 0x7E JUMP JUMPDEST SWAP3 POP SWAP3 POP POP SWAP3 SWAP6 SWAP2 SWAP5 POP SWAP3 POP JUMP JUMPDEST PUSH0 DUP2 ISZERO ISZERO SWAP1 POP SWAP2 SWAP1 POP JUMP JUMPDEST PUSH2 0x165 DUP2 PUSH2 0x151 JUMP JUMPDEST DUP3 MSTORE POP POP JUMP JUMPDEST PUSH0 PUSH1 0x20 DUP3 ADD SWAP1 POP PUSH2 0x17E PUSH0 DUP4 ADD DUP5 PUSH2 0x15C JUMP JUMPDEST SWAP3 SWAP2 POP POP JUMP INVALID LOG2 PUSH5 0x6970667358 0x22 SLT KECCAK256 OR CALLCODE SWAP12 SWAP12 0x4C LOG2 0xDF PUSH11 0x36E848998D24F501881E62 MUL PUSH31 0xFD86A7B2E181880DF6E91764736F6C63430008160033608060405234801561 STOP 0xF JUMPI PUSH0 DUP1 REVERT JUMPDEST POP PUSH2 0x1A0 DUP1 PUSH2 0x1D PUSH0 CODECOPY PUSH0 RETURN INVALID PUSH1 0x80 PUSH1 0x40 MSTORE CALLVALUE DUP1 ISZERO PUSH2 0xF JUMPI PUSH0 DUP1 REVERT JUMPDEST POP PUSH1 0x4 CALLDATASIZE LT PUSH2 0x29 JUMPI PUSH0 CALLDATALOAD PUSH1 0xE0 SHR DUP1 PUSH4 0xB7760C8F EQ PUSH2 0x2D JUMPI JUMPDEST PUSH0 DUP1 REVERT JUMPDEST PUSH2 0x47 PUSH1 0x4 DUP1 CALLDATASIZE SUB DUP2 ADD SWAP1 PUSH2 0x42 SWAP2 SWAP1 PUSH2 0xF9 JUMP JUMPDEST PUSH2 0x5D JUMP JUMPDEST PUSH1 0x40 MLOAD PUSH2 0x54 SWAP2 SWAP1 PUSH2 0x151 JUMP JUMPDEST PUSH1 0x40 MLOAD DUP1 SWAP2 SUB SWAP1 RETURN JUMPDEST PUSH0 PUSH1 0x1 SWAP1 POP SWAP3 SWAP2 POP POP JUMP JUMPDEST PUSH0 DUP1 REVERT JUMPDEST PUSH0 DUP2 SWAP1 POP SWAP2 SWAP1 POP JUMP JUMPDEST PUSH2 0x7E DUP2 PUSH2 0x6C JUMP JUMPDEST DUP2 EQ PUSH2 0x88 JUMPI PUSH0 DUP1 REVERT JUMPDEST POP JUMP JUMPDEST PUSH0 DUP2 CALLDATALOAD SWAP1 POP PUSH2 0x99 DUP2 PUSH2 0x75 JUMP JUMPDEST SWAP3 SWAP2 POP POP JUMP JUMPDEST PUSH0 PUSH20 0xFFFFFFFFFFFFFFFFFFFFFFFFFFFFFFFFFFFFFFFF DUP3 AND SWAP1 POP SWAP2 SWAP1 POP JUMP JUMPDEST PUSH0 PUSH2 0xC8 DUP3 PUSH2 0x9F JUMP JUMPDEST SWAP1 POP SWAP2 SWAP1 POP JUMP JUMPDEST PUSH2 0xD8 DUP2 PUSH2 0xBE JUMP JUMPDEST DUP2 EQ PUSH2 0xE2 JUMPI PUSH0 DUP1 REVERT JUMPDEST POP JUMP JUMPDEST PUSH0 DUP2 CALLDATALOAD SWAP1 POP PUSH2 0xF3 DUP2 PUSH2 0xCF JUMP JUMPDEST SWAP3 SWAP2 POP POP JUMP JUMPDEST PUSH0 DUP1 PUSH1 0x40 DUP4 DUP6 SUB SLT ISZERO PUSH2 0x10F JUMPI PUSH2 0x10E PUSH2 0x68 JUMP JUMPDEST JUMPDEST PUSH0 PUSH2 0x11C DUP6 DUP3 DUP7 ADD PUSH2 0x8B JUMP JUMPDEST SWAP3 POP POP PUSH1 0x20 PUSH2 0x12D DUP6 DUP3 DUP7 ADD PUSH2 0xE5 JUMP JUMPDEST SWAP2 POP POP SWAP3 POP SWAP3 SWAP1 POP JUMP JUMPDEST PUSH0 DUP2 ISZERO ISZERO SWAP1 POP SWAP2 SWAP1 POP JUMP JUMPDEST PUSH2 0x14B DUP2 PUSH2 0x137 JUMP JUMPDEST DUP3 MSTORE POP POP JUMP JUMPDEST PUSH0 PUSH1 0x20 DUP3 ADD SWAP1 POP PUSH2 0x164 PUSH0 DUP4 ADD DUP5 PUSH2 0x142 JUMP JUMPDEST SWAP3 SWAP2 POP POP JUMP INVALID LOG2 PUSH5 0x6970667358 0x22 SLT KECCAK256 0xB8 0xE5 LOG2 0xEA JUMPDEST 0xCC DUP6 JUMP PUSH10 0x11B3DE0E5A5D8DC51FDC DUP7 0xBE 0xEB LOG3 0xD3 0x29 0xE PUSH18 0xE66DB3A51064736F6C634300081600330000 "
		},
		"gasEstimates": {
			"creation": {
				"codeDepositCost": "1613400",
				"executionCost": "infinite",
				"totalCost": "infinite"
			},
			"external": {
				"balance()": "2513",
				"codeReceived(address)": "27080",
				"code_hash_map(address)": "2846",
				"code_received(address)": "2899",
				"key_hash_map(address)": "2803",
				"registerUser(address)": "27036",
				"rewardHandler(bytes)": "infinite",
				"submissionHandler(uint256,uint256,string)": "infinite",
				"submitter_key_map(address)": "infinite",
				"token()": "infinite",
				"user_registered(address)": "2856",
				"verifier()": "infinite"
			}
		},
		"methodIdentifiers": {
			"balance()": "b69ef8a8",
			"codeReceived(address)": "321753c3",
			"code_hash_map(address)": "859330cd",
			"code_received(address)": "a0aacbe5",
			"key_hash_map(address)": "037aeef9",
			"registerUser(address)": "2199d5cd",
			"rewardHandler(bytes)": "3b574b31",
			"submissionHandler(uint256,uint256,string)": "5fc6d9ca",
			"submitter_key_map(address)": "212d5c08",
			"token()": "fc0c546a",
			"user_registered(address)": "134a0709",
			"verifier()": "2b7ac3f3"
		}
	},
	"abi": [
		{
			"inputs": [
				{
					"internalType": "address",
					"name": "owner_addr",
					"type": "address"
				}
			],
			"stateMutability": "nonpayable",
			"type": "constructor"
		},
		{
			"anonymous": false,
			"inputs": [
				{
					"indexed": true,
					"internalType": "address",
					"name": "submitter",
					"type": "address"
				},
				{
					"indexed": true,
					"internalType": "bytes",
					"name": "submitter_key",
					"type": "bytes"
				}
			],
			"name": "keyReceived",
			"type": "event"
		},
		{
			"anonymous": false,
			"inputs": [
				{
					"indexed": true,
					"internalType": "address",
					"name": "submitter",
					"type": "address"
				},
				{
					"indexed": true,
					"internalType": "uint256",
					"name": "code_hash",
					"type": "uint256"
				},
				{
					"indexed": true,
					"internalType": "string",
					"name": "attestation",
					"type": "string"
				}
			],
			"name": "submissionReceived",
			"type": "event"
		},
		{
			"inputs": [],
			"name": "balance",
			"outputs": [
				{
					"internalType": "uint256",
					"name": "",
					"type": "uint256"
				}
			],
			"stateMutability": "view",
			"type": "function"
		},
		{
			"inputs": [
				{
					"internalType": "address",
					"name": "submitter",
					"type": "address"
				}
			],
			"name": "codeReceived",
			"outputs": [],
			"stateMutability": "nonpayable",
			"type": "function"
		},
		{
			"inputs": [
				{
					"internalType": "address",
					"name": "",
					"type": "address"
				}
			],
			"name": "code_hash_map",
			"outputs": [
				{
					"internalType": "uint256",
					"name": "",
					"type": "uint256"
				}
			],
			"stateMutability": "view",
			"type": "function"
		},
		{
			"inputs": [
				{
					"internalType": "address",
					"name": "",
					"type": "address"
				}
			],
			"name": "code_received",
			"outputs": [
				{
					"internalType": "bool",
					"name": "",
					"type": "bool"
				}
			],
			"stateMutability": "view",
			"type": "function"
		},
		{
			"inputs": [
				{
					"internalType": "address",
					"name": "",
					"type": "address"
				}
			],
			"name": "key_hash_map",
			"outputs": [
				{
					"internalType": "uint256",
					"name": "",
					"type": "uint256"
				}
			],
			"stateMutability": "view",
			"type": "function"
		},
		{
			"inputs": [
				{
					"internalType": "address",
					"name": "new_id",
					"type": "address"
				}
			],
			"name": "registerUser",
			"outputs": [],
			"stateMutability": "nonpayable",
			"type": "function"
		},
		{
			"inputs": [
				{
					"internalType": "bytes",
					"name": "submitter_key",
					"type": "bytes"
				}
			],
			"name": "rewardHandler",
			"outputs": [],
			"stateMutability": "nonpayable",
			"type": "function"
		},
		{
			"inputs": [
				{
					"internalType": "uint256",
					"name": "code_hash",
					"type": "uint256"
				},
				{
					"internalType": "uint256",
					"name": "key_hash",
					"type": "uint256"
				},
				{
					"internalType": "string",
					"name": "attestation",
					"type": "string"
				}
			],
			"name": "submissionHandler",
			"outputs": [],
			"stateMutability": "nonpayable",
			"type": "function"
		},
		{
			"inputs": [
				{
					"internalType": "address",
					"name": "",
					"type": "address"
				}
			],
			"name": "submitter_key_map",
			"outputs": [
				{
					"internalType": "bytes",
					"name": "",
					"type": "bytes"
				}
			],
			"stateMutability": "view",
			"type": "function"
		},
		{
			"inputs": [],
			"name": "token",
			"outputs": [
				{
					"internalType": "contract PaymentToken",
					"name": "",
					"type": "address"
				}
			],
			"stateMutability": "view",
			"type": "function"
		},
		{
			"inputs": [
				{
					"internalType": "address",
					"name": "",
					"type": "address"
				}
			],
			"name": "user_registered",
			"outputs": [
				{
					"internalType": "bool",
					"name": "",
					"type": "bool"
				}
			],
			"stateMutability": "view",
			"type": "function"
		},
		{
			"inputs": [],
			"name": "verifier",
			"outputs": [
				{
					"internalType": "contract SGXVerifier",
					"name": "",
					"type": "address"
				}
			],
			"stateMutability": "view",
			"type": "function"
		}
	]
}