{
	"data": {
		"bytecode": {
			"linkReferences": {},
			"object": "60806040526103e860015534801562000016575f80fd5b50604051620025283803806200252883398181016040528101906200003c9190620001d3565b805f806101000a81548173ffffffffffffffffffffffffffffffffffffffff021916908373ffffffffffffffffffffffffffffffffffffffff160217905550604051620000899062000152565b604051809103905ff080158015620000a3573d5f803e3d5ffd5b5060075f6101000a81548173ffffffffffffffffffffffffffffffffffffffff021916908373ffffffffffffffffffffffffffffffffffffffff160217905550604051620000f19062000160565b604051809103905ff0801580156200010b573d5f803e3d5ffd5b5060085f6101000a81548173ffffffffffffffffffffffffffffffffffffffff021916908373ffffffffffffffffffffffffffffffffffffffff1602179055505062000203565b6101d7806200219483390190565b6101bd806200236b83390190565b5f80fd5b5f73ffffffffffffffffffffffffffffffffffffffff82169050919050565b5f6200019d8262000172565b9050919050565b620001af8162000191565b8114620001ba575f80fd5b50565b5f81519050620001cd81620001a4565b92915050565b5f60208284031215620001eb57620001ea6200016e565b5b5f620001fa84828501620001bd565b91505092915050565b611f8380620002115f395ff3fe608060405234801561000f575f80fd5b50600436106100b2575f3560e01c8063859330cd1161006f578063859330cd1461019c5780638f2457a4146101cc578063a0aacbe5146101e8578063b69ef8a814610218578063e190febc14610236578063fc0c546a14610252576100b2565b8063037aeef9146100b6578063134a0709146100e6578063212d5c08146101165780632199d5cd146101465780632b7ac3f314610162578063321753c314610180575b5f80fd5b6100d060048036038101906100cb9190610b86565b610270565b6040516100dd9190610bc9565b60405180910390f35b61010060048036038101906100fb9190610b86565b610285565b60405161010d9190610bfc565b60405180910390f35b610130600480360381019061012b9190610b86565b6102a2565b60405161013d9190610c9f565b60405180910390f35b610160600480360381019061015b9190610b86565b61033d565b005b61016a610422565b6040516101779190610d1a565b60405180910390f35b61019a60048036038101906101959190610b86565b610447565b005b6101b660048036038101906101b19190610b86565b61052c565b6040516101c39190610bc9565b60405180910390f35b6101e660048036038101906101e19190610dbe565b610541565b005b61020260048036038101906101fd9190610b86565b6107af565b60405161020f9190610bfc565b60405180910390f35b6102206107cc565b60405161022d9190610bc9565b60405180910390f35b610250600480360381019061024b9190610e84565b6107d2565b005b61025a610aff565b6040516102679190610eef565b60405180910390f35b6004602052805f5260405f205f915090505481565b6002602052805f5260405f205f915054906101000a900460ff1681565b6006602052805f5260405f205f9150905080546102be90610f35565b80601f01602080910402602001604051908101604052809291908181526020018280546102ea90610f35565b80156103355780601f1061030c57610100808354040283529160200191610335565b820191905f5260205f20905b81548152906001019060200180831161031857829003601f168201915b505050505081565b5f8054906101000a900473ffffffffffffffffffffffffffffffffffffffff1673ffffffffffffffffffffffffffffffffffffffff163373ffffffffffffffffffffffffffffffffffffffff16146103ca576040517f08c379a00000000000000000000000000000000000000000000000000000000081526004016103c190610fbf565b60405180910390fd5b600160025f8373ffffffffffffffffffffffffffffffffffffffff1673ffffffffffffffffffffffffffffffffffffffff1681526020019081526020015f205f6101000a81548160ff02191690831515021790555050565b60075f9054906101000a900473ffffffffffffffffffffffffffffffffffffffff1681565b5f8054906101000a900473ffffffffffffffffffffffffffffffffffffffff1673ffffffffffffffffffffffffffffffffffffffff163373ffffffffffffffffffffffffffffffffffffffff16146104d4576040517f08c379a00000000000000000000000000000000000000000000000000000000081526004016104cb90610fbf565b60405180910390fd5b600160035f8373ffffffffffffffffffffffffffffffffffffffff1673ffffffffffffffffffffffffffffffffffffffff1681526020019081526020015f205f6101000a81548160ff02191690831515021790555050565b6005602052805f5260405f205f915090505481565b60025f3373ffffffffffffffffffffffffffffffffffffffff1673ffffffffffffffffffffffffffffffffffffffff1681526020019081526020015f205f9054906101000a900460ff166105ca576040517f08c379a00000000000000000000000000000000000000000000000000000000081526004016105c190611027565b60405180910390fd5b6001151560075f9054906101000a900473ffffffffffffffffffffffffffffffffffffffff1673ffffffffffffffffffffffffffffffffffffffff16639deb17f584846040518061090001604052806108d981526020016116756108d991396040518463ffffffff1660e01b8152600401610647939291906110c1565b6020604051808303815f875af1158015610663573d5f803e3d5ffd5b505050506040513d601f19601f820116820180604052508101906106879190611122565b1515146106c9576040517f08c379a00000000000000000000000000000000000000000000000000000000081526004016106c090611197565b60405180910390fd5b8260045f3373ffffffffffffffffffffffffffffffffffffffff1673ffffffffffffffffffffffffffffffffffffffff1681526020019081526020015f20819055508360055f3373ffffffffffffffffffffffffffffffffffffffff1673ffffffffffffffffffffffffffffffffffffffff1681526020019081526020015f2081905550818160405161075d9291906111e3565b6040518091039020843373ffffffffffffffffffffffffffffffffffffffff167f558218a79339e3aee73dc14a9a6988049433be9a2dfe01dae65185d58fb7418860405160405180910390a450505050565b6003602052805f5260405f205f915054906101000a900460ff1681565b60015481565b60025f3373ffffffffffffffffffffffffffffffffffffffff1673ffffffffffffffffffffffffffffffffffffffff1681526020019081526020015f205f9054906101000a900460ff1661085b576040517f08c379a000000000000000000000000000000000000000000000000000000000815260040161085290611027565b60405180910390fd5b6002828260405161086d929190611229565b602060405180830381855afa158015610888573d5f803e3d5ffd5b5050506040513d601f19601f820116820180604052508101906108ab9190611274565b5f1c60045f3373ffffffffffffffffffffffffffffffffffffffff1673ffffffffffffffffffffffffffffffffffffffff1681526020019081526020015f20541461092b576040517f08c379a0000000000000000000000000000000000000000000000000000000008152600401610922906112e9565b60405180910390fd5b60035f3373ffffffffffffffffffffffffffffffffffffffff1673ffffffffffffffffffffffffffffffffffffffff1681526020019081526020015f205f9054906101000a900460ff166109b4576040517f08c379a00000000000000000000000000000000000000000000000000000000081526004016109ab90611377565b60405180910390fd5b818160065f3373ffffffffffffffffffffffffffffffffffffffff1673ffffffffffffffffffffffffffffffffffffffff1681526020019081526020015f209182610a00929190611560565b5060085f9054906101000a900473ffffffffffffffffffffffffffffffffffffffff1673ffffffffffffffffffffffffffffffffffffffff1663b7760c8f600154336040518363ffffffff1660e01b8152600401610a5f92919061164d565b6020604051808303815f875af1158015610a7b573d5f803e3d5ffd5b505050506040513d601f19601f82011682018060405250810190610a9f9190611122565b508181604051610ab0929190611229565b60405180910390203373ffffffffffffffffffffffffffffffffffffffff167f862c03894c27b3b29da99c769d6df07c190facaa82ec3f8befea36e9ae120a9c60405160405180910390a35050565b60085f9054906101000a900473ffffffffffffffffffffffffffffffffffffffff1681565b5f80fd5b5f80fd5b5f73ffffffffffffffffffffffffffffffffffffffff82169050919050565b5f610b5582610b2c565b9050919050565b610b6581610b4b565b8114610b6f575f80fd5b50565b5f81359050610b8081610b5c565b92915050565b5f60208284031215610b9b57610b9a610b24565b5b5f610ba884828501610b72565b91505092915050565b5f819050919050565b610bc381610bb1565b82525050565b5f602082019050610bdc5f830184610bba565b92915050565b5f8115159050919050565b610bf681610be2565b82525050565b5f602082019050610c0f5f830184610bed565b92915050565b5f81519050919050565b5f82825260208201905092915050565b5f5b83811015610c4c578082015181840152602081019050610c31565b5f8484015250505050565b5f601f19601f8301169050919050565b5f610c7182610c15565b610c7b8185610c1f565b9350610c8b818560208601610c2f565b610c9481610c57565b840191505092915050565b5f6020820190508181035f830152610cb78184610c67565b905092915050565b5f819050919050565b5f610ce2610cdd610cd884610b2c565b610cbf565b610b2c565b9050919050565b5f610cf382610cc8565b9050919050565b5f610d0482610ce9565b9050919050565b610d1481610cfa565b82525050565b5f602082019050610d2d5f830184610d0b565b92915050565b610d3c81610bb1565b8114610d46575f80fd5b50565b5f81359050610d5781610d33565b92915050565b5f80fd5b5f80fd5b5f80fd5b5f8083601f840112610d7e57610d7d610d5d565b5b8235905067ffffffffffffffff811115610d9b57610d9a610d61565b5b602083019150836001820283011115610db757610db6610d65565b5b9250929050565b5f805f8060608587031215610dd657610dd5610b24565b5b5f610de387828801610d49565b9450506020610df487828801610d49565b935050604085013567ffffffffffffffff811115610e1557610e14610b28565b5b610e2187828801610d69565b925092505092959194509250565b5f8083601f840112610e4457610e43610d5d565b5b8235905067ffffffffffffffff811115610e6157610e60610d61565b5b602083019150836001820283011115610e7d57610e7c610d65565b5b9250929050565b5f8060208385031215610e9a57610e99610b24565b5b5f83013567ffffffffffffffff811115610eb757610eb6610b28565b5b610ec385828601610e2f565b92509250509250929050565b5f610ed982610ce9565b9050919050565b610ee981610ecf565b82525050565b5f602082019050610f025f830184610ee0565b92915050565b7f4e487b71000000000000000000000000000000000000000000000000000000005f52602260045260245ffd5b5f6002820490506001821680610f4c57607f821691505b602082108103610f5f57610f5e610f08565b5b50919050565b5f82825260208201905092915050565b7f46756e6374696f6e206f6e6c7920617661696c61626c6520746f206f776e65725f82015250565b5f610fa9602083610f65565b9150610fb482610f75565b602082019050919050565b5f6020820190508181035f830152610fd681610f9d565b9050919050565b7f55736572206e6f742072656769737465726564000000000000000000000000005f82015250565b5f611011601383610f65565b915061101c82610fdd565b602082019050919050565b5f6020820190508181035f83015261103e81611005565b9050919050565b828183375f83830152505050565b5f61105e8385610f65565b935061106b838584611045565b61107483610c57565b840190509392505050565b5f81519050919050565b5f6110938261107f565b61109d8185610f65565b93506110ad818560208601610c2f565b6110b681610c57565b840191505092915050565b5f6040820190508181035f8301526110da818587611053565b905081810360208301526110ee8184611089565b9050949350505050565b61110181610be2565b811461110b575f80fd5b50565b5f8151905061111c816110f8565b92915050565b5f6020828403121561113757611136610b24565b5b5f6111448482850161110e565b91505092915050565b7f6174746573746174696f6e206e6f742076616c696400000000000000000000005f82015250565b5f611181601583610f65565b915061118c8261114d565b602082019050919050565b5f6020820190508181035f8301526111ae81611175565b9050919050565b5f81905092915050565b5f6111ca83856111b5565b93506111d7838584611045565b82840190509392505050565b5f6111ef8284866111bf565b91508190509392505050565b5f81905092915050565b5f61121083856111fb565b935061121d838584611045565b82840190509392505050565b5f611235828486611205565b91508190509392505050565b5f819050919050565b61125381611241565b811461125d575f80fd5b50565b5f8151905061126e8161124a565b92915050565b5f6020828403121561128957611288610b24565b5b5f61129684828501611260565b91505092915050565b7f4b657920697320696e636f7272656374000000000000000000000000000000005f82015250565b5f6112d3601083610f65565b91506112de8261129f565b602082019050919050565b5f6020820190508181035f830152611300816112c7565b9050919050565b7f436f6465206e6f74207265636569766564207965742c2073656e6420746f20685f8201527f6f7374206174206578616d706c65406578616d706c652e636f6d000000000000602082015250565b5f611361603a83610f65565b915061136c82611307565b604082019050919050565b5f6020820190508181035f83015261138e81611355565b9050919050565b5f82905092915050565b7f4e487b71000000000000000000000000000000000000000000000000000000005f52604160045260245ffd5b5f819050815f5260205f209050919050565b5f6020601f8301049050919050565b5f82821b905092915050565b5f600883026114287fffffffffffffffffffffffffffffffffffffffffffffffffffffffffffffffff826113ed565b61143286836113ed565b95508019841693508086168417925050509392505050565b5f61146461145f61145a84610bb1565b610cbf565b610bb1565b9050919050565b5f819050919050565b61147d8361144a565b6114916114898261146b565b8484546113f9565b825550505050565b5f90565b6114a5611499565b6114b0818484611474565b505050565b5b818110156114d3576114c85f8261149d565b6001810190506114b6565b5050565b601f821115611518576114e9816113cc565b6114f2846113de565b81016020851015611501578190505b61151561150d856113de565b8301826114b5565b50505b505050565b5f82821c905092915050565b5f6115385f198460080261151d565b1980831691505092915050565b5f6115508383611529565b9150826002028217905092915050565b61156a8383611395565b67ffffffffffffffff8111156115835761158261139f565b5b61158d8254610f35565b6115988282856114d7565b5f601f8311600181146115c5575f84156115b3578287013590505b6115bd8582611545565b865550611624565b601f1984166115d3866113cc565b5f5b828110156115fa578489013582556001820191506020850194506020810190506115d5565b868310156116175784890135611613601f891682611529565b8355505b6001600288020188555050505b50505050505050565b5f61163782610b2c565b9050919050565b6116478161162d565b82525050565b5f6040820190506116605f830185610bba565b61166d602083018461163e565b939250505056fe5b6c6f616465725d0a656e747279706f696e74203d202266696c653a2f7573722f6c69622f7838365f36342d6c696e75782d676e752f6772616d696e652f6c696273797364622e736f220a6c6f675f6c6576656c203d20226572726f72220a696e7365637572655f5f7573655f636d646c696e655f61726776203d20747275650a0a5b6c6f616465722e656e765d0a4c445f4c4942524152595f50415448203d20222f6c69623a2f6c69623a2f6c69622f7838365f36342d6c696e75782d676e753a2f7573722f2f6c69622f7838365f36342d6c696e75782d676e75220a4f4d505f4e554d5f54485245414453203d202234220a0a5b6c69626f735d0a656e747279706f696e74203d20222f7573722f62696e2f707974686f6e332e38220a0a5b7379735d0a656e61626c655f7369677465726d5f696e6a656374696f6e203d20747275650a656e61626c655f65787472615f72756e74696d655f646f6d61696e5f6e616d65735f636f6e66203d20747275650a0a5b7379732e737461636b5d0a73697a65203d2022324d220a0a5b5b66732e6d6f756e74735d5d0a70617468203d20222f6c6962220a757269203d202266696c653a2f7573722f6c69622f7838365f36342d6c696e75782d676e752f6772616d696e652f72756e74696d652f676c696263220a0a5b5b66732e6d6f756e74735d5d0a70617468203d20222f6c69622f7838365f36342d6c696e75782d676e75220a757269203d202266696c653a2f6c69622f7838365f36342d6c696e75782d676e75220a0a5b5b66732e6d6f756e74735d5d0a70617468203d20222f7573722f2f6c69622f7838365f36342d6c696e75782d676e75220a757269203d202266696c653a2f7573722f2f6c69622f7838365f36342d6c696e75782d676e75220a0a5b5b66732e6d6f756e74735d5d0a70617468203d20222f7573722f6c69622f707974686f6e332e38220a757269203d202266696c653a2f7573722f6c69622f707974686f6e332e38220a0a5b5b66732e6d6f756e74735d5d0a70617468203d20222f7573722f6c69622f707974686f6e332e382f6c69622d64796e6c6f6164220a757269203d202266696c653a2f7573722f6c69622f707974686f6e332e382f6c69622d64796e6c6f6164220a0a5b5b66732e6d6f756e74735d5d0a70617468203d20222f7573722f6c6f63616c2f6c69622f707974686f6e332e382f646973742d7061636b61676573220a757269203d202266696c653a2f7573722f6c6f63616c2f6c69622f707974686f6e332e382f646973742d7061636b61676573220a0a5b5b66732e6d6f756e74735d5d0a70617468203d20222f7573722f6c69622f707974686f6e332f646973742d7061636b61676573220a757269203d202266696c653a2f7573722f6c69622f707974686f6e332f646973742d7061636b61676573220a0a5b5b66732e6d6f756e74735d5d0a70617468203d20222f7573722f62696e2f707974686f6e332e38220a757269203d202266696c653a2f7573722f62696e2f707974686f6e332e38220a0a5b5b66732e6d6f756e74735d5d0a70617468203d20222f62696e2f7368220a757269203d202266696c653a2f62696e2f7368220a0a5b5b66732e6d6f756e74735d5d0a74797065203d2022746d706673220a70617468203d20222f746d70220a0a5b7367785d0a6465627567203d2066616c73650a65646d6d5f656e61626c65203d2066616c73650a656e636c6176655f73697a65203d20223447220a6d61785f74687265616473203d2033320a72656d6f74655f6174746573746174696f6e203d20226e6f6e65220a72615f636c69656e745f73706964203d2022220a72615f636c69656e745f6c696e6b61626c65203d2066616c73650a747275737465645f66696c6573203d205b0a202020207b20757269203d202266696c653a2f7573722f6c69622f7838365f36342d6c696e75782d676e752f6772616d696e652f6c696273797364622e736f22207d2c0a202020207b20757269203d202266696c653a2f7573722f62696e2f707974686f6e332e3822207d2c0a202020207b20757269203d202266696c653a2f7573722f6c69622f7838365f36342d6c696e75782d676e752f6772616d696e652f72756e74696d652f676c6962632f22207d2c0a202020207b20757269203d202266696c653a2f6c69622f7838365f36342d6c696e75782d676e752f22207d2c0a202020207b20757269203d202266696c653a2f7573722f2f6c69622f7838365f36342d6c696e75782d676e752f22207d2c0a202020207b20757269203d202266696c653a2f7573722f6c69622f707974686f6e332e382f22207d2c0a202020207b20757269203d202266696c653a2f7573722f6c69622f707974686f6e332e382f6c69622d64796e6c6f61642f22207d2c0a202020207b20757269203d202266696c653a2f7573722f6c6f63616c2f6c69622f707974686f6e332e382f646973742d7061636b616765732f22207d2c0a202020207b20757269203d202266696c653a2f7573722f6c69622f707974686f6e332f646973742d7061636b616765732f22207d2c0a202020207b20757269203d202266696c653a2f62696e2f736822207d2c0a202020207b20757269203d202266696c653a2e2f22207d2c0a202020207b20757269203d202266696c653a7375626d697373696f6e2e707922207d2c0a202020207b20757269203d202266696c653a696e746572666163652e707922207d2c0a202020207b20757269203d202266696c653a7075626c69635f6b65792e74787422207d2c0a202020207b20757269203d202266696c653a7375626d69747465725f6b65792e74787422207d2c0a5d0a69737670726f646964203d20300a69737673766e203d20300a656e61626c655f7374617473203d2066616c73650a7573655f6578696e666f203d2066616c73650a0a5b7367782e6370755f66656174757265735d0a617678203d2022756e737065636966696564220a617678353132203d2022756e737065636966696564220a616d78203d2022756e737065636966696564220a6d7078203d202264697361626c6564220a706b7275203d202264697361626c6564220aa2646970667358221220a91919c4ca54d5f453d6a47089222e06a9bc1ba86d5b88675dab7ccde60eb42464736f6c63430008160033608060405234801561000f575f80fd5b506101ba8061001d5f395ff3fe608060405234801561000f575f80fd5b5060043610610029575f3560e01c80639deb17f51461002d575b5f80fd5b610047600480360381019061004291906100d3565b61005d565b604051610054919061016b565b60405180910390f35b5f60019050949350505050565b5f80fd5b5f80fd5b5f80fd5b5f80fd5b5f80fd5b5f8083601f84011261009357610092610072565b5b8235905067ffffffffffffffff8111156100b0576100af610076565b5b6020830191508360018202830111156100cc576100cb61007a565b5b9250929050565b5f805f80604085870312156100eb576100ea61006a565b5b5f85013567ffffffffffffffff8111156101085761010761006e565b5b6101148782880161007e565b9450945050602085013567ffffffffffffffff8111156101375761013661006e565b5b6101438782880161007e565b925092505092959194509250565b5f8115159050919050565b61016581610151565b82525050565b5f60208201905061017e5f83018461015c565b9291505056fea26469706673582212209cc0ae3106b38f189048c3b039238f3b3facc68b758bd618792b9daf81c04c5d64736f6c63430008160033608060405234801561000f575f80fd5b506101a08061001d5f395ff3fe608060405234801561000f575f80fd5b5060043610610029575f3560e01c8063b7760c8f1461002d575b5f80fd5b610047600480360381019061004291906100f9565b61005d565b6040516100549190610151565b60405180910390f35b5f6001905092915050565b5f80fd5b5f819050919050565b61007e8161006c565b8114610088575f80fd5b50565b5f8135905061009981610075565b92915050565b5f73ffffffffffffffffffffffffffffffffffffffff82169050919050565b5f6100c88261009f565b9050919050565b6100d8816100be565b81146100e2575f80fd5b50565b5f813590506100f3816100cf565b92915050565b5f806040838503121561010f5761010e610068565b5b5f61011c8582860161008b565b925050602061012d858286016100e5565b9150509250929050565b5f8115159050919050565b61014b81610137565b82525050565b5f6020820190506101645f830184610142565b9291505056fea2646970667358221220b41b3a8e9c72c990349fafffb42546ab55ed41065695a705f0bff0bdcb1f70f664736f6c63430008160033",
			"opcodes": "PUSH1 0x80 PUSH1 0x40 MSTORE PUSH2 0x3E8 PUSH1 0x1 SSTORE CALLVALUE DUP1 ISZERO PUSH3 0x16 JUMPI PUSH0 DUP1 REVERT JUMPDEST POP PUSH1 0x40 MLOAD PUSH3 0x2528 CODESIZE SUB DUP1 PUSH3 0x2528 DUP4 CODECOPY DUP2 DUP2 ADD PUSH1 0x40 MSTORE DUP2 ADD SWAP1 PUSH3 0x3C SWAP2 SWAP1 PUSH3 0x1D3 JUMP JUMPDEST DUP1 PUSH0 DUP1 PUSH2 0x100 EXP DUP2 SLOAD DUP2 PUSH20 0xFFFFFFFFFFFFFFFFFFFFFFFFFFFFFFFFFFFFFFFF MUL NOT AND SWAP1 DUP4 PUSH20 0xFFFFFFFFFFFFFFFFFFFFFFFFFFFFFFFFFFFFFFFF AND MUL OR SWAP1 SSTORE POP PUSH1 0x40 MLOAD PUSH3 0x89 SWAP1 PUSH3 0x152 JUMP JUMPDEST PUSH1 0x40 MLOAD DUP1 SWAP2 SUB SWAP1 PUSH0 CREATE DUP1 ISZERO DUP1 ISZERO PUSH3 0xA3 JUMPI RETURNDATASIZE PUSH0 DUP1 RETURNDATACOPY RETURNDATASIZE PUSH0 REVERT JUMPDEST POP PUSH1 0x7 PUSH0 PUSH2 0x100 EXP DUP2 SLOAD DUP2 PUSH20 0xFFFFFFFFFFFFFFFFFFFFFFFFFFFFFFFFFFFFFFFF MUL NOT AND SWAP1 DUP4 PUSH20 0xFFFFFFFFFFFFFFFFFFFFFFFFFFFFFFFFFFFFFFFF AND MUL OR SWAP1 SSTORE POP PUSH1 0x40 MLOAD PUSH3 0xF1 SWAP1 PUSH3 0x160 JUMP JUMPDEST PUSH1 0x40 MLOAD DUP1 SWAP2 SUB SWAP1 PUSH0 CREATE DUP1 ISZERO DUP1 ISZERO PUSH3 0x10B JUMPI RETURNDATASIZE PUSH0 DUP1 RETURNDATACOPY RETURNDATASIZE PUSH0 REVERT JUMPDEST POP PUSH1 0x8 PUSH0 PUSH2 0x100 EXP DUP2 SLOAD DUP2 PUSH20 0xFFFFFFFFFFFFFFFFFFFFFFFFFFFFFFFFFFFFFFFF MUL NOT AND SWAP1 DUP4 PUSH20 0xFFFFFFFFFFFFFFFFFFFFFFFFFFFFFFFFFFFFFFFF AND MUL OR SWAP1 SSTORE POP POP PUSH3 0x203 JUMP JUMPDEST PUSH2 0x1D7 DUP1 PUSH3 0x2194 DUP4 CODECOPY ADD SWAP1 JUMP JUMPDEST PUSH2 0x1BD DUP1 PUSH3 0x236B DUP4 CODECOPY ADD SWAP1 JUMP JUMPDEST PUSH0 DUP1 REVERT JUMPDEST PUSH0 PUSH20 0xFFFFFFFFFFFFFFFFFFFFFFFFFFFFFFFFFFFFFFFF DUP3 AND SWAP1 POP SWAP2 SWAP1 POP JUMP JUMPDEST PUSH0 PUSH3 0x19D DUP3 PUSH3 0x172 JUMP JUMPDEST SWAP1 POP SWAP2 SWAP1 POP JUMP JUMPDEST PUSH3 0x1AF DUP2 PUSH3 0x191 JUMP JUMPDEST DUP2 EQ PUSH3 0x1BA JUMPI PUSH0 DUP1 REVERT JUMPDEST POP JUMP JUMPDEST PUSH0 DUP2 MLOAD SWAP1 POP PUSH3 0x1CD DUP2 PUSH3 0x1A4 JUMP JUMPDEST SWAP3 SWAP2 POP POP JUMP JUMPDEST PUSH0 PUSH1 0x20 DUP3 DUP5 SUB SLT ISZERO PUSH3 0x1EB JUMPI PUSH3 0x1EA PUSH3 0x16E JUMP JUMPDEST JUMPDEST PUSH0 PUSH3 0x1FA DUP5 DUP3 DUP6 ADD PUSH3 0x1BD JUMP JUMPDEST SWAP2 POP POP SWAP3 SWAP2 POP POP JUMP JUMPDEST PUSH2 0x1F83 DUP1 PUSH3 0x211 PUSH0 CODECOPY PUSH0 RETURN INVALID PUSH1 0x80 PUSH1 0x40 MSTORE CALLVALUE DUP1 ISZERO PUSH2 0xF JUMPI PUSH0 DUP1 REVERT JUMPDEST POP PUSH1 0x4 CALLDATASIZE LT PUSH2 0xB2 JUMPI PUSH0 CALLDATALOAD PUSH1 0xE0 SHR DUP1 PUSH4 0x859330CD GT PUSH2 0x6F JUMPI DUP1 PUSH4 0x859330CD EQ PUSH2 0x19C JUMPI DUP1 PUSH4 0x8F2457A4 EQ PUSH2 0x1CC JUMPI DUP1 PUSH4 0xA0AACBE5 EQ PUSH2 0x1E8 JUMPI DUP1 PUSH4 0xB69EF8A8 EQ PUSH2 0x218 JUMPI DUP1 PUSH4 0xE190FEBC EQ PUSH2 0x236 JUMPI DUP1 PUSH4 0xFC0C546A EQ PUSH2 0x252 JUMPI PUSH2 0xB2 JUMP JUMPDEST DUP1 PUSH4 0x37AEEF9 EQ PUSH2 0xB6 JUMPI DUP1 PUSH4 0x134A0709 EQ PUSH2 0xE6 JUMPI DUP1 PUSH4 0x212D5C08 EQ PUSH2 0x116 JUMPI DUP1 PUSH4 0x2199D5CD EQ PUSH2 0x146 JUMPI DUP1 PUSH4 0x2B7AC3F3 EQ PUSH2 0x162 JUMPI DUP1 PUSH4 0x321753C3 EQ PUSH2 0x180 JUMPI JUMPDEST PUSH0 DUP1 REVERT JUMPDEST PUSH2 0xD0 PUSH1 0x4 DUP1 CALLDATASIZE SUB DUP2 ADD SWAP1 PUSH2 0xCB SWAP2 SWAP1 PUSH2 0xB86 JUMP JUMPDEST PUSH2 0x270 JUMP JUMPDEST PUSH1 0x40 MLOAD PUSH2 0xDD SWAP2 SWAP1 PUSH2 0xBC9 JUMP JUMPDEST PUSH1 0x40 MLOAD DUP1 SWAP2 SUB SWAP1 RETURN JUMPDEST PUSH2 0x100 PUSH1 0x4 DUP1 CALLDATASIZE SUB DUP2 ADD SWAP1 PUSH2 0xFB SWAP2 SWAP1 PUSH2 0xB86 JUMP JUMPDEST PUSH2 0x285 JUMP JUMPDEST PUSH1 0x40 MLOAD PUSH2 0x10D SWAP2 SWAP1 PUSH2 0xBFC JUMP JUMPDEST PUSH1 0x40 MLOAD DUP1 SWAP2 SUB SWAP1 RETURN JUMPDEST PUSH2 0x130 PUSH1 0x4 DUP1 CALLDATASIZE SUB DUP2 ADD SWAP1 PUSH2 0x12B SWAP2 SWAP1 PUSH2 0xB86 JUMP JUMPDEST PUSH2 0x2A2 JUMP JUMPDEST PUSH1 0x40 MLOAD PUSH2 0x13D SWAP2 SWAP1 PUSH2 0xC9F JUMP JUMPDEST PUSH1 0x40 MLOAD DUP1 SWAP2 SUB SWAP1 RETURN JUMPDEST PUSH2 0x160 PUSH1 0x4 DUP1 CALLDATASIZE SUB DUP2 ADD SWAP1 PUSH2 0x15B SWAP2 SWAP1 PUSH2 0xB86 JUMP JUMPDEST PUSH2 0x33D JUMP JUMPDEST STOP JUMPDEST PUSH2 0x16A PUSH2 0x422 JUMP JUMPDEST PUSH1 0x40 MLOAD PUSH2 0x177 SWAP2 SWAP1 PUSH2 0xD1A JUMP JUMPDEST PUSH1 0x40 MLOAD DUP1 SWAP2 SUB SWAP1 RETURN JUMPDEST PUSH2 0x19A PUSH1 0x4 DUP1 CALLDATASIZE SUB DUP2 ADD SWAP1 PUSH2 0x195 SWAP2 SWAP1 PUSH2 0xB86 JUMP JUMPDEST PUSH2 0x447 JUMP JUMPDEST STOP JUMPDEST PUSH2 0x1B6 PUSH1 0x4 DUP1 CALLDATASIZE SUB DUP2 ADD SWAP1 PUSH2 0x1B1 SWAP2 SWAP1 PUSH2 0xB86 JUMP JUMPDEST PUSH2 0x52C JUMP JUMPDEST PUSH1 0x40 MLOAD PUSH2 0x1C3 SWAP2 SWAP1 PUSH2 0xBC9 JUMP JUMPDEST PUSH1 0x40 MLOAD DUP1 SWAP2 SUB SWAP1 RETURN JUMPDEST PUSH2 0x1E6 PUSH1 0x4 DUP1 CALLDATASIZE SUB DUP2 ADD SWAP1 PUSH2 0x1E1 SWAP2 SWAP1 PUSH2 0xDBE JUMP JUMPDEST PUSH2 0x541 JUMP JUMPDEST STOP JUMPDEST PUSH2 0x202 PUSH1 0x4 DUP1 CALLDATASIZE SUB DUP2 ADD SWAP1 PUSH2 0x1FD SWAP2 SWAP1 PUSH2 0xB86 JUMP JUMPDEST PUSH2 0x7AF JUMP JUMPDEST PUSH1 0x40 MLOAD PUSH2 0x20F SWAP2 SWAP1 PUSH2 0xBFC JUMP JUMPDEST PUSH1 0x40 MLOAD DUP1 SWAP2 SUB SWAP1 RETURN JUMPDEST PUSH2 0x220 PUSH2 0x7CC JUMP JUMPDEST PUSH1 0x40 MLOAD PUSH2 0x22D SWAP2 SWAP1 PUSH2 0xBC9 JUMP JUMPDEST PUSH1 0x40 MLOAD DUP1 SWAP2 SUB SWAP1 RETURN JUMPDEST PUSH2 0x250 PUSH1 0x4 DUP1 CALLDATASIZE SUB DUP2 ADD SWAP1 PUSH2 0x24B SWAP2 SWAP1 PUSH2 0xE84 JUMP JUMPDEST PUSH2 0x7D2 JUMP JUMPDEST STOP JUMPDEST PUSH2 0x25A PUSH2 0xAFF JUMP JUMPDEST PUSH1 0x40 MLOAD PUSH2 0x267 SWAP2 SWAP1 PUSH2 0xEEF JUMP JUMPDEST PUSH1 0x40 MLOAD DUP1 SWAP2 SUB SWAP1 RETURN JUMPDEST PUSH1 0x4 PUSH1 0x20 MSTORE DUP1 PUSH0 MSTORE PUSH1 0x40 PUSH0 KECCAK256 PUSH0 SWAP2 POP SWAP1 POP SLOAD DUP2 JUMP JUMPDEST PUSH1 0x2 PUSH1 0x20 MSTORE DUP1 PUSH0 MSTORE PUSH1 0x40 PUSH0 KECCAK256 PUSH0 SWAP2 POP SLOAD SWAP1 PUSH2 0x100 EXP SWAP1 DIV PUSH1 0xFF AND DUP2 JUMP JUMPDEST PUSH1 0x6 PUSH1 0x20 MSTORE DUP1 PUSH0 MSTORE PUSH1 0x40 PUSH0 KECCAK256 PUSH0 SWAP2 POP SWAP1 POP DUP1 SLOAD PUSH2 0x2BE SWAP1 PUSH2 0xF35 JUMP JUMPDEST DUP1 PUSH1 0x1F ADD PUSH1 0x20 DUP1 SWAP2 DIV MUL PUSH1 0x20 ADD PUSH1 0x40 MLOAD SWAP1 DUP2 ADD PUSH1 0x40 MSTORE DUP1 SWAP3 SWAP2 SWAP1 DUP2 DUP2 MSTORE PUSH1 0x20 ADD DUP3 DUP1 SLOAD PUSH2 0x2EA SWAP1 PUSH2 0xF35 JUMP JUMPDEST DUP1 ISZERO PUSH2 0x335 JUMPI DUP1 PUSH1 0x1F LT PUSH2 0x30C JUMPI PUSH2 0x100 DUP1 DUP4 SLOAD DIV MUL DUP4 MSTORE SWAP2 PUSH1 0x20 ADD SWAP2 PUSH2 0x335 JUMP JUMPDEST DUP3 ADD SWAP2 SWAP1 PUSH0 MSTORE PUSH1 0x20 PUSH0 KECCAK256 SWAP1 JUMPDEST DUP2 SLOAD DUP2 MSTORE SWAP1 PUSH1 0x1 ADD SWAP1 PUSH1 0x20 ADD DUP1 DUP4 GT PUSH2 0x318 JUMPI DUP3 SWAP1 SUB PUSH1 0x1F AND DUP3 ADD SWAP2 JUMPDEST POP POP POP POP POP DUP2 JUMP JUMPDEST PUSH0 DUP1 SLOAD SWAP1 PUSH2 0x100 EXP SWAP1 DIV PUSH20 0xFFFFFFFFFFFFFFFFFFFFFFFFFFFFFFFFFFFFFFFF AND PUSH20 0xFFFFFFFFFFFFFFFFFFFFFFFFFFFFFFFFFFFFFFFF AND CALLER PUSH20 0xFFFFFFFFFFFFFFFFFFFFFFFFFFFFFFFFFFFFFFFF AND EQ PUSH2 0x3CA JUMPI PUSH1 0x40 MLOAD PUSH32 0x8C379A000000000000000000000000000000000000000000000000000000000 DUP2 MSTORE PUSH1 0x4 ADD PUSH2 0x3C1 SWAP1 PUSH2 0xFBF JUMP JUMPDEST PUSH1 0x40 MLOAD DUP1 SWAP2 SUB SWAP1 REVERT JUMPDEST PUSH1 0x1 PUSH1 0x2 PUSH0 DUP4 PUSH20 0xFFFFFFFFFFFFFFFFFFFFFFFFFFFFFFFFFFFFFFFF AND PUSH20 0xFFFFFFFFFFFFFFFFFFFFFFFFFFFFFFFFFFFFFFFF AND DUP2 MSTORE PUSH1 0x20 ADD SWAP1 DUP2 MSTORE PUSH1 0x20 ADD PUSH0 KECCAK256 PUSH0 PUSH2 0x100 EXP DUP2 SLOAD DUP2 PUSH1 0xFF MUL NOT AND SWAP1 DUP4 ISZERO ISZERO MUL OR SWAP1 SSTORE POP POP JUMP JUMPDEST PUSH1 0x7 PUSH0 SWAP1 SLOAD SWAP1 PUSH2 0x100 EXP SWAP1 DIV PUSH20 0xFFFFFFFFFFFFFFFFFFFFFFFFFFFFFFFFFFFFFFFF AND DUP2 JUMP JUMPDEST PUSH0 DUP1 SLOAD SWAP1 PUSH2 0x100 EXP SWAP1 DIV PUSH20 0xFFFFFFFFFFFFFFFFFFFFFFFFFFFFFFFFFFFFFFFF AND PUSH20 0xFFFFFFFFFFFFFFFFFFFFFFFFFFFFFFFFFFFFFFFF AND CALLER PUSH20 0xFFFFFFFFFFFFFFFFFFFFFFFFFFFFFFFFFFFFFFFF AND EQ PUSH2 0x4D4 JUMPI PUSH1 0x40 MLOAD PUSH32 0x8C379A000000000000000000000000000000000000000000000000000000000 DUP2 MSTORE PUSH1 0x4 ADD PUSH2 0x4CB SWAP1 PUSH2 0xFBF JUMP JUMPDEST PUSH1 0x40 MLOAD DUP1 SWAP2 SUB SWAP1 REVERT JUMPDEST PUSH1 0x1 PUSH1 0x3 PUSH0 DUP4 PUSH20 0xFFFFFFFFFFFFFFFFFFFFFFFFFFFFFFFFFFFFFFFF AND PUSH20 0xFFFFFFFFFFFFFFFFFFFFFFFFFFFFFFFFFFFFFFFF AND DUP2 MSTORE PUSH1 0x20 ADD SWAP1 DUP2 MSTORE PUSH1 0x20 ADD PUSH0 KECCAK256 PUSH0 PUSH2 0x100 EXP DUP2 SLOAD DUP2 PUSH1 0xFF MUL NOT AND SWAP1 DUP4 ISZERO ISZERO MUL OR SWAP1 SSTORE POP POP JUMP JUMPDEST PUSH1 0x5 PUSH1 0x20 MSTORE DUP1 PUSH0 MSTORE PUSH1 0x40 PUSH0 KECCAK256 PUSH0 SWAP2 POP SWAP1 POP SLOAD DUP2 JUMP JUMPDEST PUSH1 0x2 PUSH0 CALLER PUSH20 0xFFFFFFFFFFFFFFFFFFFFFFFFFFFFFFFFFFFFFFFF AND PUSH20 0xFFFFFFFFFFFFFFFFFFFFFFFFFFFFFFFFFFFFFFFF AND DUP2 MSTORE PUSH1 0x20 ADD SWAP1 DUP2 MSTORE PUSH1 0x20 ADD PUSH0 KECCAK256 PUSH0 SWAP1 SLOAD SWAP1 PUSH2 0x100 EXP SWAP1 DIV PUSH1 0xFF AND PUSH2 0x5CA JUMPI PUSH1 0x40 MLOAD PUSH32 0x8C379A000000000000000000000000000000000000000000000000000000000 DUP2 MSTORE PUSH1 0x4 ADD PUSH2 0x5C1 SWAP1 PUSH2 0x1027 JUMP JUMPDEST PUSH1 0x40 MLOAD DUP1 SWAP2 SUB SWAP1 REVERT JUMPDEST PUSH1 0x1 ISZERO ISZERO PUSH1 0x7 PUSH0 SWAP1 SLOAD SWAP1 PUSH2 0x100 EXP SWAP1 DIV PUSH20 0xFFFFFFFFFFFFFFFFFFFFFFFFFFFFFFFFFFFFFFFF AND PUSH20 0xFFFFFFFFFFFFFFFFFFFFFFFFFFFFFFFFFFFFFFFF AND PUSH4 0x9DEB17F5 DUP5 DUP5 PUSH1 0x40 MLOAD DUP1 PUSH2 0x900 ADD PUSH1 0x40 MSTORE DUP1 PUSH2 0x8D9 DUP2 MSTORE PUSH1 0x20 ADD PUSH2 0x1675 PUSH2 0x8D9 SWAP2 CODECOPY PUSH1 0x40 MLOAD DUP5 PUSH4 0xFFFFFFFF AND PUSH1 0xE0 SHL DUP2 MSTORE PUSH1 0x4 ADD PUSH2 0x647 SWAP4 SWAP3 SWAP2 SWAP1 PUSH2 0x10C1 JUMP JUMPDEST PUSH1 0x20 PUSH1 0x40 MLOAD DUP1 DUP4 SUB DUP2 PUSH0 DUP8 GAS CALL ISZERO DUP1 ISZERO PUSH2 0x663 JUMPI RETURNDATASIZE PUSH0 DUP1 RETURNDATACOPY RETURNDATASIZE PUSH0 REVERT JUMPDEST POP POP POP POP PUSH1 0x40 MLOAD RETURNDATASIZE PUSH1 0x1F NOT PUSH1 0x1F DUP3 ADD AND DUP3 ADD DUP1 PUSH1 0x40 MSTORE POP DUP2 ADD SWAP1 PUSH2 0x687 SWAP2 SWAP1 PUSH2 0x1122 JUMP JUMPDEST ISZERO ISZERO EQ PUSH2 0x6C9 JUMPI PUSH1 0x40 MLOAD PUSH32 0x8C379A000000000000000000000000000000000000000000000000000000000 DUP2 MSTORE PUSH1 0x4 ADD PUSH2 0x6C0 SWAP1 PUSH2 0x1197 JUMP JUMPDEST PUSH1 0x40 MLOAD DUP1 SWAP2 SUB SWAP1 REVERT JUMPDEST DUP3 PUSH1 0x4 PUSH0 CALLER PUSH20 0xFFFFFFFFFFFFFFFFFFFFFFFFFFFFFFFFFFFFFFFF AND PUSH20 0xFFFFFFFFFFFFFFFFFFFFFFFFFFFFFFFFFFFFFFFF AND DUP2 MSTORE PUSH1 0x20 ADD SWAP1 DUP2 MSTORE PUSH1 0x20 ADD PUSH0 KECCAK256 DUP2 SWAP1 SSTORE POP DUP4 PUSH1 0x5 PUSH0 CALLER PUSH20 0xFFFFFFFFFFFFFFFFFFFFFFFFFFFFFFFFFFFFFFFF AND PUSH20 0xFFFFFFFFFFFFFFFFFFFFFFFFFFFFFFFFFFFFFFFF AND DUP2 MSTORE PUSH1 0x20 ADD SWAP1 DUP2 MSTORE PUSH1 0x20 ADD PUSH0 KECCAK256 DUP2 SWAP1 SSTORE POP DUP2 DUP2 PUSH1 0x40 MLOAD PUSH2 0x75D SWAP3 SWAP2 SWAP1 PUSH2 0x11E3 JUMP JUMPDEST PUSH1 0x40 MLOAD DUP1 SWAP2 SUB SWAP1 KECCAK256 DUP5 CALLER PUSH20 0xFFFFFFFFFFFFFFFFFFFFFFFFFFFFFFFFFFFFFFFF AND PUSH32 0x558218A79339E3AEE73DC14A9A6988049433BE9A2DFE01DAE65185D58FB74188 PUSH1 0x40 MLOAD PUSH1 0x40 MLOAD DUP1 SWAP2 SUB SWAP1 LOG4 POP POP POP POP JUMP JUMPDEST PUSH1 0x3 PUSH1 0x20 MSTORE DUP1 PUSH0 MSTORE PUSH1 0x40 PUSH0 KECCAK256 PUSH0 SWAP2 POP SLOAD SWAP1 PUSH2 0x100 EXP SWAP1 DIV PUSH1 0xFF AND DUP2 JUMP JUMPDEST PUSH1 0x1 SLOAD DUP2 JUMP JUMPDEST PUSH1 0x2 PUSH0 CALLER PUSH20 0xFFFFFFFFFFFFFFFFFFFFFFFFFFFFFFFFFFFFFFFF AND PUSH20 0xFFFFFFFFFFFFFFFFFFFFFFFFFFFFFFFFFFFFFFFF AND DUP2 MSTORE PUSH1 0x20 ADD SWAP1 DUP2 MSTORE PUSH1 0x20 ADD PUSH0 KECCAK256 PUSH0 SWAP1 SLOAD SWAP1 PUSH2 0x100 EXP SWAP1 DIV PUSH1 0xFF AND PUSH2 0x85B JUMPI PUSH1 0x40 MLOAD PUSH32 0x8C379A000000000000000000000000000000000000000000000000000000000 DUP2 MSTORE PUSH1 0x4 ADD PUSH2 0x852 SWAP1 PUSH2 0x1027 JUMP JUMPDEST PUSH1 0x40 MLOAD DUP1 SWAP2 SUB SWAP1 REVERT JUMPDEST PUSH1 0x2 DUP3 DUP3 PUSH1 0x40 MLOAD PUSH2 0x86D SWAP3 SWAP2 SWAP1 PUSH2 0x1229 JUMP JUMPDEST PUSH1 0x20 PUSH1 0x40 MLOAD DUP1 DUP4 SUB DUP2 DUP6 GAS STATICCALL ISZERO DUP1 ISZERO PUSH2 0x888 JUMPI RETURNDATASIZE PUSH0 DUP1 RETURNDATACOPY RETURNDATASIZE PUSH0 REVERT JUMPDEST POP POP POP PUSH1 0x40 MLOAD RETURNDATASIZE PUSH1 0x1F NOT PUSH1 0x1F DUP3 ADD AND DUP3 ADD DUP1 PUSH1 0x40 MSTORE POP DUP2 ADD SWAP1 PUSH2 0x8AB SWAP2 SWAP1 PUSH2 0x1274 JUMP JUMPDEST PUSH0 SHR PUSH1 0x4 PUSH0 CALLER PUSH20 0xFFFFFFFFFFFFFFFFFFFFFFFFFFFFFFFFFFFFFFFF AND PUSH20 0xFFFFFFFFFFFFFFFFFFFFFFFFFFFFFFFFFFFFFFFF AND DUP2 MSTORE PUSH1 0x20 ADD SWAP1 DUP2 MSTORE PUSH1 0x20 ADD PUSH0 KECCAK256 SLOAD EQ PUSH2 0x92B JUMPI PUSH1 0x40 MLOAD PUSH32 0x8C379A000000000000000000000000000000000000000000000000000000000 DUP2 MSTORE PUSH1 0x4 ADD PUSH2 0x922 SWAP1 PUSH2 0x12E9 JUMP JUMPDEST PUSH1 0x40 MLOAD DUP1 SWAP2 SUB SWAP1 REVERT JUMPDEST PUSH1 0x3 PUSH0 CALLER PUSH20 0xFFFFFFFFFFFFFFFFFFFFFFFFFFFFFFFFFFFFFFFF AND PUSH20 0xFFFFFFFFFFFFFFFFFFFFFFFFFFFFFFFFFFFFFFFF AND DUP2 MSTORE PUSH1 0x20 ADD SWAP1 DUP2 MSTORE PUSH1 0x20 ADD PUSH0 KECCAK256 PUSH0 SWAP1 SLOAD SWAP1 PUSH2 0x100 EXP SWAP1 DIV PUSH1 0xFF AND PUSH2 0x9B4 JUMPI PUSH1 0x40 MLOAD PUSH32 0x8C379A000000000000000000000000000000000000000000000000000000000 DUP2 MSTORE PUSH1 0x4 ADD PUSH2 0x9AB SWAP1 PUSH2 0x1377 JUMP JUMPDEST PUSH1 0x40 MLOAD DUP1 SWAP2 SUB SWAP1 REVERT JUMPDEST DUP2 DUP2 PUSH1 0x6 PUSH0 CALLER PUSH20 0xFFFFFFFFFFFFFFFFFFFFFFFFFFFFFFFFFFFFFFFF AND PUSH20 0xFFFFFFFFFFFFFFFFFFFFFFFFFFFFFFFFFFFFFFFF AND DUP2 MSTORE PUSH1 0x20 ADD SWAP1 DUP2 MSTORE PUSH1 0x20 ADD PUSH0 KECCAK256 SWAP2 DUP3 PUSH2 0xA00 SWAP3 SWAP2 SWAP1 PUSH2 0x1560 JUMP JUMPDEST POP PUSH1 0x8 PUSH0 SWAP1 SLOAD SWAP1 PUSH2 0x100 EXP SWAP1 DIV PUSH20 0xFFFFFFFFFFFFFFFFFFFFFFFFFFFFFFFFFFFFFFFF AND PUSH20 0xFFFFFFFFFFFFFFFFFFFFFFFFFFFFFFFFFFFFFFFF AND PUSH4 0xB7760C8F PUSH1 0x1 SLOAD CALLER PUSH1 0x40 MLOAD DUP4 PUSH4 0xFFFFFFFF AND PUSH1 0xE0 SHL DUP2 MSTORE PUSH1 0x4 ADD PUSH2 0xA5F SWAP3 SWAP2 SWAP1 PUSH2 0x164D JUMP JUMPDEST PUSH1 0x20 PUSH1 0x40 MLOAD DUP1 DUP4 SUB DUP2 PUSH0 DUP8 GAS CALL ISZERO DUP1 ISZERO PUSH2 0xA7B JUMPI RETURNDATASIZE PUSH0 DUP1 RETURNDATACOPY RETURNDATASIZE PUSH0 REVERT JUMPDEST POP POP POP POP PUSH1 0x40 MLOAD RETURNDATASIZE PUSH1 0x1F NOT PUSH1 0x1F DUP3 ADD AND DUP3 ADD DUP1 PUSH1 0x40 MSTORE POP DUP2 ADD SWAP1 PUSH2 0xA9F SWAP2 SWAP1 PUSH2 0x1122 JUMP JUMPDEST POP DUP2 DUP2 PUSH1 0x40 MLOAD PUSH2 0xAB0 SWAP3 SWAP2 SWAP1 PUSH2 0x1229 JUMP JUMPDEST PUSH1 0x40 MLOAD DUP1 SWAP2 SUB SWAP1 KECCAK256 CALLER PUSH20 0xFFFFFFFFFFFFFFFFFFFFFFFFFFFFFFFFFFFFFFFF AND PUSH32 0x862C03894C27B3B29DA99C769D6DF07C190FACAA82EC3F8BEFEA36E9AE120A9C PUSH1 0x40 MLOAD PUSH1 0x40 MLOAD DUP1 SWAP2 SUB SWAP1 LOG3 POP POP JUMP JUMPDEST PUSH1 0x8 PUSH0 SWAP1 SLOAD SWAP1 PUSH2 0x100 EXP SWAP1 DIV PUSH20 0xFFFFFFFFFFFFFFFFFFFFFFFFFFFFFFFFFFFFFFFF AND DUP2 JUMP JUMPDEST PUSH0 DUP1 REVERT JUMPDEST PUSH0 DUP1 REVERT JUMPDEST PUSH0 PUSH20 0xFFFFFFFFFFFFFFFFFFFFFFFFFFFFFFFFFFFFFFFF DUP3 AND SWAP1 POP SWAP2 SWAP1 POP JUMP JUMPDEST PUSH0 PUSH2 0xB55 DUP3 PUSH2 0xB2C JUMP JUMPDEST SWAP1 POP SWAP2 SWAP1 POP JUMP JUMPDEST PUSH2 0xB65 DUP2 PUSH2 0xB4B JUMP JUMPDEST DUP2 EQ PUSH2 0xB6F JUMPI PUSH0 DUP1 REVERT JUMPDEST POP JUMP JUMPDEST PUSH0 DUP2 CALLDATALOAD SWAP1 POP PUSH2 0xB80 DUP2 PUSH2 0xB5C JUMP JUMPDEST SWAP3 SWAP2 POP POP JUMP JUMPDEST PUSH0 PUSH1 0x20 DUP3 DUP5 SUB SLT ISZERO PUSH2 0xB9B JUMPI PUSH2 0xB9A PUSH2 0xB24 JUMP JUMPDEST JUMPDEST PUSH0 PUSH2 0xBA8 DUP5 DUP3 DUP6 ADD PUSH2 0xB72 JUMP JUMPDEST SWAP2 POP POP SWAP3 SWAP2 POP POP JUMP JUMPDEST PUSH0 DUP2 SWAP1 POP SWAP2 SWAP1 POP JUMP JUMPDEST PUSH2 0xBC3 DUP2 PUSH2 0xBB1 JUMP JUMPDEST DUP3 MSTORE POP POP JUMP JUMPDEST PUSH0 PUSH1 0x20 DUP3 ADD SWAP1 POP PUSH2 0xBDC PUSH0 DUP4 ADD DUP5 PUSH2 0xBBA JUMP JUMPDEST SWAP3 SWAP2 POP POP JUMP JUMPDEST PUSH0 DUP2 ISZERO ISZERO SWAP1 POP SWAP2 SWAP1 POP JUMP JUMPDEST PUSH2 0xBF6 DUP2 PUSH2 0xBE2 JUMP JUMPDEST DUP3 MSTORE POP POP JUMP JUMPDEST PUSH0 PUSH1 0x20 DUP3 ADD SWAP1 POP PUSH2 0xC0F PUSH0 DUP4 ADD DUP5 PUSH2 0xBED JUMP JUMPDEST SWAP3 SWAP2 POP POP JUMP JUMPDEST PUSH0 DUP2 MLOAD SWAP1 POP SWAP2 SWAP1 POP JUMP JUMPDEST PUSH0 DUP3 DUP3 MSTORE PUSH1 0x20 DUP3 ADD SWAP1 POP SWAP3 SWAP2 POP POP JUMP JUMPDEST PUSH0 JUMPDEST DUP4 DUP2 LT ISZERO PUSH2 0xC4C JUMPI DUP1 DUP3 ADD MLOAD DUP2 DUP5 ADD MSTORE PUSH1 0x20 DUP2 ADD SWAP1 POP PUSH2 0xC31 JUMP JUMPDEST PUSH0 DUP5 DUP5 ADD MSTORE POP POP POP POP JUMP JUMPDEST PUSH0 PUSH1 0x1F NOT PUSH1 0x1F DUP4 ADD AND SWAP1 POP SWAP2 SWAP1 POP JUMP JUMPDEST PUSH0 PUSH2 0xC71 DUP3 PUSH2 0xC15 JUMP JUMPDEST PUSH2 0xC7B DUP2 DUP6 PUSH2 0xC1F JUMP JUMPDEST SWAP4 POP PUSH2 0xC8B DUP2 DUP6 PUSH1 0x20 DUP7 ADD PUSH2 0xC2F JUMP JUMPDEST PUSH2 0xC94 DUP2 PUSH2 0xC57 JUMP JUMPDEST DUP5 ADD SWAP2 POP POP SWAP3 SWAP2 POP POP JUMP JUMPDEST PUSH0 PUSH1 0x20 DUP3 ADD SWAP1 POP DUP2 DUP2 SUB PUSH0 DUP4 ADD MSTORE PUSH2 0xCB7 DUP2 DUP5 PUSH2 0xC67 JUMP JUMPDEST SWAP1 POP SWAP3 SWAP2 POP POP JUMP JUMPDEST PUSH0 DUP2 SWAP1 POP SWAP2 SWAP1 POP JUMP JUMPDEST PUSH0 PUSH2 0xCE2 PUSH2 0xCDD PUSH2 0xCD8 DUP5 PUSH2 0xB2C JUMP JUMPDEST PUSH2 0xCBF JUMP JUMPDEST PUSH2 0xB2C JUMP JUMPDEST SWAP1 POP SWAP2 SWAP1 POP JUMP JUMPDEST PUSH0 PUSH2 0xCF3 DUP3 PUSH2 0xCC8 JUMP JUMPDEST SWAP1 POP SWAP2 SWAP1 POP JUMP JUMPDEST PUSH0 PUSH2 0xD04 DUP3 PUSH2 0xCE9 JUMP JUMPDEST SWAP1 POP SWAP2 SWAP1 POP JUMP JUMPDEST PUSH2 0xD14 DUP2 PUSH2 0xCFA JUMP JUMPDEST DUP3 MSTORE POP POP JUMP JUMPDEST PUSH0 PUSH1 0x20 DUP3 ADD SWAP1 POP PUSH2 0xD2D PUSH0 DUP4 ADD DUP5 PUSH2 0xD0B JUMP JUMPDEST SWAP3 SWAP2 POP POP JUMP JUMPDEST PUSH2 0xD3C DUP2 PUSH2 0xBB1 JUMP JUMPDEST DUP2 EQ PUSH2 0xD46 JUMPI PUSH0 DUP1 REVERT JUMPDEST POP JUMP JUMPDEST PUSH0 DUP2 CALLDATALOAD SWAP1 POP PUSH2 0xD57 DUP2 PUSH2 0xD33 JUMP JUMPDEST SWAP3 SWAP2 POP POP JUMP JUMPDEST PUSH0 DUP1 REVERT JUMPDEST PUSH0 DUP1 REVERT JUMPDEST PUSH0 DUP1 REVERT JUMPDEST PUSH0 DUP1 DUP4 PUSH1 0x1F DUP5 ADD SLT PUSH2 0xD7E JUMPI PUSH2 0xD7D PUSH2 0xD5D JUMP JUMPDEST JUMPDEST DUP3 CALLDATALOAD SWAP1 POP PUSH8 0xFFFFFFFFFFFFFFFF DUP2 GT ISZERO PUSH2 0xD9B JUMPI PUSH2 0xD9A PUSH2 0xD61 JUMP JUMPDEST JUMPDEST PUSH1 0x20 DUP4 ADD SWAP2 POP DUP4 PUSH1 0x1 DUP3 MUL DUP4 ADD GT ISZERO PUSH2 0xDB7 JUMPI PUSH2 0xDB6 PUSH2 0xD65 JUMP JUMPDEST JUMPDEST SWAP3 POP SWAP3 SWAP1 POP JUMP JUMPDEST PUSH0 DUP1 PUSH0 DUP1 PUSH1 0x60 DUP6 DUP8 SUB SLT ISZERO PUSH2 0xDD6 JUMPI PUSH2 0xDD5 PUSH2 0xB24 JUMP JUMPDEST JUMPDEST PUSH0 PUSH2 0xDE3 DUP8 DUP3 DUP9 ADD PUSH2 0xD49 JUMP JUMPDEST SWAP5 POP POP PUSH1 0x20 PUSH2 0xDF4 DUP8 DUP3 DUP9 ADD PUSH2 0xD49 JUMP JUMPDEST SWAP4 POP POP PUSH1 0x40 DUP6 ADD CALLDATALOAD PUSH8 0xFFFFFFFFFFFFFFFF DUP2 GT ISZERO PUSH2 0xE15 JUMPI PUSH2 0xE14 PUSH2 0xB28 JUMP JUMPDEST JUMPDEST PUSH2 0xE21 DUP8 DUP3 DUP9 ADD PUSH2 0xD69 JUMP JUMPDEST SWAP3 POP SWAP3 POP POP SWAP3 SWAP6 SWAP2 SWAP5 POP SWAP3 POP JUMP JUMPDEST PUSH0 DUP1 DUP4 PUSH1 0x1F DUP5 ADD SLT PUSH2 0xE44 JUMPI PUSH2 0xE43 PUSH2 0xD5D JUMP JUMPDEST JUMPDEST DUP3 CALLDATALOAD SWAP1 POP PUSH8 0xFFFFFFFFFFFFFFFF DUP2 GT ISZERO PUSH2 0xE61 JUMPI PUSH2 0xE60 PUSH2 0xD61 JUMP JUMPDEST JUMPDEST PUSH1 0x20 DUP4 ADD SWAP2 POP DUP4 PUSH1 0x1 DUP3 MUL DUP4 ADD GT ISZERO PUSH2 0xE7D JUMPI PUSH2 0xE7C PUSH2 0xD65 JUMP JUMPDEST JUMPDEST SWAP3 POP SWAP3 SWAP1 POP JUMP JUMPDEST PUSH0 DUP1 PUSH1 0x20 DUP4 DUP6 SUB SLT ISZERO PUSH2 0xE9A JUMPI PUSH2 0xE99 PUSH2 0xB24 JUMP JUMPDEST JUMPDEST PUSH0 DUP4 ADD CALLDATALOAD PUSH8 0xFFFFFFFFFFFFFFFF DUP2 GT ISZERO PUSH2 0xEB7 JUMPI PUSH2 0xEB6 PUSH2 0xB28 JUMP JUMPDEST JUMPDEST PUSH2 0xEC3 DUP6 DUP3 DUP7 ADD PUSH2 0xE2F JUMP JUMPDEST SWAP3 POP SWAP3 POP POP SWAP3 POP SWAP3 SWAP1 POP JUMP JUMPDEST PUSH0 PUSH2 0xED9 DUP3 PUSH2 0xCE9 JUMP JUMPDEST SWAP1 POP SWAP2 SWAP1 POP JUMP JUMPDEST PUSH2 0xEE9 DUP2 PUSH2 0xECF JUMP JUMPDEST DUP3 MSTORE POP POP JUMP JUMPDEST PUSH0 PUSH1 0x20 DUP3 ADD SWAP1 POP PUSH2 0xF02 PUSH0 DUP4 ADD DUP5 PUSH2 0xEE0 JUMP JUMPDEST SWAP3 SWAP2 POP POP JUMP JUMPDEST PUSH32 0x4E487B7100000000000000000000000000000000000000000000000000000000 PUSH0 MSTORE PUSH1 0x22 PUSH1 0x4 MSTORE PUSH1 0x24 PUSH0 REVERT JUMPDEST PUSH0 PUSH1 0x2 DUP3 DIV SWAP1 POP PUSH1 0x1 DUP3 AND DUP1 PUSH2 0xF4C JUMPI PUSH1 0x7F DUP3 AND SWAP2 POP JUMPDEST PUSH1 0x20 DUP3 LT DUP2 SUB PUSH2 0xF5F JUMPI PUSH2 0xF5E PUSH2 0xF08 JUMP JUMPDEST JUMPDEST POP SWAP2 SWAP1 POP JUMP JUMPDEST PUSH0 DUP3 DUP3 MSTORE PUSH1 0x20 DUP3 ADD SWAP1 POP SWAP3 SWAP2 POP POP JUMP JUMPDEST PUSH32 0x46756E6374696F6E206F6E6C7920617661696C61626C6520746F206F776E6572 PUSH0 DUP3 ADD MSTORE POP JUMP JUMPDEST PUSH0 PUSH2 0xFA9 PUSH1 0x20 DUP4 PUSH2 0xF65 JUMP JUMPDEST SWAP2 POP PUSH2 0xFB4 DUP3 PUSH2 0xF75 JUMP JUMPDEST PUSH1 0x20 DUP3 ADD SWAP1 POP SWAP2 SWAP1 POP JUMP JUMPDEST PUSH0 PUSH1 0x20 DUP3 ADD SWAP1 POP DUP2 DUP2 SUB PUSH0 DUP4 ADD MSTORE PUSH2 0xFD6 DUP2 PUSH2 0xF9D JUMP JUMPDEST SWAP1 POP SWAP2 SWAP1 POP JUMP JUMPDEST PUSH32 0x55736572206E6F74207265676973746572656400000000000000000000000000 PUSH0 DUP3 ADD MSTORE POP JUMP JUMPDEST PUSH0 PUSH2 0x1011 PUSH1 0x13 DUP4 PUSH2 0xF65 JUMP JUMPDEST SWAP2 POP PUSH2 0x101C DUP3 PUSH2 0xFDD JUMP JUMPDEST PUSH1 0x20 DUP3 ADD SWAP1 POP SWAP2 SWAP1 POP JUMP JUMPDEST PUSH0 PUSH1 0x20 DUP3 ADD SWAP1 POP DUP2 DUP2 SUB PUSH0 DUP4 ADD MSTORE PUSH2 0x103E DUP2 PUSH2 0x1005 JUMP JUMPDEST SWAP1 POP SWAP2 SWAP1 POP JUMP JUMPDEST DUP3 DUP2 DUP4 CALLDATACOPY PUSH0 DUP4 DUP4 ADD MSTORE POP POP POP JUMP JUMPDEST PUSH0 PUSH2 0x105E DUP4 DUP6 PUSH2 0xF65 JUMP JUMPDEST SWAP4 POP PUSH2 0x106B DUP4 DUP6 DUP5 PUSH2 0x1045 JUMP JUMPDEST PUSH2 0x1074 DUP4 PUSH2 0xC57 JUMP JUMPDEST DUP5 ADD SWAP1 POP SWAP4 SWAP3 POP POP POP JUMP JUMPDEST PUSH0 DUP2 MLOAD SWAP1 POP SWAP2 SWAP1 POP JUMP JUMPDEST PUSH0 PUSH2 0x1093 DUP3 PUSH2 0x107F JUMP JUMPDEST PUSH2 0x109D DUP2 DUP6 PUSH2 0xF65 JUMP JUMPDEST SWAP4 POP PUSH2 0x10AD DUP2 DUP6 PUSH1 0x20 DUP7 ADD PUSH2 0xC2F JUMP JUMPDEST PUSH2 0x10B6 DUP2 PUSH2 0xC57 JUMP JUMPDEST DUP5 ADD SWAP2 POP POP SWAP3 SWAP2 POP POP JUMP JUMPDEST PUSH0 PUSH1 0x40 DUP3 ADD SWAP1 POP DUP2 DUP2 SUB PUSH0 DUP4 ADD MSTORE PUSH2 0x10DA DUP2 DUP6 DUP8 PUSH2 0x1053 JUMP JUMPDEST SWAP1 POP DUP2 DUP2 SUB PUSH1 0x20 DUP4 ADD MSTORE PUSH2 0x10EE DUP2 DUP5 PUSH2 0x1089 JUMP JUMPDEST SWAP1 POP SWAP5 SWAP4 POP POP POP POP JUMP JUMPDEST PUSH2 0x1101 DUP2 PUSH2 0xBE2 JUMP JUMPDEST DUP2 EQ PUSH2 0x110B JUMPI PUSH0 DUP1 REVERT JUMPDEST POP JUMP JUMPDEST PUSH0 DUP2 MLOAD SWAP1 POP PUSH2 0x111C DUP2 PUSH2 0x10F8 JUMP JUMPDEST SWAP3 SWAP2 POP POP JUMP JUMPDEST PUSH0 PUSH1 0x20 DUP3 DUP5 SUB SLT ISZERO PUSH2 0x1137 JUMPI PUSH2 0x1136 PUSH2 0xB24 JUMP JUMPDEST JUMPDEST PUSH0 PUSH2 0x1144 DUP5 DUP3 DUP6 ADD PUSH2 0x110E JUMP JUMPDEST SWAP2 POP POP SWAP3 SWAP2 POP POP JUMP JUMPDEST PUSH32 0x6174746573746174696F6E206E6F742076616C69640000000000000000000000 PUSH0 DUP3 ADD MSTORE POP JUMP JUMPDEST PUSH0 PUSH2 0x1181 PUSH1 0x15 DUP4 PUSH2 0xF65 JUMP JUMPDEST SWAP2 POP PUSH2 0x118C DUP3 PUSH2 0x114D JUMP JUMPDEST PUSH1 0x20 DUP3 ADD SWAP1 POP SWAP2 SWAP1 POP JUMP JUMPDEST PUSH0 PUSH1 0x20 DUP3 ADD SWAP1 POP DUP2 DUP2 SUB PUSH0 DUP4 ADD MSTORE PUSH2 0x11AE DUP2 PUSH2 0x1175 JUMP JUMPDEST SWAP1 POP SWAP2 SWAP1 POP JUMP JUMPDEST PUSH0 DUP2 SWAP1 POP SWAP3 SWAP2 POP POP JUMP JUMPDEST PUSH0 PUSH2 0x11CA DUP4 DUP6 PUSH2 0x11B5 JUMP JUMPDEST SWAP4 POP PUSH2 0x11D7 DUP4 DUP6 DUP5 PUSH2 0x1045 JUMP JUMPDEST DUP3 DUP5 ADD SWAP1 POP SWAP4 SWAP3 POP POP POP JUMP JUMPDEST PUSH0 PUSH2 0x11EF DUP3 DUP5 DUP7 PUSH2 0x11BF JUMP JUMPDEST SWAP2 POP DUP2 SWAP1 POP SWAP4 SWAP3 POP POP POP JUMP JUMPDEST PUSH0 DUP2 SWAP1 POP SWAP3 SWAP2 POP POP JUMP JUMPDEST PUSH0 PUSH2 0x1210 DUP4 DUP6 PUSH2 0x11FB JUMP JUMPDEST SWAP4 POP PUSH2 0x121D DUP4 DUP6 DUP5 PUSH2 0x1045 JUMP JUMPDEST DUP3 DUP5 ADD SWAP1 POP SWAP4 SWAP3 POP POP POP JUMP JUMPDEST PUSH0 PUSH2 0x1235 DUP3 DUP5 DUP7 PUSH2 0x1205 JUMP JUMPDEST SWAP2 POP DUP2 SWAP1 POP SWAP4 SWAP3 POP POP POP JUMP JUMPDEST PUSH0 DUP2 SWAP1 POP SWAP2 SWAP1 POP JUMP JUMPDEST PUSH2 0x1253 DUP2 PUSH2 0x1241 JUMP JUMPDEST DUP2 EQ PUSH2 0x125D JUMPI PUSH0 DUP1 REVERT JUMPDEST POP JUMP JUMPDEST PUSH0 DUP2 MLOAD SWAP1 POP PUSH2 0x126E DUP2 PUSH2 0x124A JUMP JUMPDEST SWAP3 SWAP2 POP POP JUMP JUMPDEST PUSH0 PUSH1 0x20 DUP3 DUP5 SUB SLT ISZERO PUSH2 0x1289 JUMPI PUSH2 0x1288 PUSH2 0xB24 JUMP JUMPDEST JUMPDEST PUSH0 PUSH2 0x1296 DUP5 DUP3 DUP6 ADD PUSH2 0x1260 JUMP JUMPDEST SWAP2 POP POP SWAP3 SWAP2 POP POP JUMP JUMPDEST PUSH32 0x4B657920697320696E636F727265637400000000000000000000000000000000 PUSH0 DUP3 ADD MSTORE POP JUMP JUMPDEST PUSH0 PUSH2 0x12D3 PUSH1 0x10 DUP4 PUSH2 0xF65 JUMP JUMPDEST SWAP2 POP PUSH2 0x12DE DUP3 PUSH2 0x129F JUMP JUMPDEST PUSH1 0x20 DUP3 ADD SWAP1 POP SWAP2 SWAP1 POP JUMP JUMPDEST PUSH0 PUSH1 0x20 DUP3 ADD SWAP1 POP DUP2 DUP2 SUB PUSH0 DUP4 ADD MSTORE PUSH2 0x1300 DUP2 PUSH2 0x12C7 JUMP JUMPDEST SWAP1 POP SWAP2 SWAP1 POP JUMP JUMPDEST PUSH32 0x436F6465206E6F74207265636569766564207965742C2073656E6420746F2068 PUSH0 DUP3 ADD MSTORE PUSH32 0x6F7374206174206578616D706C65406578616D706C652E636F6D000000000000 PUSH1 0x20 DUP3 ADD MSTORE POP JUMP JUMPDEST PUSH0 PUSH2 0x1361 PUSH1 0x3A DUP4 PUSH2 0xF65 JUMP JUMPDEST SWAP2 POP PUSH2 0x136C DUP3 PUSH2 0x1307 JUMP JUMPDEST PUSH1 0x40 DUP3 ADD SWAP1 POP SWAP2 SWAP1 POP JUMP JUMPDEST PUSH0 PUSH1 0x20 DUP3 ADD SWAP1 POP DUP2 DUP2 SUB PUSH0 DUP4 ADD MSTORE PUSH2 0x138E DUP2 PUSH2 0x1355 JUMP JUMPDEST SWAP1 POP SWAP2 SWAP1 POP JUMP JUMPDEST PUSH0 DUP3 SWAP1 POP SWAP3 SWAP2 POP POP JUMP JUMPDEST PUSH32 0x4E487B7100000000000000000000000000000000000000000000000000000000 PUSH0 MSTORE PUSH1 0x41 PUSH1 0x4 MSTORE PUSH1 0x24 PUSH0 REVERT JUMPDEST PUSH0 DUP2 SWAP1 POP DUP2 PUSH0 MSTORE PUSH1 0x20 PUSH0 KECCAK256 SWAP1 POP SWAP2 SWAP1 POP JUMP JUMPDEST PUSH0 PUSH1 0x20 PUSH1 0x1F DUP4 ADD DIV SWAP1 POP SWAP2 SWAP1 POP JUMP JUMPDEST PUSH0 DUP3 DUP3 SHL SWAP1 POP SWAP3 SWAP2 POP POP JUMP JUMPDEST PUSH0 PUSH1 0x8 DUP4 MUL PUSH2 0x1428 PUSH32 0xFFFFFFFFFFFFFFFFFFFFFFFFFFFFFFFFFFFFFFFFFFFFFFFFFFFFFFFFFFFFFFFF DUP3 PUSH2 0x13ED JUMP JUMPDEST PUSH2 0x1432 DUP7 DUP4 PUSH2 0x13ED JUMP JUMPDEST SWAP6 POP DUP1 NOT DUP5 AND SWAP4 POP DUP1 DUP7 AND DUP5 OR SWAP3 POP POP POP SWAP4 SWAP3 POP POP POP JUMP JUMPDEST PUSH0 PUSH2 0x1464 PUSH2 0x145F PUSH2 0x145A DUP5 PUSH2 0xBB1 JUMP JUMPDEST PUSH2 0xCBF JUMP JUMPDEST PUSH2 0xBB1 JUMP JUMPDEST SWAP1 POP SWAP2 SWAP1 POP JUMP JUMPDEST PUSH0 DUP2 SWAP1 POP SWAP2 SWAP1 POP JUMP JUMPDEST PUSH2 0x147D DUP4 PUSH2 0x144A JUMP JUMPDEST PUSH2 0x1491 PUSH2 0x1489 DUP3 PUSH2 0x146B JUMP JUMPDEST DUP5 DUP5 SLOAD PUSH2 0x13F9 JUMP JUMPDEST DUP3 SSTORE POP POP POP POP JUMP JUMPDEST PUSH0 SWAP1 JUMP JUMPDEST PUSH2 0x14A5 PUSH2 0x1499 JUMP JUMPDEST PUSH2 0x14B0 DUP2 DUP5 DUP5 PUSH2 0x1474 JUMP JUMPDEST POP POP POP JUMP JUMPDEST JUMPDEST DUP2 DUP2 LT ISZERO PUSH2 0x14D3 JUMPI PUSH2 0x14C8 PUSH0 DUP3 PUSH2 0x149D JUMP JUMPDEST PUSH1 0x1 DUP2 ADD SWAP1 POP PUSH2 0x14B6 JUMP JUMPDEST POP POP JUMP JUMPDEST PUSH1 0x1F DUP3 GT ISZERO PUSH2 0x1518 JUMPI PUSH2 0x14E9 DUP2 PUSH2 0x13CC JUMP JUMPDEST PUSH2 0x14F2 DUP5 PUSH2 0x13DE JUMP JUMPDEST DUP2 ADD PUSH1 0x20 DUP6 LT ISZERO PUSH2 0x1501 JUMPI DUP2 SWAP1 POP JUMPDEST PUSH2 0x1515 PUSH2 0x150D DUP6 PUSH2 0x13DE JUMP JUMPDEST DUP4 ADD DUP3 PUSH2 0x14B5 JUMP JUMPDEST POP POP JUMPDEST POP POP POP JUMP JUMPDEST PUSH0 DUP3 DUP3 SHR SWAP1 POP SWAP3 SWAP2 POP POP JUMP JUMPDEST PUSH0 PUSH2 0x1538 PUSH0 NOT DUP5 PUSH1 0x8 MUL PUSH2 0x151D JUMP JUMPDEST NOT DUP1 DUP4 AND SWAP2 POP POP SWAP3 SWAP2 POP POP JUMP JUMPDEST PUSH0 PUSH2 0x1550 DUP4 DUP4 PUSH2 0x1529 JUMP JUMPDEST SWAP2 POP DUP3 PUSH1 0x2 MUL DUP3 OR SWAP1 POP SWAP3 SWAP2 POP POP JUMP JUMPDEST PUSH2 0x156A DUP4 DUP4 PUSH2 0x1395 JUMP JUMPDEST PUSH8 0xFFFFFFFFFFFFFFFF DUP2 GT ISZERO PUSH2 0x1583 JUMPI PUSH2 0x1582 PUSH2 0x139F JUMP JUMPDEST JUMPDEST PUSH2 0x158D DUP3 SLOAD PUSH2 0xF35 JUMP JUMPDEST PUSH2 0x1598 DUP3 DUP3 DUP6 PUSH2 0x14D7 JUMP JUMPDEST PUSH0 PUSH1 0x1F DUP4 GT PUSH1 0x1 DUP2 EQ PUSH2 0x15C5 JUMPI PUSH0 DUP5 ISZERO PUSH2 0x15B3 JUMPI DUP3 DUP8 ADD CALLDATALOAD SWAP1 POP JUMPDEST PUSH2 0x15BD DUP6 DUP3 PUSH2 0x1545 JUMP JUMPDEST DUP7 SSTORE POP PUSH2 0x1624 JUMP JUMPDEST PUSH1 0x1F NOT DUP5 AND PUSH2 0x15D3 DUP7 PUSH2 0x13CC JUMP JUMPDEST PUSH0 JUMPDEST DUP3 DUP2 LT ISZERO PUSH2 0x15FA JUMPI DUP5 DUP10 ADD CALLDATALOAD DUP3 SSTORE PUSH1 0x1 DUP3 ADD SWAP2 POP PUSH1 0x20 DUP6 ADD SWAP5 POP PUSH1 0x20 DUP2 ADD SWAP1 POP PUSH2 0x15D5 JUMP JUMPDEST DUP7 DUP4 LT ISZERO PUSH2 0x1617 JUMPI DUP5 DUP10 ADD CALLDATALOAD PUSH2 0x1613 PUSH1 0x1F DUP10 AND DUP3 PUSH2 0x1529 JUMP JUMPDEST DUP4 SSTORE POP JUMPDEST PUSH1 0x1 PUSH1 0x2 DUP9 MUL ADD DUP9 SSTORE POP POP POP JUMPDEST POP POP POP POP POP POP POP JUMP JUMPDEST PUSH0 PUSH2 0x1637 DUP3 PUSH2 0xB2C JUMP JUMPDEST SWAP1 POP SWAP2 SWAP1 POP JUMP JUMPDEST PUSH2 0x1647 DUP2 PUSH2 0x162D JUMP JUMPDEST DUP3 MSTORE POP POP JUMP JUMPDEST PUSH0 PUSH1 0x40 DUP3 ADD SWAP1 POP PUSH2 0x1660 PUSH0 DUP4 ADD DUP6 PUSH2 0xBBA JUMP JUMPDEST PUSH2 0x166D PUSH1 0x20 DUP4 ADD DUP5 PUSH2 0x163E JUMP JUMPDEST SWAP4 SWAP3 POP POP POP JUMP INVALID JUMPDEST PUSH13 0x6F616465725D0A656E74727970 PUSH16 0x696E74203D202266696C653A2F757372 0x2F PUSH13 0x69622F7838365F36342D6C696E PUSH22 0x782D676E752F6772616D696E652F6C69627379736462 0x2E PUSH20 0x6F220A6C6F675F6C6576656C203D20226572726F PUSH19 0x220A696E7365637572655F5F7573655F636D64 PUSH13 0x696E655F61726776203D207472 PUSH22 0x650A0A5B6C6F616465722E656E765D0A4C445F4C4942 MSTORE COINBASE MSTORE MSIZE PUSH0 POP COINBASE SLOAD BASEFEE KECCAK256 RETURNDATASIZE KECCAK256 0x22 0x2F PUSH13 0x69623A2F6C69623A2F6C69622F PUSH25 0x38365F36342D6C696E75782D676E753A2F7573722F2F6C6962 0x2F PUSH25 0x38365F36342D6C696E75782D676E75220A4F4D505F4E554D5F SLOAD BASEFEE MSTORE GASLIMIT COINBASE PREVRANDAO MSTORE8 KECCAK256 RETURNDATASIZE KECCAK256 0x22 CALLVALUE 0x22 EXP EXP JUMPDEST PUSH13 0x69626F735D0A656E747279706F PUSH10 0x6E74203D20222F757372 0x2F PUSH3 0x696E2F PUSH17 0x7974686F6E332E38220A0A5B7379735D0A PUSH6 0x6E61626C655F PUSH20 0x69677465726D5F696E6A656374696F6E203D2074 PUSH19 0x75650A656E61626C655F65787472615F72756E PUSH21 0x696D655F646F6D61696E5F6E616D65735F636F6E66 KECCAK256 RETURNDATASIZE KECCAK256 PUSH21 0x7275650A0A5B7379732E737461636B5D0A73697A65 KECCAK256 RETURNDATASIZE KECCAK256 0x22 ORIGIN 0x4D 0x22 EXP EXP JUMPDEST JUMPDEST PUSH7 0x732E6D6F756E74 PUSH20 0x5D5D0A70617468203D20222F6C6962220A757269 KECCAK256 RETURNDATASIZE KECCAK256 0x22 PUSH7 0x696C653A2F7573 PUSH19 0x2F6C69622F7838365F36342D6C696E75782D67 PUSH15 0x752F6772616D696E652F72756E7469 PUSH14 0x652F676C696263220A0A5B5B6673 0x2E PUSH14 0x6F756E74735D5D0A70617468203D KECCAK256 0x22 0x2F PUSH13 0x69622F7838365F36342D6C696E PUSH22 0x782D676E75220A757269203D202266696C653A2F6C69 PUSH3 0x2F7838 CALLDATASIZE PUSH0 CALLDATASIZE CALLVALUE 0x2D PUSH13 0x696E75782D676E75220A0A5B5B PUSH7 0x732E6D6F756E74 PUSH20 0x5D5D0A70617468203D20222F7573722F2F6C6962 0x2F PUSH25 0x38365F36342D6C696E75782D676E75220A757269203D202266 PUSH10 0x6C653A2F7573722F2F6C PUSH10 0x622F7838365F36342D6C PUSH10 0x6E75782D676E75220A0A JUMPDEST JUMPDEST PUSH7 0x732E6D6F756E74 PUSH20 0x5D5D0A70617468203D20222F7573722F6C69622F PUSH17 0x7974686F6E332E38220A757269203D2022 PUSH7 0x696C653A2F7573 PUSH19 0x2F6C69622F707974686F6E332E38220A0A5B5B PUSH7 0x732E6D6F756E74 PUSH20 0x5D5D0A70617468203D20222F7573722F6C69622F PUSH17 0x7974686F6E332E382F6C69622D64796E6C PUSH16 0x6164220A757269203D202266696C653A 0x2F PUSH22 0x73722F6C69622F707974686F6E332E382F6C69622D64 PUSH26 0x6E6C6F6164220A0A5B5B66732E6D6F756E74735D5D0A70617468 KECCAK256 RETURNDATASIZE KECCAK256 0x22 0x2F PUSH22 0x73722F6C6F63616C2F6C69622F707974686F6E332E38 0x2F PUSH5 0x6973742D70 PUSH2 0x636B PUSH2 0x6765 PUSH20 0x220A757269203D202266696C653A2F7573722F6C PUSH16 0x63616C2F6C69622F707974686F6E332E CODESIZE 0x2F PUSH5 0x6973742D70 PUSH2 0x636B PUSH2 0x6765 PUSH20 0x220A0A5B5B66732E6D6F756E74735D5D0A706174 PUSH9 0x203D20222F7573722F PUSH13 0x69622F707974686F6E332F6469 PUSH20 0x742D7061636B61676573220A757269203D202266 PUSH10 0x6C653A2F7573722F6C69 PUSH3 0x2F7079 PUSH21 0x686F6E332F646973742D7061636B61676573220A0A JUMPDEST JUMPDEST PUSH7 0x732E6D6F756E74 PUSH20 0x5D5D0A70617468203D20222F7573722F62696E2F PUSH17 0x7974686F6E332E38220A757269203D2022 PUSH7 0x696C653A2F7573 PUSH19 0x2F62696E2F707974686F6E332E38220A0A5B5B PUSH7 0x732E6D6F756E74 PUSH20 0x5D5D0A70617468203D20222F62696E2F7368220A PUSH22 0x7269203D202266696C653A2F62696E2F7368220A0A5B JUMPDEST PUSH7 0x732E6D6F756E74 PUSH20 0x5D5D0A74797065203D2022746D706673220A7061 PUSH21 0x68203D20222F746D70220A0A5B7367785D0A646562 PUSH22 0x67203D2066616C73650A65646D6D5F656E61626C6520 RETURNDATASIZE KECCAK256 PUSH7 0x616C73650A656E PUSH4 0x6C617665 PUSH0 PUSH20 0x697A65203D20223447220A6D61785F7468726561 PUSH5 0x73203D2033 ORIGIN EXP PUSH19 0x656D6F74655F6174746573746174696F6E203D KECCAK256 0x22 PUSH15 0x6F6E65220A72615F636C69656E745F PUSH20 0x706964203D2022220A72615F636C69656E745F6C PUSH10 0x6E6B61626C65203D2066 PUSH2 0x6C73 PUSH6 0xA7472757374 PUSH6 0x645F66696C65 PUSH20 0x203D205B0A202020207B20757269203D20226669 PUSH13 0x653A2F7573722F6C69622F7838 CALLDATASIZE PUSH0 CALLDATASIZE CALLVALUE 0x2D PUSH13 0x696E75782D676E752F6772616D PUSH10 0x6E652F6C696273797364 PUSH3 0x2E736F 0x22 KECCAK256 PUSH30 0x2C0A202020207B20757269203D202266696C653A2F7573722F62696E2F70 PUSH26 0x74686F6E332E3822207D2C0A202020207B20757269203D202266 PUSH10 0x6C653A2F7573722F6C69 PUSH3 0x2F7838 CALLDATASIZE PUSH0 CALLDATASIZE CALLVALUE 0x2D PUSH13 0x696E75782D676E752F6772616D PUSH10 0x6E652F72756E74696D65 0x2F PUSH8 0x6C6962632F22207D 0x2C EXP KECCAK256 KECCAK256 KECCAK256 KECCAK256 PUSH28 0x20757269203D202266696C653A2F6C69622F7838365F36342D6C696E PUSH22 0x782D676E752F22207D2C0A202020207B20757269203D KECCAK256 0x22 PUSH7 0x696C653A2F7573 PUSH19 0x2F2F6C69622F7838365F36342D6C696E75782D PUSH8 0x6E752F22207D2C0A KECCAK256 KECCAK256 KECCAK256 KECCAK256 PUSH28 0x20757269203D202266696C653A2F7573722F6C69622F707974686F6E CALLER 0x2E CODESIZE 0x2F 0x22 KECCAK256 PUSH30 0x2C0A202020207B20757269203D202266696C653A2F7573722F6C69622F70 PUSH26 0x74686F6E332E382F6C69622D64796E6C6F61642F22207D2C0A20 KECCAK256 KECCAK256 KECCAK256 PUSH28 0x20757269203D202266696C653A2F7573722F6C6F63616C2F6C69622F PUSH17 0x7974686F6E332E382F646973742D706163 PUSH12 0x616765732F22207D2C0A2020 KECCAK256 KECCAK256 PUSH28 0x20757269203D202266696C653A2F7573722F6C69622F707974686F6E CALLER 0x2F PUSH5 0x6973742D70 PUSH2 0x636B PUSH2 0x6765 PUSH20 0x2F22207D2C0A202020207B20757269203D202266 PUSH10 0x6C653A2F62696E2F7368 0x22 KECCAK256 PUSH30 0x2C0A202020207B20757269203D202266696C653A2E2F22207D2C0A202020 KECCAK256 PUSH28 0x20757269203D202266696C653A7375626D697373696F6E2E70792220 PUSH30 0x2C0A202020207B20757269203D202266696C653A696E746572666163652E PUSH17 0x7922207D2C0A202020207B20757269203D KECCAK256 0x22 PUSH7 0x696C653A707562 PUSH13 0x69635F6B65792E74787422207D 0x2C EXP KECCAK256 KECCAK256 KECCAK256 KECCAK256 PUSH28 0x20757269203D202266696C653A7375626D69747465725F6B65792E74 PUSH25 0x7422207D2C0A5D0A69737670726F646964203D20300A697376 PUSH20 0x766E203D20300A656E61626C655F737461747320 RETURNDATASIZE KECCAK256 PUSH7 0x616C73650A7573 PUSH6 0x5F6578696E66 PUSH16 0x203D2066616C73650A0A5B7367782E63 PUSH17 0x755F66656174757265735D0A617678203D KECCAK256 0x22 PUSH22 0x6E737065636966696564220A617678353132203D2022 PUSH22 0x6E737065636966696564220A616D78203D2022756E73 PUSH17 0x65636966696564220A6D7078203D202264 PUSH10 0x7361626C6564220A706B PUSH19 0x75203D202264697361626C6564220AA2646970 PUSH7 0x7358221220A919 NOT 0xC4 0xCA SLOAD 0xD5 DELEGATECALL MSTORE8 0xD6 LOG4 PUSH17 0x89222E06A9BC1BA86D5B88675DAB7CCDE6 0xE 0xB4 0x24 PUSH5 0x736F6C6343 STOP ADDMOD AND STOP CALLER PUSH1 0x80 PUSH1 0x40 MSTORE CALLVALUE DUP1 ISZERO PUSH2 0xF JUMPI PUSH0 DUP1 REVERT JUMPDEST POP PUSH2 0x1BA DUP1 PUSH2 0x1D PUSH0 CODECOPY PUSH0 RETURN INVALID PUSH1 0x80 PUSH1 0x40 MSTORE CALLVALUE DUP1 ISZERO PUSH2 0xF JUMPI PUSH0 DUP1 REVERT JUMPDEST POP PUSH1 0x4 CALLDATASIZE LT PUSH2 0x29 JUMPI PUSH0 CALLDATALOAD PUSH1 0xE0 SHR DUP1 PUSH4 0x9DEB17F5 EQ PUSH2 0x2D JUMPI JUMPDEST PUSH0 DUP1 REVERT JUMPDEST PUSH2 0x47 PUSH1 0x4 DUP1 CALLDATASIZE SUB DUP2 ADD SWAP1 PUSH2 0x42 SWAP2 SWAP1 PUSH2 0xD3 JUMP JUMPDEST PUSH2 0x5D JUMP JUMPDEST PUSH1 0x40 MLOAD PUSH2 0x54 SWAP2 SWAP1 PUSH2 0x16B JUMP JUMPDEST PUSH1 0x40 MLOAD DUP1 SWAP2 SUB SWAP1 RETURN JUMPDEST PUSH0 PUSH1 0x1 SWAP1 POP SWAP5 SWAP4 POP POP POP POP JUMP JUMPDEST PUSH0 DUP1 REVERT JUMPDEST PUSH0 DUP1 REVERT JUMPDEST PUSH0 DUP1 REVERT JUMPDEST PUSH0 DUP1 REVERT JUMPDEST PUSH0 DUP1 REVERT JUMPDEST PUSH0 DUP1 DUP4 PUSH1 0x1F DUP5 ADD SLT PUSH2 0x93 JUMPI PUSH2 0x92 PUSH2 0x72 JUMP JUMPDEST JUMPDEST DUP3 CALLDATALOAD SWAP1 POP PUSH8 0xFFFFFFFFFFFFFFFF DUP2 GT ISZERO PUSH2 0xB0 JUMPI PUSH2 0xAF PUSH2 0x76 JUMP JUMPDEST JUMPDEST PUSH1 0x20 DUP4 ADD SWAP2 POP DUP4 PUSH1 0x1 DUP3 MUL DUP4 ADD GT ISZERO PUSH2 0xCC JUMPI PUSH2 0xCB PUSH2 0x7A JUMP JUMPDEST JUMPDEST SWAP3 POP SWAP3 SWAP1 POP JUMP JUMPDEST PUSH0 DUP1 PUSH0 DUP1 PUSH1 0x40 DUP6 DUP8 SUB SLT ISZERO PUSH2 0xEB JUMPI PUSH2 0xEA PUSH2 0x6A JUMP JUMPDEST JUMPDEST PUSH0 DUP6 ADD CALLDATALOAD PUSH8 0xFFFFFFFFFFFFFFFF DUP2 GT ISZERO PUSH2 0x108 JUMPI PUSH2 0x107 PUSH2 0x6E JUMP JUMPDEST JUMPDEST PUSH2 0x114 DUP8 DUP3 DUP9 ADD PUSH2 0x7E JUMP JUMPDEST SWAP5 POP SWAP5 POP POP PUSH1 0x20 DUP6 ADD CALLDATALOAD PUSH8 0xFFFFFFFFFFFFFFFF DUP2 GT ISZERO PUSH2 0x137 JUMPI PUSH2 0x136 PUSH2 0x6E JUMP JUMPDEST JUMPDEST PUSH2 0x143 DUP8 DUP3 DUP9 ADD PUSH2 0x7E JUMP JUMPDEST SWAP3 POP SWAP3 POP POP SWAP3 SWAP6 SWAP2 SWAP5 POP SWAP3 POP JUMP JUMPDEST PUSH0 DUP2 ISZERO ISZERO SWAP1 POP SWAP2 SWAP1 POP JUMP JUMPDEST PUSH2 0x165 DUP2 PUSH2 0x151 JUMP JUMPDEST DUP3 MSTORE POP POP JUMP JUMPDEST PUSH0 PUSH1 0x20 DUP3 ADD SWAP1 POP PUSH2 0x17E PUSH0 DUP4 ADD DUP5 PUSH2 0x15C JUMP JUMPDEST SWAP3 SWAP2 POP POP JUMP INVALID LOG2 PUSH5 0x6970667358 0x22 SLT KECCAK256 SWAP13 0xC0 0xAE BALANCE MOD 0xB3 DUP16 XOR SWAP1 BASEFEE 0xC3 0xB0 CODECOPY 0x23 DUP16 EXTCODESIZE EXTCODEHASH 0xAC 0xC6 DUP12 PUSH22 0x8BD618792B9DAF81C04C5D64736F6C63430008160033 PUSH1 0x80 PUSH1 0x40 MSTORE CALLVALUE DUP1 ISZERO PUSH2 0xF JUMPI PUSH0 DUP1 REVERT JUMPDEST POP PUSH2 0x1A0 DUP1 PUSH2 0x1D PUSH0 CODECOPY PUSH0 RETURN INVALID PUSH1 0x80 PUSH1 0x40 MSTORE CALLVALUE DUP1 ISZERO PUSH2 0xF JUMPI PUSH0 DUP1 REVERT JUMPDEST POP PUSH1 0x4 CALLDATASIZE LT PUSH2 0x29 JUMPI PUSH0 CALLDATALOAD PUSH1 0xE0 SHR DUP1 PUSH4 0xB7760C8F EQ PUSH2 0x2D JUMPI JUMPDEST PUSH0 DUP1 REVERT JUMPDEST PUSH2 0x47 PUSH1 0x4 DUP1 CALLDATASIZE SUB DUP2 ADD SWAP1 PUSH2 0x42 SWAP2 SWAP1 PUSH2 0xF9 JUMP JUMPDEST PUSH2 0x5D JUMP JUMPDEST PUSH1 0x40 MLOAD PUSH2 0x54 SWAP2 SWAP1 PUSH2 0x151 JUMP JUMPDEST PUSH1 0x40 MLOAD DUP1 SWAP2 SUB SWAP1 RETURN JUMPDEST PUSH0 PUSH1 0x1 SWAP1 POP SWAP3 SWAP2 POP POP JUMP JUMPDEST PUSH0 DUP1 REVERT JUMPDEST PUSH0 DUP2 SWAP1 POP SWAP2 SWAP1 POP JUMP JUMPDEST PUSH2 0x7E DUP2 PUSH2 0x6C JUMP JUMPDEST DUP2 EQ PUSH2 0x88 JUMPI PUSH0 DUP1 REVERT JUMPDEST POP JUMP JUMPDEST PUSH0 DUP2 CALLDATALOAD SWAP1 POP PUSH2 0x99 DUP2 PUSH2 0x75 JUMP JUMPDEST SWAP3 SWAP2 POP POP JUMP JUMPDEST PUSH0 PUSH20 0xFFFFFFFFFFFFFFFFFFFFFFFFFFFFFFFFFFFFFFFF DUP3 AND SWAP1 POP SWAP2 SWAP1 POP JUMP JUMPDEST PUSH0 PUSH2 0xC8 DUP3 PUSH2 0x9F JUMP JUMPDEST SWAP1 POP SWAP2 SWAP1 POP JUMP JUMPDEST PUSH2 0xD8 DUP2 PUSH2 0xBE JUMP JUMPDEST DUP2 EQ PUSH2 0xE2 JUMPI PUSH0 DUP1 REVERT JUMPDEST POP JUMP JUMPDEST PUSH0 DUP2 CALLDATALOAD SWAP1 POP PUSH2 0xF3 DUP2 PUSH2 0xCF JUMP JUMPDEST SWAP3 SWAP2 POP POP JUMP JUMPDEST PUSH0 DUP1 PUSH1 0x40 DUP4 DUP6 SUB SLT ISZERO PUSH2 0x10F JUMPI PUSH2 0x10E PUSH2 0x68 JUMP JUMPDEST JUMPDEST PUSH0 PUSH2 0x11C DUP6 DUP3 DUP7 ADD PUSH2 0x8B JUMP JUMPDEST SWAP3 POP POP PUSH1 0x20 PUSH2 0x12D DUP6 DUP3 DUP7 ADD PUSH2 0xE5 JUMP JUMPDEST SWAP2 POP POP SWAP3 POP SWAP3 SWAP1 POP JUMP JUMPDEST PUSH0 DUP2 ISZERO ISZERO SWAP1 POP SWAP2 SWAP1 POP JUMP JUMPDEST PUSH2 0x14B DUP2 PUSH2 0x137 JUMP JUMPDEST DUP3 MSTORE POP POP JUMP JUMPDEST PUSH0 PUSH1 0x20 DUP3 ADD SWAP1 POP PUSH2 0x164 PUSH0 DUP4 ADD DUP5 PUSH2 0x142 JUMP JUMPDEST SWAP3 SWAP2 POP POP JUMP INVALID LOG2 PUSH5 0x6970667358 0x22 SLT KECCAK256 0xB4 SHL GASPRICE DUP15 SWAP13 PUSH19 0xC990349FAFFFB42546AB55ED41065695A705F0 0xBF CREATE 0xBD 0xCB 0x1F PUSH17 0xF664736F6C634300081600330000000000 "
		},
		"gasEstimates": {
			"creation": {
				"codeDepositCost": "1613400",
				"executionCost": "infinite",
				"totalCost": "infinite"
			},
			"external": {
				"balance()": "2491",
				"claimRewards(bytes)": "infinite",
				"codeReceived(address)": "27080",
				"code_hash_map(address)": "2802",
				"code_received(address)": "2877",
				"key_hash_map(address)": "2803",
				"registerUser(address)": "27036",
				"submission(uint256,uint256,string)": "infinite",
				"submitter_key_map(address)": "infinite",
				"token()": "infinite",
				"user_registered(address)": "2856",
				"verifier()": "infinite"
			}
		},
		"methodIdentifiers": {
			"balance()": "b69ef8a8",
			"claimRewards(bytes)": "e190febc",
			"codeReceived(address)": "321753c3",
			"code_hash_map(address)": "859330cd",
			"code_received(address)": "a0aacbe5",
			"key_hash_map(address)": "037aeef9",
			"registerUser(address)": "2199d5cd",
			"submission(uint256,uint256,string)": "8f2457a4",
			"submitter_key_map(address)": "212d5c08",
			"token()": "fc0c546a",
			"user_registered(address)": "134a0709",
			"verifier()": "2b7ac3f3"
		}
	},
	"abi": [
		{
			"inputs": [
				{
					"internalType": "address",
					"name": "owner_addr",
					"type": "address"
				}
			],
			"stateMutability": "nonpayable",
			"type": "constructor"
		},
		{
			"anonymous": false,
			"inputs": [
				{
					"indexed": true,
					"internalType": "address",
					"name": "submitter",
					"type": "address"
				},
				{
					"indexed": true,
					"internalType": "bytes",
					"name": "submitter_key",
					"type": "bytes"
				}
			],
			"name": "keyReceived",
			"type": "event"
		},
		{
			"anonymous": false,
			"inputs": [
				{
					"indexed": true,
					"internalType": "address",
					"name": "submitter",
					"type": "address"
				},
				{
					"indexed": true,
					"internalType": "uint256",
					"name": "code_hash",
					"type": "uint256"
				},
				{
					"indexed": true,
					"internalType": "string",
					"name": "attestation",
					"type": "string"
				}
			],
			"name": "submissionReceived",
			"type": "event"
		},
		{
			"inputs": [],
			"name": "balance",
			"outputs": [
				{
					"internalType": "uint256",
					"name": "",
					"type": "uint256"
				}
			],
			"stateMutability": "view",
			"type": "function"
		},
		{
			"inputs": [
				{
					"internalType": "bytes",
					"name": "submitter_key",
					"type": "bytes"
				}
			],
			"name": "claimRewards",
			"outputs": [],
			"stateMutability": "nonpayable",
			"type": "function"
		},
		{
			"inputs": [
				{
					"internalType": "address",
					"name": "submitter",
					"type": "address"
				}
			],
			"name": "codeReceived",
			"outputs": [],
			"stateMutability": "nonpayable",
			"type": "function"
		},
		{
			"inputs": [
				{
					"internalType": "address",
					"name": "",
					"type": "address"
				}
			],
			"name": "code_hash_map",
			"outputs": [
				{
					"internalType": "uint256",
					"name": "",
					"type": "uint256"
				}
			],
			"stateMutability": "view",
			"type": "function"
		},
		{
			"inputs": [
				{
					"internalType": "address",
					"name": "",
					"type": "address"
				}
			],
			"name": "code_received",
			"outputs": [
				{
					"internalType": "bool",
					"name": "",
					"type": "bool"
				}
			],
			"stateMutability": "view",
			"type": "function"
		},
		{
			"inputs": [
				{
					"internalType": "address",
					"name": "",
					"type": "address"
				}
			],
			"name": "key_hash_map",
			"outputs": [
				{
					"internalType": "uint256",
					"name": "",
					"type": "uint256"
				}
			],
			"stateMutability": "view",
			"type": "function"
		},
		{
			"inputs": [
				{
					"internalType": "address",
					"name": "new_id",
					"type": "address"
				}
			],
			"name": "registerUser",
			"outputs": [],
			"stateMutability": "nonpayable",
			"type": "function"
		},
		{
			"inputs": [
				{
					"internalType": "uint256",
					"name": "code_hash",
					"type": "uint256"
				},
				{
					"internalType": "uint256",
					"name": "key_hash",
					"type": "uint256"
				},
				{
					"internalType": "string",
					"name": "attestation",
					"type": "string"
				}
			],
			"name": "submission",
			"outputs": [],
			"stateMutability": "nonpayable",
			"type": "function"
		},
		{
			"inputs": [
				{
					"internalType": "address",
					"name": "",
					"type": "address"
				}
			],
			"name": "submitter_key_map",
			"outputs": [
				{
					"internalType": "bytes",
					"name": "",
					"type": "bytes"
				}
			],
			"stateMutability": "view",
			"type": "function"
		},
		{
			"inputs": [],
			"name": "token",
			"outputs": [
				{
					"internalType": "contract PaymentToken",
					"name": "",
					"type": "address"
				}
			],
			"stateMutability": "view",
			"type": "function"
		},
		{
			"inputs": [
				{
					"internalType": "address",
					"name": "",
					"type": "address"
				}
			],
			"name": "user_registered",
			"outputs": [
				{
					"internalType": "bool",
					"name": "",
					"type": "bool"
				}
			],
			"stateMutability": "view",
			"type": "function"
		},
		{
			"inputs": [],
			"name": "verifier",
			"outputs": [
				{
					"internalType": "contract SGXVerifier",
					"name": "",
					"type": "address"
				}
			],
			"stateMutability": "view",
			"type": "function"
		}
	]
}